:060000000A128A11122809
:10000800FE00030EF8000408F9000A08FA0083123B
:1000180003137F08FB000A128A11852B0A128A151E
:10002800DE2F0A128A1159270A128A110A128A1512
:10003800C6270A128A11423083120313D900D90B3A
:10004800232864000A128A1143240A128A110A1208
:100058008A1135270A128A110A128A15CF270A121D
:100068008A110A128A15ED270A128A110A128A11B0
:10007800BD270A128A1113300A128A1110270A1290
:100088008A1183120313D3010314D30D02300A1209
:100098008A117D260A128A1101300A128A11102744
:1000A8000A128A111A3083120313DB005E30DA0059
:1000B8008630D900D90B5E28DA0B5E28DB0B5E2868
:1000C80064000A128A11BD270A128A11DE28DE2866
:1000D8000A128A11A0270A128A1182308312031386
:1000E800DA00DD30D900D90B7728DA0B77287C289D
:1000F8000A128A11C1220A128A11DE28871447308F
:100108000A128A11E4260A128A110A128A117D2714
:100118000A128A11831203138710DE2887145230BB
:100128000A128A11E4260A128A110A128A117D27F4
:100138000A128A11831203138710DE28871452309B
:100148000A128A11E4260A128A11831203138710ED
:10015800D3010314D30D01300A128A117D260A1225
:100168008A1136300A128A1110270A128A1183124C
:100178000313D3010314D30D02300A128A117D260A
:100188000A128A1125300A128A1110270A128A11B6
:10019800DE2887140A128A117D270A128A1183120F
:1001A800031387100A128A11BD270A128A11DE2842
:1001B800DE28DE28831203134908003A03196C2845
:1001C800013A03198228033A03199228013A0319BC
:1001D800A228073A0319CD28013A0319D628DE28A0
:1001E800DE28DE280A128A111228831203134C080B
:1001F800D10004300310D10CFF3E031DFE28510826
:10020800D2005208CD004C08D10003300310D10DA4
:10021800FF3E031D0A290310510DD2005208CE00DB
:100228004E08D10004300310D10CFF3E031D1729DE
:100238005108D2005208CE005C104C1C24295C14D2
:10024800831203134C08D10001300310D10CFF3E78
:10025800031D2929DC10511C3229DC1483120313D5
:100268004C08D10002300310D10CFF3E031D372982
:100278005C11511C40295C15831203134C08D100F2
:1002880003300310D10CFF3E031D4529DC11511C1E
:100298004E29DC15831203134C08D10004300310D7
:1002A800D10CFF3E031D53295C12511C5C295C16BE
:1002B800831203134C08D10005300310D10CFF3E04
:1002C800031D6129DC12511C6A29DC1683120313F1
:1002D8004C08D10006300310D10CFF3E031D6F29D6
:1002E8005C13511C78295C17831203134C08D10046
:1002F80007300310D10CFF3E031D7D29DC13511C70
:100308008629DC17831203135C1A8B298F29831221
:10031800031389149229831203138910DC1A95296F
:1003280099298312031306169C29831203130612B4
:100338005C1B9F29A329831203130915A62983127D
:1003480003130911DC1BA929AD298312031386168F
:10035800B029831203138612861586115C18B529F5
:10036800B929831203138914BC2983120313891032
:10037800DC18BF29C329831203130616C629831262
:10038800031306125C19C929CD2983120313091511
:10039800D029831203130911DC19D329D729831211
:1003A80003138616DA29831203138612861586111B
:1003B8000800831203134C08F00004300310F00CFB
:1003C800FF3E031DE2297008F1007108CD004C08BA
:1003D800F00003300310F00DFF3E031DEE2903105B
:1003E800700DF1007108CE004E08F00004300310C3
:1003F800F00CFF3E031DFB297008F1007108CE00C8
:100408005C104C1C082A5C14831203134C08F0007F
:1004180001300310F00CFF3E031D0D2ADC10701C88
:10042800162ADC14831203134C08F0000230031060
:10043800F00CFF3E031D1B2A5C11701C242A5C155E
:10044800831203134C08F00003300310F00CFF3E36
:10045800031D292ADC11701C322ADC1583120313B0
:100468004C08F00004300310F00CFF3E031D372A3F
:100478005C12701C402A5C16831203134C08F000AF
:1004880005300310F00CFF3E031D452ADC12701CDA
:100498004E2ADC16831203134C08F00006300310B2
:1004A800F00CFF3E031D532A5C13701C5C2A5C177A
:1004B800831203134C08F00007300310F00CFF3EC2
:1004C800031D612ADC13701C6A2ADC1783120313CC
:1004D8005C1A6F2A732A831203138914762A8312EB
:1004E80003138910DC1A792A7D2A8312031306164E
:1004F800802A8312031306125C1B832A872A83121D
:10050800031309158A2A831203130911DC1B8D2A88
:10051800912A831203138616942A831203138612D0
:10052800861586115C18992A9D2A8312031389144B
:10053800A02A831203138910DC18A32AA72A83127E
:1005480003130616AA2A8312031306125C19AD2A8E
:10055800B12A831203130915B42A8312031309114C
:10056800DC19B72ABB2A831203138616BE2A831204
:1005780003138612861586110800831203132008B8
:100588002A3A031DC82AC92AF62A2108233A031D34
:10059800CE2ACF2AF62A2208443A031DD42AD52A7D
:1005A800F62A2308523A031DDA2ADB2AF62A2408F7
:1005B800453A031DE02AE12AF62A2508513A031D87
:1005C800E62AE72AF62A26083F3A031DEC2AED2AEE
:1005D800F62A0A128A11B5260A128A1183120313FF
:1005E8005D14842B20082A3A031DFB2AFC2A3B2B86
:1005F8002108233A031D012B022B3B2B2208443AE6
:10060800031D072B082B3B2B2308523A031D0D2BE8
:100618000E2B3B2B2408453A031D132B142B3B2B85
:100628002508513A031D192B1A2B3B2B26083D3A56
:10063800031D1F2B202B3B2B2708313A031D252B8D
:10064800262B3B2B2808323A031D2B2B2C2B3B2B1C
:100658002908333A031D312B322B3B2B0A128A11FE
:10066800B5260A128A11831203135D14842B2008FD
:100678002A3A031D402B412B802B2108233A031DC6
:10068800462B472B802B2208423A031D4C2B4D2B1F
:10069800802B2308523A031D522B532B802B2408FE
:1006A800453A031D582B592B802B2508513A031D19
:1006B8005E2B5F2B802B26083D3A031D642B652B90
:1006C800802B2708313A031D6A2B6B2B802B2808B7
:1006D800323A031D702B712B802B2908333A031DE6
:1006E800762B772B802B0A128A11B5260A128A11CB
:1006F800831203135D14842B5D14842B842B842BA9
:1007080008000C1C882B892BF02B0130C507031817
:10071800C60A0030C6070A3045064604031D952B55
:10072800962BEA2B0130C7070318C80A0030C80700
:1007380040308806C501C6013C3047064804031D01
:10074800A62BA72BEA2B0130C3070318C40A0030D5
:10075800C4070A128A11F4240A128A110A128A1189
:10076800D4270A128A1183120313C701C8014F083C
:10077800F600F7017608F0007708F1004408F30165
:10078800F3074308F201F2070A128A1139260A12FE
:100798008A117108FD01FD077008FC01FC07D52BC3
:1007A800D52B3C308312031343064404031DDD2B71
:1007B800DE2BEA2BC301C4010130C1070318C20AAA
:1007C8000030C207EA2BEA2BEA2BEA2B0C10B030D8
:1007D8008E003C308F00F02B8C1EF32BF42B292C31
:1007E8001819F72BF82B1B2C9818FB2BFC2B1B2C00
:1007F8001A08F6007608D0001A082A3A0319052CB8
:10080800062C0C2C14304A02031C0B2C0C2C0E2C1E
:10081800CA010E2C1A08F6004A08203E8400760801
:10082800831380000130F6007608CA07272C1812B7
:1008380018111A08F6007608D0001A08F60076088B
:10084800D0001816272C8C12292C981C2C2C2D2CF7
:10085800382C18121A08F6007608D0001A08F60084
:100868007608D0001816382C7B08FF007A088A0012
:1008780079088400780E8300FE0E7E0E090083122C
:10088800031309102830D3005308CC000A128A1128
:10089800F9200A128A11343083120313D400F1307C
:1008A800D300D30B552CD40B552C5A2C283083123B
:1008B8000313D3005308CC000A128A11F9200A1234
:1008C8008A11343083120313D400F130D300D30BD0
:1008D8006B2CD40B6B2C702C063083120313D300B3
:1008E8005308CC000A128A11F9200A128A113430EE
:1008F80083120313D400F130D300D30B812CD40B13
:10090800812C862C063083120313D3005308CC00A5
:100918000A128A11F9200A128A1134308312031339
:10092800D400F130D300D30B972CD40B972C9C2CEC
:100938000D3083120313D3005308CC000A128A1116
:10094800F9200A128A11343083120313D400F130CB
:10095800D300D30BAD2CD40BAD2CB22C0D3083129D
:100968000313D3005308CC000A128A11F9200A1283
:100978008A11343083120313D400F130D300D30B1F
:10098800C32CD40BC32CC82C183083120313D300E8
:100998005308CC000A128A11F9200A128A1134303D
:1009A80083120313D400F130D300D30BD92CD40B0A
:1009B800D92CDE2C83120313CC010314CC0D0A129C
:1009C8008A11F9200A128A11343083120313D400D1
:1009D800F130D300D30BEE2CD40BEE2CF32C080003
:1009E8008312031309102830F2007208CC000A128F
:1009F8008A11DD210A128A113430F300F130F20035
:100A0800F20B042DF30B042D092D2830F200720887
:100A180083120313CC000A128A11DD210A128A11EB
:100A28003430F300F130F200F20B182DF30B182DCF
:100A38001D2D0630F200720883120313CC000A122F
:100A48008A11DD210A128A113430F300F130F200E4
:100A5800F20B2C2DF30B2C2D312D0630F2007208E1
:100A680083120313CC000A128A11DD210A128A119B
:100A78003430F300F130F200F20B402DF30B402D2F
:100A8800452D0D30F200720883120313CC000A12B0
:100A98008A11DD210A128A113430F300F130F20094
:100AA800F20B542DF30B542D592D0D30F200720812
:100AB80083120313CC000A128A11DD210A128A114B
:100AC8003430F300F130F200F20B682DF30B682D8F
:100AD8006D2D1830F200720883120313CC000A122D
:100AE8008A11DD210A128A113430F300F130F20044
:100AF800F20B7C2DF30B7C2D812D83120313CC017B
:100B08000314CC0D0A128A11DD210A128A1134301D
:100B1800F300F130F200F20B8F2DF30B8F2D942D93
:100B2800080005308A000408840A8207003420344B
:100B380061346E346434203448346534613472343A
:100B4800743420345234613474346534203420349D
:100B5800003442346F346434793420345434653486
:100B68006D3470346534723461347434753472346D
:100B780065342034003420342034203420342034A8
:100B880020342034203420342034203420342034BD
:100B980020342034203400344434613474346134D3
:100BA8002034723465347134753465347334743474
:100BB8002E342E342E34203400342A342334443452
:100BC8005234453451343D343134323433340034C2
:100BD8002A3423343134323433343D3400348312EC
:100BE8000313D5005508D30002300310D30DFF3E80
:100BF800031DF92D0310530DD4005408D5001F0808
:100C0800C7399F001F0855049F001F141030D300D8
:100C1800D30B0C2E6400831203131F15132E1F19F8
:100C2800162E172E132E182E1E08D300D401530883
:100C3800D6005408D7005608D400D3015308D6006C
:100C48005408D700831603131E088312031356078C
:100C5800D60057080318570AD7005708D201D207F9
:100C68005608D101D107382E0800710870040319FD
:100C78003E2E3F2E752EF5010314F50D4F2E013033
:100C88000310F00DF10DFF3E031D442E0130F4005A
:100C98007408F5074F2EF11F522E532E432E552E52
:100CA800552E71087302031D5B2E70087202031C17
:100CB8005E2E5F2E662E7008F2027108031CF30385
:100CC800F302662E01300310F10CF00CFF3E031DF9
:100CD800672E0130F502031D722E732E552E752EC8
:100CE800752E7308F101F1077208F001F0077C2EE8
:100CF800080083120313D7005708013A031D852EF5
:100D0800862E8A2E8030D4005408D7005708023A1D
:100D1800031D8F2E902E952EC030D4005408D70076
:100D2800952E53085707FF3ED4005408D6000910E3
:100D38005608D4005408CC000A128A11F9200A1265
:100D48008A110D3083120313D500FB30D400D40B65
:100D5800AB2ED50BAB2EB02E83120313D701D301C4
:100D6800080083120313D101D2015208803AFF0010
:100D780080307F02031DC22E14305102031CC52E81
:100D8800C62EC82EE32EE32E831203135108203EED
:100D98008400831380010130D1070318D20A003080
:100DA800D2075208803AFF0080307F02031DDE2EF2
:100DB80014305102031CE12EE22EC82EE32E080047
:100DC80083120313D200022FE92E0C1EEC2EED2EF7
:100DD800E92EEE2E520884000A128A1195250A126D
:100DE8008A1199000330D100D10BF82E8312031316
:100DF8005208013ED1005108D200022F5208840047
:100E08000A128A1195250A128A110038031D0D2F1E
:100E18000E2FE92E0F2F080083120313D70070300E
:100E2800D5005508D6001F2F58080A128A11E9273D
:100E38000A128A111F2F013083120313D707FF30BC
:100E4800570784000A128A1195250A128A11D500BB
:100E58005508D800D808031D322F332F182F342FE8
:100E68000800193083160313990083120313981787
:100E78001813181683160313181398161812181532
:100E8800193099008C160C12831203139811033031
:100E9800D3008A30D2005630D100D10B512FD20B5B
:100EA800512FD30B512F582F0800FF3083160313EF
:100EB8008500831203138501C0308316031386004F
:100EC800831203138601803083160313870083126D
:100ED800031387010C30831603138800831203134E
:100EE8008801803083160313890083120313890154
:100EF80008007E2F831203130C1E832F842F7E2F4E
:100F0800852F0D309900F930D1006400D10B892F5D
:100F18008D2F64008F2F831203130C1E942F952F8F
:100F28008F2F962F0A309900F930D1006400D10B29
:100F38009A2F9E2F6400080000300A128A11F325A8
:100F48000A128A11831203135208BE01BE07510800
:100F5800BD01BD0701300A128A11F3250A128A1150
:100F6800831203135208C001C0075108BF01BF070D
:100F78000800831203130910CC010314CC0D0A12C4
:100F88008A11F9200A128A110D3083120313D40032
:100F9800FB30D300D30BCE2FD40BCE2FD32F08008A
:100FA800831203130910CC010314CC0D0A128A1101
:100FB800DD210A128A110D30F300FB30F200F20B2A
:100FC800E32FF30BE32FE82F080083120313D40059
:100FD80009145408D3005308CC000A128A11F920C6
:100FE8000A128A11213083120313D300D30BFA2F6C
:020FF8000800EF
:101F7C0064008001840A0406031900340406BF2F90
:101F8C004030831203139F008430831603139F0089
:101F9C000800831203139012101690101014901155
:101FAC00B0308E003C308F00831603130C140800E5
:101FBC00DC01DD0183132030840051300A128A15B4
:101FCC00BE270A128A1583010A128A1115288B1151
:101FDC000B12831603138C130C130C128C168C110E
:101FEC000C110C148C108B120D128D110D108B17F3
:041FFC000B170800B7
:00000001FF
