:1000000000000A128A111228FE00030E8312031345
:10001000A1000408A2000A08A3007F08A4000A1691
:0A0020008A11E62D0A168A15C42B7A
:10002C000134013483120313A80007150630A7000E
:10003C00A70B1E286400831203132808A7002708A7
:10004C00DC000A168A11EA240A128A112130831262
:10005C000313A700A70B302808000A168A15E723FC
:10006C000A128A110A168A15E2220A128A110A1633
:10007C008A1127220A128A110A168A155E230A127D
:10008C008A110A168A153E230A128A110A168A1533
:10009C00EB220A128A110A168A15FA220A128A11FE
:1000AC000A168A1127220A128A110A168A155E2349
:1000BC000A128A1169300A128A1137220A128A111D
:1000CC0083120313A7010314A70D02300A168A1515
:1000DC0091250A128A1157300A128A1137220A12F4
:1000EC008A11063083160313CA001330C900B130CD
:1000FC00C800C80B7F28C90B7F28CA0B7F2886280D
:10010C0083120313A7010314A70D01300A168A15D5
:10011C0091250A128A1145300A128A1137220A12C5
:10012C008A1183120313A7010314A70D02300A16B8
:10013C008A1591250A128A1133300A128A11372234
:10014C000A128A11063083160313CA001330C90031
:10015C00B130C800C80BB028C90BB028CA0BB028E6
:10016C00B72883120313A7010314A70D01300A1635
:10017C008A1591250A128A119D300A128A1137228A
:10018C000A128A1183120313A7010314A70D02305C
:10019C000A168A1591250A128A11AE300A128A1192
:1001AC0037220A128A11063083160313CA00133041
:1001BC00C900B130C800C80BE128C90BE128CA0B33
:1001CC00E128E82883120313A7010314A70D0130BB
:1001DC000A168A1591250A128A11831203134B08E9
:1001EC00B401B4074A08B301B307D0300A128A111C
:1001FC0037220A128A1183120313A7010314A70DC5
:10020C0002300A168A1591250A128A1183120313D9
:10021C004F08B401B4074E08B301B307BF300A123C
:10022C008A1137220A128A110A168A155E230A12BB
:10023C008A115B3083160313C8004808831203131A
:10024C00DF001A3083160313C900F830C800C80B3E
:10025C002D29C90B2D2964002A3083160313C800DD
:10026C00480883120313A50001300A168A15562577
:10027C000A128A1100300A168A150B240A128A11E6
:10028C0083160313C800C9014808CB004908CC00E9
:10029C000A168A15D5220A128A110A168A11922177
:1002AC000A128A11102A102A102A0A3083160313F4
:1002BC00C800480883120313DF00102A1430831679
:1002CC000313C800480883120313DF00102A1E30E2
:1002DC0083160313C800480883120313DF00102A87
:1002EC000A3083160313C800480883120313DF0077
:1002FC00102A0A168A15E2240A128A118312031391
:10030C005508AF01AF075408AE01AE070A128A15A3
:10031C00A6220A128A11E1300A168A1582240A12C0
:10032C008A11831203135708AF01AF075608AE01A9
:10033C00AE070A128A15A6220A128A11E1300A1691
:10034C008A1582240A128A11831203134D08AF01F5
:10035C00AF074C08AE01AE070A128A15A6220A1284
:10036C008A11E1300A168A1582240A128A11831224
:10037C0003134908AF01AF074808AE01AE070A12D4
:10038C008A15A6220A128A11E1300A168A158224CD
:10039C000A128A110A168A15A1230A128A114130EF
:1003AC0083160313C900EE30C800C80BDB29C90B38
:1003BC00DB2964000A168A15D5220A128A110A163C
:1003CC008A11F9220A128A11323083120313A50002
:1003DC000030A6000A168A15A0260A128A1132309D
:1003EC0083120313A5000030A6000A168A115420AC
:1003FC000A128A11102A102A0A168A11F9220A12D4
:10040C008A11102A102A0A168A11F9220A128A1144
:10041C00102A102A831203135F08003A0319102ABA
:10042C00013A03195B29033A03196429013A0319A8
:10043C006D29093A03197F291E3A0319022A0A3A2F
:10044C000319092A453A03197629073A0319102A80
:10045C00013A0319102A102A102A102A0A128A119A
:10046C00122883120313BE003330B5003508BD00CB
:10047C00E92F4508253A0319442A452A4C2A4508F0
:10048C000A128A1118200A128A11E92F83120313F7
:10049C00C001C101C601C7016D2A6D2AC615013004
:1004AC00B5003508BE076D2A46140130B500350875
:1004BC00BE076D2AC7150130B5003508BE076D2A79
:1004CC0046150130B5003508BE076D2A832A3E0853
:1004DC0084000A128A1500200A128A11203A031984
:1004EC005A2A033A0319602A0E3A0319542A1D3A60
:1004FC000319662A832A832A6D2AC61D862A872A0F
:10050C008C2AFB30C605FF30C7058C2A3E088400B8
:10051C000A128A1500200A128A110A168A150D234E
:10052C000A128A11031C9B2A9C2AE02A83120313A9
:10053C00C001C101A12A831203134108A601A60719
:10054C004008A501A5070A30A7000030A8000A162C
:10055C008A1556240A128A11831203133E0884004A
:10056C000A128A1500200A128A112507B5000030DC
:10057C00031801302607B6003508D03EC0003608F7
:10058C000318013EFF3EC1000130B5003508BE071F
:10059C003E0884000A128A1500200A128A110A16D3
:1005AC008A150D230A128A110318DD2ADE2AA12AC4
:1005BC00002B002B831203133E0884000A128A15A9
:1005CC0000200A128A112A3A031DED2AEE2A002B6A
:1005DC003D08840083130008C000840A0008C10091
:1005EC000230B5003508BD070130B5003508BE072F
:1005FC00002B002B831203133E0884000A128A1569
:10060C0000200A128A112E3A031D0D2B0E2B642B7F
:10061C0047170130B5003508BE073E0884000A12A2
:10062C008A1500200A128A112A3A031D1E2B1F2B31
:10063C002F2B3D08840083130008B5003508BF003C
:10064C000230B5003508BD070130B5003508BE07CE
:10065C001B2CBF01512B0A3083120313B500350834
:10066C00A5003F080A168A1524230A128A11831240
:10067C000313B6003E0884000A128A1500200A12E1
:10068C008A113607D03EB7003708BF000130B500DD
:10069C003508BE07512B3E0884000A128A1500202B
:1006AC000A128A110A168A150D230A128A110318C6
:1006BC00602B612B312B1B2C1B2C1B2CBF011B2CDF
:1006CC001B2CFF2F4617412C412C412CC616C6174C
:1006DC00412C3F08031D732B882B3F08B500B60136
:1006EC00B51BB60344083602031D7E2B43083502A6
:1006FC000318812B822B882B3F08C300C401C31B1A
:10070C00C403882B41084402031D8E2B400843026E
:10071C000318912B922B992B4308C0024408031CFD
:10072C00C103C1029C2BC001C1019C2BC6199F2B7C
:10073C00A02BCE2BA92BA92B20300A128A11182002
:10074C000A128A11A92BFF3083120313C007031856
:10075C00C10AFF30C107FF304106031DB72BFF3024
:10076C004006031DBA2BBB2BA22BCE2BCE2BCE2B94
:10077C0042088400831300080A128A1118200A12F6
:10078C008A11013083120313B5003508C207CE2B32
:10079C000130C3020030031CC403C402FF30440602
:1007AC00031DDA2BFF304306031DDD2BDE2BBE2B86
:1007BC00C61DE12BE22BE92FEB2BEB2B20300A1281
:1007CC008A1118200A128A11EB2BFF3083120313A3
:1007DC00C0070318C10AFF30C107FF304106031DD3
:1007EC00F92BFF304006031DFC2BFD2BE42BE92FCE
:1007FC00E92FE92F3D08840083130008B500350864
:10080C00C5000230B5003508BD070C2C4530B500CD
:10081C003508C2000130C3000030C4006F2BC0305B
:10082C00C6040030C704412C412C01308312031341
:10083C00BE07FF303E0784000A128A1500200A12F8
:10084C008A11C500003A0319FF2F583A03196C2B73
:10085C003B3A0319002C073A0319412C0D3A0319A2
:10086C00412C063A0319682B1A3A0319152C0D3A28
:10087C0003196D2B0C2CC0304605B5000030470514
:10088C00B60036083504031D4C2C4D2C682C3D0845
:10089C00840083130008C200840A0008C3000230DD
:1008AC00B5003508BD07C31F5C2C5D2C752C0330BF
:1008BC00C6040030C704C209C309C20A0319C30A1B
:1008CC00752C752C3D08840083130008C200840A23
:1008DC000008C3000230B5003508BD07752CBF08F1
:1008EC00031D792C7A2C242D43084204031D7F2CE4
:1008FC00802C242D0130B5003508BF07242D242D64
:10090C00872CC5010314C50D4508053A031D8F2C12
:10091C00902C922C332D332D4508B50035070D3E08
:10092C0084000A128A1500200A128A11B6000A12D3
:10093C008A1500200A128A11B70037084302031DDA
:10094C00A92C360842020318AC2CAD2CAF2C332D3D
:10095C00332D0130B5003508C5074508053A031D90
:10096C00B82CB92C922C332D332DC5010314C50D85
:10097C004508043A031DC32CC42CC62C332D332D2F
:10098C004508B5003507173E84000A128A15002069
:10099C000A128A11B6000A128A1500200A128A114C
:1009AC00B70037084302031DDD2C3608420203183A
:1009BC00E02CE12CE32C332D332D0130B500350820
:1009CC00C5074508043A031DEC2CED2CC62C332D21
:1009DC00332DC5010314C50D4508063A031DF72C2C
:1009EC00F82CFA2C332D332D4508B5003507013E74
:1009FC0084000A128A1500200A128A11B6000A1203
:100A0C008A1500200A128A11B70037084302031D09
:100A1C00112D360842020318142D152D172D332DC8
:100A2C00332D0130B5003508C5074508063A031DBE
:100A3C00202D212DFA2C332D332D332D4608C03982
:100A4C00003A0319872C403A0319EF2CC03A0319CA
:100A5C00BB2C403A0319872C332D4508803AB5003E
:100A6C003F08803AB50203183C2D3D2D422D3F081E
:100A7C00B5003508C500512D3F08803AB500450832
:100A8C00803AB50203184B2D4C2D512D4508B5005D
:100A9C003508BF00512D410840040319562D572D20
:100AAC006A2D03304605B50000304705B600360800
:100ABC0035040319622D632D6A2DFF30C00703180E
:100ACC00C10AFF30C1076A2D471F6D2D6E2D952D64
:100ADC003F08B500B601B51BB6033608803AB7001F
:100AEC004108803A3702031D7D2D4008350203185A
:100AFC00802D812D8F2D831203133F08B500B60175
:100B0C00B51BB6033508C0023608031CC103C1026D
:100B1C00952D83120313C001C101952D952DC43061
:100B2C004605B50008304705B60008303606031DEB
:100B3C00A12D40303506031DA42DA52DB32D410844
:100B4C0040040319AA2DAB2DE02DFF30C00703186C
:100B5C00C10AFF30C107E02DE02DC0304605B500BD
:100B6C0008304705B60008303606031DBF2D80300F
:100B7C003506031DC22DC32DE02D4108803AFF0020
:100B8C0080307F02031DCC2D03304002031CCF2D7F
:100B9C00D02DD92DFE3083120313C0070318C10AC0
:100BAC00FF30C107E02D83120313C001C101E02DFA
:100BBC00E02DE02D4508B500B601B51BB60336088F
:100BCC00803AB7004108803A3702031DEF2D4008E8
:100BDC0035020318F22DF32D012E83120313450851
:100BEC00B500B601B51BB6033508C0023608031CA8
:100BFC00C103C102062E83120313C001C101062ECC
:100C0C00461D092E0A2E792E03304605B5000030FC
:100C1C004705B600360835040319152E162E1D2E61
:100C2C002D300A128A1118200A128A11592E461CCC
:100C3C00202E212E282E20300A128A1118200A125A
:100C4C008A11592EC030831203134605B5000830A3
:100C5C004705B60008303606031D362E80303506A3
:100C6C00031D392E3A2E592E30300A128A111820B3
:100C7C000A128A1183120313C61A452E462E4B2EC6
:100C8C007830B8000030B900502E5830B800003021
:100C9C00B900502E38080A128A1118200A128A112B
:100CAC00592E592E592E831203134108400403194F
:100CBC00602E612EB42F622E30300A128A11182049
:100CCC000A128A11FF3083120313C0070318C10ADA
:100CDC00FF30C10741084004031D752E762E622E8D
:100CEC00B42FB42FB42F4108400403197E2E7F2E4D
:100CFC009A2EC619822E832E9A2E842E20300A12FA
:100D0C008A1118200A128A11FF3083120313C007AC
:100D1C000318C10AFF30C10741084004031D972E78
:100D2C00982E842E9A2E9A2E03304605B50000304C
:100D3C004705B600360835040319A52EA62EAD2E90
:100D4C002D300A128A1118200A128A11B92E461C4B
:100D5C00B02EB12EB92E20300A128A1118200A1288
:100D6C008A11B92EB92EC030831203134605B50073
:100D7C0008304705B60008303606031DC72E403034
:100D8C003506031DCA2ECB2ED22E30300A128A11F4
:100D9C0018200A128A11B42FC0308312031346058F
:100DAC00B50008304705B60008303606031DE02EA6
:100DBC0080303506031DE32EE42EB42F30300A129A
:100DCC008A1118200A128A1183120313C61AEF2EE5
:100DDC00F02EF52E7830BA000030BB00FA2E5830C9
:100DEC00BA000030BB00FA2E3A080A128A111820F9
:100DFC000A128A11B42FB42FB42FB42F9C2F062FA4
:100E0C000A3083120313AD000030AE003F08B5006A
:100E1C0035070D3E84000A128A1500200A128A1129
:100E2C00A5000A128A1500200A128A11A60043088E
:100E3C00A801A8074208A701A7070A168A110420CF
:100E4C000A128A11831203132608B001B007250871
:100E5C00AF01AF070A168A1514260A128A118312DB
:100E6C0003132D08303EB6003608C500AD2FC61A48
:100E7C00402F412F462F8C30B5003508BC004B2F2E
:100E8C007B30B5003508BC004B2F3F08B50035074B
:100E9C00173E84000A128A1500200A128A11A50036
:100EAC000A128A1500200A128A11A6004308A8010A
:100EBC00A8074208A701A7070A168A1104200A12DC
:100ECC008A118312031325080F393C0784000A1278
:100EDC008A1500200A128A11B6003608C500AD2FFB
:100EEC003F08B5003507013E84000A128A15002020
:100EFC000A128A11A5000A128A1500200A128A11F8
:100F0C00A6004308A801A8074208A701A7070A16CC
:100F1C008A1104200A128A11831203132508073937
:100F2C00303EB6003608C500AD2FAD2F831203132B
:100F3C004608C039003A0319062F403A0319762F98
:100F4C00C03A03193D2F403A0319062FAD2F45081F
:100F5C000A128A1118200A128A11B42FFF30831238
:100F6C000313B5003508BF073F08FF3A031DBF2F19
:100F7C00C02F9C2FC61DC32FC42FE92F4108803AC8
:100F8C00FF0080307F02031DCD2F01304002031C77
:100F9C00D02FD12FE92FD22F20300A128A111820EE
:100FAC000A128A11FF3083120313C0070318C10AF7
:100FBC00FF30C10741084004031DE52FE62FD22F57
:100FCC00E92FE92FE92F013083120313BE07FF30FD
:100FDC003E0784000A128A1500200A128A11B500F5
:100FEC003508C500C508031DFC2FFD2F3F2AFF2F18
:100FFC00FF2F080008308A000408840A8207003496
:10100C0001340034083400344034003400340234E9
:10101C000034103400348034013400340A34003489
:10102C0064340034E834033410342734013400348D
:10103C001034003400340134003410345334773419
:10104C0069347434633468346534643420347434EF
:10105C006F3420344D346F346434653420343A3476
:10106C0020340034203420342034203420342034F4
:10107C00533479347334743465346D3420342034FF
:10108C0020342034203400342034203420342034D4
:10109C004D346F346E34693474346F347234693453
:1010AC006E346734203420342034003420346134DE
:1010BC006E3464342034483465346134723474349E
:1010CC002034523461347434653420342034003488
:1010DC0042346F34643479342034543465346D3490
:1010EC0070346534723461347434753472346534EC
:1010FC0020340034303431343234333434343534F5
:10110C00363437343834393441344234433444344B
:10111C00453446340034303431343234333434349E
:10112C0035343634373438343934613462346334DA
:10113C006434653466340034203420342034203454
:10114C0020342034203466346F347234203420340C
:10115C002034203420342034003420342034203403
:10116C002034503461347434693465346E347434DE
:10117C0073342034203420342034003454343A3442
:10118C002034203438343434463420342034203461
:10119C004C346F34773420342034203400344834C9
:1011AC003A342034203436343234503450344D34C4
:1011BC0020344C346F3477342034203420340034D1
:0611CC002C342034003435
:1011D4008312031307128812871208122430A900FD
:1011E4002908AA00AB01AC010A168A15AE240A121A
:1011F4008A15831203132608AE01AE072508AD0134
:10120400AD072E082D04031908290929642A2E087C
:10121400A601A6072D08A501A5070A168A11F3261B
:101224000A128A15831203132608AC01AC07250899
:10123400AB01AB07071288128712081201302B0684
:101244002C04031D26292729332901302D062E04B9
:10125400031D2D292E2933293130A9002908AA007C
:10126400642A01302B062C04031D39293A29462906
:1012740002302D062E04031D40294129462932300F
:10128400A9002908AA00642A01302B062C04031D96
:101294004C294D29592903302D062E04031D5329A9
:1012A400542959293330A9002908AA00642A013095
:1012B4002B062C04031D5F2960296C2904302D069C
:1012C4002E04031D662967296C294130A9002908C9
:1012D400AA00642A02302B062C04031D72297329E8
:1012E4007F2901302D062E04031D79297A297F29AF
:1012F4003430A9002908AA00642A02302B062C04E1
:10130400031D85298629922902302D062E04031DEA
:101314008C298D2992293530A9002908AA00642A2C
:1013240002302B062C04031D98299929A529033082
:101334002D062E04031D9F29A029A5293630A900B6
:101344002908AA00642A02302B062C04031DAB29A9
:10135400AC29B82904302D062E04031DB229B32963
:10136400B8294230A9002908AA00642A03302B06B0
:101374002C04031DBE29BF29CB2901302D062E04C0
:10138400031DC529C629CB293730A9002908AA007D
:10139400642A03302B062C04031DD129D229DE290B
:1013A40002302D062E04031DD829D929DE29383010
:1013B400A9002908AA00642A03302B062C04031D63
:1013C400E429E529F12903302D062E04031DEB2918
:1013D400EC29F1293930A9002908AA00642A03302C
:1013E4002B062C04031DF729F829042A04302D06A2
:1013F4002E04031DFE29FF29042A4330A9002908CD
:10140400AA00642A04302B062C04031D0A2A0B2A82
:10141400172A01302D062E04031D112A122A172A19
:101424002A30A9002908AA00642A04302B062C04B7
:10143400031D1D2A1E2A2A2A02302D062E04031DEE
:10144400242A252A2A2A3030A9002908AA00642A35
:1014540004302B062C04031D302A312A3D2A033084
:101464002D062E04031D372A382A3D2A2330A900CD
:101474002908AA00642A04302B062C04031D432ADD
:10148400442A502A04302D062E04031D4A2A4B2ACE
:10149400502A4430A9002908AA00642A4030A9002F
:1014A4002908AA00642A642A642A642A642A642A09
:1014B400642A642A642A642A642A642A642A642AB8
:1014C400642A642A01302D062E04031D6A2A6B2A1D
:1014D400732A6D2A6D2A081D702A712A6D2AA32A7F
:1014E400A32A02302D062E04031D792A7A2A822A81
:1014F4007C2A7C2A881F7F2A802A7C2AA32AA32A62
:1015040003302D062E04031D882A892A912A8B2A4A
:101514008B2A881D8E2A8F2A8B2AA32AA32A043079
:101524002D062E04031D972A982AA32A9A2A9A2A5A
:10153400081F9D2A9E2A9A2AA32AA32AA32AA32AF9
:10154400A32A2A08A52A080083120313AF1FAB2A73
:10155400AC2AC12AAE2AAE2A0C1EB12AB22AAE2A5D
:10156400B32A2D3099000330B000B00BB72A831290
:101574000313AE09AF09AE0A0319AF0AC12A2F0833
:10158400803AFF00A7307F02031DCA2A10302E02C2
:10159400031CCD2ACE2AAE2BD02AD02A83120313C1
:1015A4000C1ED52AD62AD02AD72A1030A5002730D7
:1015B400A6002F08A801A8072E08A701A7070A1646
:1015C4008A111C210A128A15831203132508303E3E
:1015D40099000330B000B00BED2A103083120313CE
:1015E400A5002730A6002F08A801A8072E08A701E8
:1015F400A7070A168A11B4200A128A158312031344
:101604002608AF01AF072508AE01AE07092B0C1E53
:101614000C2B0D2B092B0E2BE830A5000330A60054
:101624002F08A801A8072E08A701A7070A168A11E0
:101634001C210A128A15831203132508303E9900CF
:101644000330B000B00B242BE83083120313A50041
:101654000330A6002F08A801A8072E08A701A70792
:101664000A168A11B4200A128A1583120313260853
:10167400AF01AF072508AE01AE07402B0C1E432B6C
:10168400442B402B452B6430A5000030A6002F08C6
:10169400A801A8072E08A701A7070A168A111C216A
:1016A4000A128A15831203132508303E9900033069
:1016B400B000B00B5B2B643083120313A500003021
:1016C400A6002F08A801A8072E08A701A7070A1635
:1016D4008A11B4200A128A15831203132608AF0153
:1016E400AF072508AE01AE07772B0C1E7A2B7B2B98
:1016F400772B7C2B0A30A5000030A6002F08A80108
:10170400A8072E08A701A7070A168A111C210A1286
:101714008A15831203132508303E99000330B00064
:10172400B00B922B0A3083120313A5000030A600DD
:101734002F08A801A8072E08A701A7070A168A11CF
:10174400B4200A128A15831203132608AF01AF07C7
:101754002508AE01AE07352D831203132F08803AF6
:10176400FF0083307F02031DB92BE8302E02031CD7
:10177400BC2BBD2B662CBF2BBF2B831203130C1E5B
:10178400C42BC52BBF2BC62BE830A5000330A60005
:101794002F08A801A8072E08A701A7070A168A116F
:1017A4001C210A128A15831203132508303E99005E
:1017B4000330B000B00BDC2BE83083120313A50018
:1017C4000330A6002F08A801A8072E08A701A70721
:1017D4000A168A11B4200A128A15831203132608E2
:1017E400AF01AF072508AE01AE07F82B0C1EFB2B8B
:1017F400FC2BF82BFD2B6430A5000030A6002F082D
:10180400A801A8072E08A701A7070A168A111C21F8
:101814000A128A15831203132508303E99000330F7
:10182400B000B00B132C643083120313A5000030F6
:10183400A6002F08A801A8072E08A701A7070A16C3
:101844008A11B4200A128A15831203132608AF01E1
:10185400AF072508AE01AE072F2C0C1E322C332CFB
:101864002F2C342C0A30A5000030A6002F08A80124
:10187400A8072E08A701A7070A168A111C210A1215
:101884008A15831203132508303E99000330B000F3
:10189400B00B4A2C0A3083120313A5000030A600B3
:1018A4002F08A801A8072E08A701A7070A168A115E
:1018B400B4200A128A15831203132608AF01AF0756
:1018C4002508AE01AE07352D831203132F08803A85
:1018D400FF0080307F02031D712C64302E02031C34
:1018E400742C752CE72C772C772C831203130C1E85
:1018F4007C2C7D2C772C7E2C6430A5000030A60037
:101904002F08A801A8072E08A701A7070A168A11FD
:101914001C210A128A15831203132508303E9900EC
:101924000330B000B00B942C643083120313A50071
:101934000030A6002F08A801A8072E08A701A707B2
:101944000A168A11B4200A128A1583120313260870
:10195400AF01AF072508AE01AE07B02C0C1EB32CA7
:10196400B42CB02CB52C0A30A5000030A6002F08EA
:10197400A801A8072E08A701A7070A168A111C2187
:101984000A128A15831203132508303E9900033086
:10199400B000B00BCB2C0A3083120313A500003027
:1019A400A6002F08A801A8072E08A701A7070A1652
:1019B4008A11B4200A128A15831203132608AF0170
:1019C400AF072508AE01AE07352D831203132F0888
:1019D400803AFF0080307F02031DF22C0A302E0271
:1019E400031CF52CF62C352DF82CF82C831203133C
:1019F4000C1EFD2CFE2CF82CFF2C0A30A500003008
:101A0400A6002F08A801A8072E08A701A7070A16F1
:101A14008A111C210A128A15831203132508303EE9
:101A240099000330B000B00B152D0A308312031354
:101A3400A5000030A6002F08A801A8072E08A701BA
:101A4400A7070A168A11B4200A128A1583120313EF
:101A54002608AF01AF072508AE01AE07352D352D99
:101A6400352D352D352D831203130C1E3A2D3B2DA8
:101A7400352D3C2D2E08303E99000330B000B00BBC
:101A8400412D442D080083120313AF1F4A2D4B2D03
:101A9400602D4D2D4D2D0C1E502D512D4D2D522DA3
:101AA4002D3099000330B000B00B562D8312031370
:101AB400AE09AF09AE0A0319AF0A602D2F08803AA8
:101AC400FF00A7307F02031D692D10302E02031C76
:101AD4006C2D6D2D4D2E6F2D6F2D831203130C1E47
:101AE400742D752D6F2D762D1030A5002730A6008E
:101AF4002F08A801A8072E08A701A7070A168A110C
:101B04001C210A128A15831203132508303E9900FA
:101B14000330B000B00B8C2D103083120313A500DA
:101B24002730A6002F08A801A8072E08A701A70799
:101B34000A168A11B4200A128A158312031326087E
:101B4400AF01AF072508AE01AE07A82D0C1EAB2DC3
:101B5400AC2DA82DAD2DE830A5000330A6002F082C
:101B6400A801A8072E08A701A7070A168A111C2195
:101B74000A128A15831203132508303E9900033094
:101B8400B000B00BC32DE83083120313A50003305B
:101B9400A6002F08A801A8072E08A701A7070A1660
:101BA4008A11B4200A128A15831203132608AF017E
:101BB400AF072508AE01AE07DF2D0C1EE22DE32D85
:101BC400DF2DE42D6430A5000030A6002F08A80105
:101BD400A8072E08A701A7070A168A111C210A12B2
:101BE4008A15831203132508303E99000330B00090
:101BF400B00BFA2D643083120313A5000030A60045
:101C04002F08A801A8072E08A701A7070A168A11FA
:101C1400B4200A128A15831203132608AF01AF07F2
:101C24002508AE01AE07162E0C1E192E1A2E162EDE
:101C34001B2E0A30A5000030A6002F08A801A80713
:101C44002E08A701A7070A168A111C210A128A1551
:101C5400831203132508303E99000330B000B00B03
:101C6400312E0A3083120313A5000030A6002F087A
:101C7400A801A8072E08A701A7070A168A11B420ED
:101C84000A128A15831203132608AF01AF07250829
:101C9400AE01AE07D42F831203132F08803AFF003E
:101CA40083307F02031D582EE8302E02031C5B2E66
:101CB4005C2E052F5E2E5E2E831203130C1E632EE4
:101CC400642E5E2E652EE830A5000330A6002F0892
:101CD400A801A8072E08A701A7070A168A111C2124
:101CE4000A128A15831203132508303E9900033023
:101CF400B000B00B7B2EE83083120313A500033031
:101D0400A6002F08A801A8072E08A701A7070A16EE
:101D14008A11B4200A128A15831203132608AF010C
:101D2400AF072508AE01AE07972E0C1E9A2E9B2EE8
:101D3400972E9C2E6430A5000030A6002F08A80121
:101D4400A8072E08A701A7070A168A111C210A1240
:101D54008A15831203132508303E99000330B0001E
:101D6400B00BB22E643083120313A5000030A6001A
:101D74002F08A801A8072E08A701A7070A168A1189
:101D8400B4200A128A15831203132608AF01AF0781
:101D94002508AE01AE07CE2E0C1ED12ED22ECE2E8D
:101DA400D32E0A30A5000030A6002F08A801A807EA
:101DB4002E08A701A7070A168A111C210A128A15E0
:101DC400831203132508303E99000330B000B00B92
:101DD400E92E0A3083120313A5000030A6002F0851
:101DE400A801A8072E08A701A7070A168A11B4207C
:101DF4000A128A15831203132608AF01AF072508B8
:101E0400AE01AE07D42F831203132F08803AFF00CC
:101E140080307F02031D102F64302E02031C132F09
:101E2400142F862F162F162F831203130C1E1B2F0D
:101E34001C2F162F1D2F6430A5000030A6002F087C
:101E4400A801A8072E08A701A7070A168A111C21B2
:101E54000A128A15831203132508303E99000330B1
:101E6400B000B00B332F643083120313A50000308D
:101E7400A6002F08A801A8072E08A701A7070A167D
:101E84008A11B4200A128A15831203132608AF019B
:101E9400AF072508AE01AE074F2F0C1E522F532F4C
:101EA4004F2F542F0A30A5000030A6002F08A80198
:101EB400A8072E08A701A7070A168A111C210A12CF
:101EC4008A15831203132508303E99000330B000AD
:101ED400B00B6A2F0A3083120313A5000030A6004A
:101EE4002F08A801A8072E08A701A7070A168A1118
:101EF400B4200A128A15831203132608AF01AF0710
:101F04002508AE01AE07D42F831203132F08803A9D
:101F1400FF0080307F02031D912F0A302E02031C24
:101F2400942F952FD42F972F972F831203130C1EC2
:101F34009C2F9D2F972F9E2F0A30A5000030A600BE
:101F44002F08A801A8072E08A701A7070A168A11B7
:101F54001C210A128A15831203132508303E9900A6
:101F64000330B000B00BB42F0A3083120313A50062
:101F74000030A6002F08A801A8072E08A701A7076C
:101F84000A168A11B4200A128A158312031326082A
:101F9400AF01AF072508AE01AE07D42FD42FD42F3D
:101FA400D42FD42F831203130C1ED92FDA2FD42F3E
:101FB400DB2F2E08303E99000330B000B00BE02F29
:101FC400E32F831203130C1EE82FE92FE32FEA2FCC
:101FD4000D3099000330B000B00BEE2FF12F8312B7
:101FE40003130C1EF62FF72FF12FF82F0A30990048
:0C1FF4000330B000B00BFC2FFF2F0800E2
:1020080083120313AB01AC012608250403190D281C
:102018000E284C28AA010314AA0D1E28013003100B
:10202800A50DA60DFF3E031D13280130A9002908A0
:10203800AA071E28A61F2128222812282428242877
:1020480001300310AB0DAC0DFF3E031D25282608FB
:102058002802031D312825082702031C34283528A7
:102068003D282508A7022608031CA803A8022B144C
:102078003D2801300310A60CA50CFF3E031D3E2889
:102088000130AA02031D49284A2824284C284C2834
:102098002C08A601A6072B08A501A50753280800A8
:1020A80083120313A901AA01A901AA019F28831277
:1020B800031306158615061686121430A800793003
:1020C800A700A70B6528A80B65286A2883120313A5
:1020D80006158615061286161430A8007930A70052
:1020E800A70B7428A80B74287928831203130615E4
:1020F8008611061686161430A8007930A700A70B9B
:102108008328A80B832888288312031306118615B1
:10211800061686161430A8007930A700A70B922857
:10212800A80B92289728013083120313A9070318D4
:10213800AA0A0030AA072A08803AA7002608803A87
:102148002702031DA92825082902031CAC28AD284D
:102158005B288312031306158615061686160800D3
:1021680083120313AB01A81FBA28BB28C428A709E8
:10217800A809A70A0319A80AAB010314AB0DC428C0
:10218800A61FC728C828CE28A509A609A50A031985
:10219800A60ACE28260825040319D328D4280A29F4
:1021A800AA010314AA0DE42801300310A50DA60DF9
:1021B800FF3E031DD9280130A9002908AA07E428F1
:1021C800A61FE728E828D828EA28EA2826082802A7
:1021D800031DF02825082702031CF328F428FB28F0
:1021E8002508A7022608031CA803A802FB2801301B
:1021F8000310A60CA50CFF3E031DFC280130AA0203
:10220800031D07290829EA280A290A292B08031D7A
:102218000E291429A709A809A70A0319A80A142925
:102228002808A601A6072708A501A5071B29080055
:1022380083120313AB01A61F222923292C29A509E0
:10224800A609A50A0319A60AAB010314AB0D2C298C
:10225800A81F2F2930293A29A709A809A70A03196D
:10226800A80A0130A9002908AB063A29AC01AD013A
:10227800260825040319412942298029AA010314A3
:10228800AA0D522901300310A50DA60DFF3E031D0E
:1022980047290130A9002908AA075229A61F55294C
:1022A800562946295829582901300310AC0DAD0D7F
:1022B800FF3E031D592926082802031D6529250804
:1022C8002702031C6829692971292508A7022608FD
:1022D800031CA803A8022C14712901300310A60CB2
:1022E800A50CFF3E031D72290130AA02031D7D299A
:1022F8007E295829802980292B08031D84298A29A9
:10230800AC09AD09AC0A0319AD0A8A292D08A60142
:10231800A6072C08A501A5079129080002308312F9
:102328000313B3000030B4000C30B5000030B60021
:102338000A30A5000030A6005308A801A8075208D3
:10234800A701A7070A168A1104200A168A11831200
:1023580003132508303EB9003908B7000A168A1554
:1023680030240A168A11023083120313B300003096
:10237800B4000D30B5000030B6000A30AD000030B2
:10238800AE005308B001B0075208AF01AF070A16F4
:102398008A1514260A168A11831203132D08303E53
:1023A800B9003908B7000A168A1530240A168A11A6
:1023B800023083120313B3000030B4000F30B500AD
:1023C8000030B6000A30A5000030A6005908A80160
:1023D800A8075808A701A7070A168A1104200A1691
:1023E8008A11831203132508303EB9003908B70053
:1023F8000A168A1530240A168A110230831203132A
:10240800B3000030B4001030B5000030B6000A3018
:10241800AD000030AE005908B001B0075808AF0150
:10242800AF070A168A1514260A168A11831203138F
:102438002D08303EB9003908B7000A168A1530242D
:102448000A168A11080083120313871107118810CE
:1024580007100814871087158711881407100810AB
:10246800871087158711A501A60109302602C430F7
:1024780003192502031C412A422A442A532A532AB3
:102488000130A5070318A60A0030A607093026025E
:10249800C43003192502031C522A532A442A07115F
:1024A80088100710081487108715871188140710DB
:1024B8000810871087158711A501A6010930260283
:1024C800C43003192502031C6A2A6B2A6D2A7C2A48
:1024D8007C2A0130A5070318A60A0030A607093090
:1024E8002602C43003192502031C7B2A7C2A6D2A84
:1024F8000711881007100810871087158711881092
:1025080007140814871087158711A501A60109303B
:102518002602C43003192502031C932A942A962AFA
:10252800A52AA52A0130A5070318A60A0030A60780
:1025380009302602C43003192502031CA42AA52A3F
:10254800962A071188100710081087108715871119
:10255800881407140810871087158711A501A6018C
:1025680009302602C43003192502031CBC2ABD2ADF
:10257800BF2ACE2ACE2A0130A5070318A60A0030A2
:10258800A60709302602C43003192502031CCD2AE8
:10259800CE2ABF2A07118810071008108710871540
:1025A8008711881007100810871487158711A5014F
:1025B800A60109302602C43003192502031CE52AA6
:1025C800E62AE82AF82AF82A0130A5070318A60AF5
:1025D8000030A60709302602C43003192502031C5F
:1025E800F62AF72AE82AF82A08000A128A15EA20A1
:1025F8000A168A1183120313B1003108B300330895
:102608002A3A031D082B092BED2B0130D00703189C
:10261800D10A0030D10700305102043003195002AA
:10262800031C172B182B1C2B0130D0000030D100B5
:102638005008B1003108DF0087141F300A168A15C8
:1026480082240A168A11831203135F08B100B201AB
:102658003108AE003208AF000A128A1545250A165D
:102668008A118312031387100A168A15D5220A16AF
:102678008A110A168A15D5220A168A110A168A1587
:10268800D5220A168A110A168A15D5220A168A111F
:102698000A168A15D5220A168A110A168A15D5220B
:1026A8000A168A110A168A15D5220A168A110A16D6
:1026B8008A15D5220A168A110A168A15D5220A16EB
:1026C8008A110A168A15D5220A168A110A168A1537
:1026D800D5220A168A110A168A15D5220A168A11CF
:1026E8000A168A15D5220A168A110A168A15D522BB
:1026F8000A168A110A168A15D5220A168A110A1686
:102708008A15D5220A168A110A168A15D5220A169A
:102718008A110A168A15D5220A168A110A168A15E6
:10272800D5220A168A110A168A15D5220A168A117E
:102738000A168A15D5220A168A110A168A15D5226A
:102748000A168A110A168A15D5220A168A110A1635
:102758008A15D5220A168A110A168A15D5220A164A
:102768008A110A168A15D5220A168A110A168A1596
:10277800D5220A168A110A168A15D5220A168A112E
:102788000A168A15D5220A168A110A168A15D5221A
:102798000A168A110A168A15D5220A168A110A16E5
:1027A8008A15D5220A168A110A168A15D5220A16FA
:1027B8008A110A168A15D5220A168A110A168A1546
:1027C800D5220A168A110A168A15D5220A168A11DE
:1027D800ED2B0800831203135C08F100043003108A
:1027E800F10CFF3E031DF32B7108F2007208DD00A7
:1027F8005C08F10003300310F10DFF3E031DFF2BB1
:102808000310710DF2007208DE005E08F10004305A
:102818000310F10CFF3E031D0C2C7108F200720826
:10282800DE0066115C1C192C6615831203135C0804
:10283800F10001300310F10CFF3E031D1E2CE611C0
:10284800711C272CE615831203135C08F100023073
:102858000310F10CFF3E031D2C2C6612711C352C45
:102868006616831203135C08F10003300310F10CA1
:10287800FF3E031D3A2CE612711C432CE616831208
:1028880003135C08F10004300310F10CFF3E031D34
:10289800482C6613711C512C6617831203135C08AD
:1028A800F10005300310F10CFF3E031D562CE61312
:1028B800711C5F2CE617831203135C08F1000630C5
:1028C8000310F10CFF3E031D642C6710711C6D2C66
:1028D8006714831203135C08F10007300310F10C2E
:1028E800FF3E031D722CE710711C7B2CE71483122A
:1028F800031387116400831203138715640083127E
:102908000313661B882C8C2C8312031387148F2CBB
:10291800831203138710E61B922C962C8312031341
:102928000814992C83120313081067189C2CA02CE8
:10293800831203130714A32C831203130710E71839
:10294800A62CAA2C831203138814AD2C831203130C
:102958008810640083120313871164008312031321
:10296800871164008312031387156400831203130D
:102978006619BF2CC32C831203138714C62C831229
:1029880003138710E619C92CCD2C831203130814DE
:10299800D02C831203130810661AD32CD72C831259
:1029A80003130714DA2C831203130710E61ADD2C1D
:1029B800E12C831203138814E42C83120313881068
:1029C8006400831203138711640008008312031341
:1029D8005C08A50004300310A50CFF3E031DEF2C76
:1029E8002508A6002608DD005C08A50003300310B2
:1029F800A50DFF3E031DFB2C0310250DA600260880
:102A0800DE005E08A50004300310A50CFF3E031D80
:102A1800082D2508A6002608DE0066115C1C152D69
:102A28006615831203135C08A50001300310A50C7A
:102A3800FF3E031D1A2DE611251C232DE6158312D2
:102A480003135C08A50002300310A50CFF3E031D0C
:102A5800282D6612251C312D6616831203135C0877
:102A6800A50003300310A50CFF3E031D362DE6120A
:102A7800251C3F2DE616831203135C08A5000430BD
:102A88000310A50CFF3E031D442D6613251C4D2D78
:102A98006617831203135C08A50005300310A50C04
:102AA800FF3E031D522DE613251C5B2DE6178312EE
:102AB80003135C08A50006300310A50CFF3E031D98
:102AC800602D6710251C692D6714831203135C0899
:102AD800A50007300310A50CFF3E031D6E2DE7105F
:102AE800251C772DE71483120313871164008312C2
:102AF80003138715640083120313661B842D882D26
:102B08008312031387148B2D831203138710E61B7C
:102B18008E2D922D831203130814952D83120313FF
:102B280008106718982D9C2D8312031307149F2DE6
:102B3800831203130710E718A22DA62D831203137F
:102B48008814A92D831203138810640083120313B9
:102B5800871164008312031387116400831203131F
:102B680087156400831203136619BB2DBF2D8312CA
:102B780003138714C22D831203138710E619C52D7A
:102B8800C92D831203130814CC2D831203130810C4
:102B9800661ACF2DD32D831203130714D62D831253
:102BA80003130710E61AD92DDD2D83120313881499
:102BB800E02D831203138810640083120313871116
:102BC800640008000C1CE92DEA2DA02E01308316A4
:102BD8000313C4070318C50A0030C507323044067A
:102BE8004504031DF82DF92D992E0130C607031849
:102BF800C70A0030C70783120313661C042E052E6C
:102C0800172E0230F8000030F9000E30FA000030BC
:102C1800FB003A30A0002008FC000A168A157F2322
:102C28000A168A112B2E0230F8000030F9000E30F7
:102C3800FA000030FB00203083120313A0002008A4
:102C4800FC000A168A157F230A168A112B2E0130DA
:102C580083120313E6064030880683160313C40163
:102C6800C5013C3046064704031D3B2E3C2E992ED9
:102C78000230F8000030F9001030FA000030FB0094
:102C88000A30F1000030F200831203135908F401EE
:102C9800F4075808F301F3070A168A15D0250A160F
:102CA8008A117108303E83120313A0002008FC002B
:102CB8000A168A157F230A168A1101308312031314
:102CC800D8070318D90A0030D90783160313C60199
:102CD800C7011E30F1000030F200831203135908B7
:102CE800F401F4075808F301F3070A168A15D025EA
:102CF8000A168A11710883120313A0002008E30042
:102D0800862E862E3C3058065904031D8C2E8D2E97
:102D1800992ED801D9010130D2070318D30A0030FF
:102D2800D307992E992E992E992E83120C10B03014
:102D38008E003C308F00A02E8C1EA32EA42ED92EE0
:102D48001819A72EA82ECB2E9818AB2EAC2ECB2E4A
:102D58001A08A0002008E2001A082A3A0319B52E1A
:102D6800B62EBC2E14305A02031CBB2EBC2EBE2E0F
:102D7800DA01BE2E1A08A0005A08A03E84002008D6
:102D8800831380000130A0002008DA07D72E18121C
:102D980018111A08A0002008E2001A08A00020084C
:102DA800E2001816D72E8C12D92E981CDC2EDD2E98
:102DB800E82E18121A08A0002008E2001A08A0003D
:102DC8002008E2001816E82E2408FF0023088A00CD
:102DD80022088400210E8300FE0E7E0E0900831255
:102DE80003130712881287120812013025062604D9
:102DF800031DFF2E002F392F0716640083120313BB
:102E0800081D072F082F0E2F0130A5000030A6003F
:102E1800FF2FFF2F8816640083120313081D152F38
:102E2800162F1C2F0230A5000030A600FF2FFF2F01
:102E38008716640083120313081D232F242F2A2FBB
:102E48000330A5000030A600FF2FFF2F08166400EE
:102E580083120313081D312F322FFC2F0430A500D5
:102E68000030A600FF2FFF2FFC2F02302506260476
:102E7800031D3F2F402F792F071664008312031379
:102E8800881F472F482F4E2F0130A5000030A6007D
:102E9800FF2FFF2F8816640083120313881F552FF6
:102EA800562F5C2F0230A5000030A600FF2FFF2F01
:102EB8008716640083120313881F632F642F6A2FF9
:102EC8000330A5000030A600FF2FFF2F081664006E
:102ED80083120313881F712F722FFC2F0430A50053
:102EE8000030A600FF2FFF2FFC2F033025062604F5
:102EF800031D7F2F802FB92F071664008312031339
:102F0800881D872F882F8E2F0130A5000030A6003E
:102F1800FF2FFF2F8816640083120313881D952F37
:102F2800962F9C2F0230A5000030A600FF2FFF2F00
:102F38008716640083120313881DA32FA42FAA2FBA
:102F48000330A5000030A600FF2FFF2F08166400ED
:102F580083120313881DB12FB22FFC2F0430A50054
:102F68000030A600FF2FFF2FFC2F04302506260473
:102F7800031DBF2FC02FFC2F0716640083120313F5
:102F8800081FC72FC82FCE2F0130A5000030A6007C
:102F9800FF2FFF2F8816640083120313081FD52FF5
:102FA800D62FDC2F0230A5000030A600FF2FFF2F00
:102FB8008716640083120313081FE32FE42FEA2FF8
:102FC8000330A5000030A600FF2FFF2F081664006D
:102FD80083120313081FF12FF22FFC2F0430A500D2
:102FE8000030A600FF2FFF2FFC2FFC2FFC2FFC2FFB
:082FF800A501A601FF2F08004E
:1035AA00023083120313E606080064008001840ACD
:1035BA000406031900340406DB2A4230831203137B
:1035CA009F008430831603139F000800831203139D
:1035DA0090121016901010149011B0308E003C30DA
:1035EA008F00831603130C1408008B110B12831619
:1035FA0003138C130C130C128C168C110C110C1453
:10360A008C108B120D128D110D108B170B170800D1
:10361A0083120313A600A5013A3026020318162BBB
:10362A00172B212B30302602031C1C2B1D2B212B80
:10363A00A5010314A50D212B250C232B08008312A9
:10364A000313A800A701281C2B2B2C2B312B250890
:10365A00A6002608A707312B0310A50D0310A80CF6
:10366A00A808031D392B3A2B282B3B2B27083D2B67
:10367A0008008312031398171813181683160313D6
:10368A001813981618121815813099008C160C12F6
:10369A008312031398110330A7008A30A60056300C
:1036AA00A500A50B562BA60B562BA70B562B5D2B4D
:1036BA0008008312031307110630A700A70B632B18
:1036CA00640083120313DC010314DC0D0A168A1149
:1036DA00EA240A168A150D3083120313A800FB3058
:1036EA00A700A70B762BA80B762B7B2B8312031331
:1036FA00071508007A08FD007D08F30078080A1605
:10370A008A151B250A168A15831203130715063014
:10371A00FD00FD0B8E2B64007C08FD007D088312E2
:10372A000313DC000A168A11EE230A168A152130C1
:10373A00FD00FD0B9E2B0800A22B831203130C1E07
:10374A00A72BA82BA22BA92B0D309900F930A50085
:10375A006400A50BAD2BB12B6400B32B83120313AA
:10376A000C1EB82BB92BB32BBA2B0A309900F9309F
:10377A00A5006400A50BBE2BC22B64000800E6015D
:10378A00E70183134830840066300A168A15DA2264
:10379A000A168A15A0308400C8300A168A15DA2259
:1037AA000A168A150A128A1116200A168A15E800BC
:1037BA000A128A1117200A168A15E90083010A12C9
:1037CA008A113328FF3083160313850083120313EB
:1037DA008501C03083160313860083120313860102
:1037EA008030831603138700831203138701CC30BA
:1037FA00831603138800831203138801803083160B
:10380A000313890083120313890108008312031327
:10381A00A6006400831603178C18142C152C0E2C82
:10382A00162C831203132608831203178D003F30C8
:10383A0083120313A5002508831603178C050C149D
:10384A0003100C18031400300318013083120317F5
:10385A000C082F2C0800831203133508B800380807
:10386A00A70033080A168A1591250A168A158312A3
:10387A00031307150630B800B80B412C64008312F5
:10388A0003133708B8003808DC000A168A11EA243C
:10389A000A168A15213083120313B800B80B532C69
:1038AA00080083120313A901AA015B2C251C5E2CB4
:1038BA005F2C652C2708A9070318AA0A2808AA0753
:1038CA0001300310A70DA80DFF3E031D662C013021
:1038DA000310A60CA50CFF3E031D6D2C260825041B
:1038EA00031D782C792C5B2C7A2C2A08A601A607B2
:1038FA002908A501A507812C080083120313A60035
:10390A00A02C872C0C1E8A2C8B2C872C8C2C2608FE
:10391A0084000A128A1500200A168A1599000330B3
:10392A00A500A50B962C831203132608013EA500B9
:10393A002508A600A02C260884000A128A15002051
:10394A000A168A150038031DAB2CAC2C872CAD2C1B
:10395A000800831203130819B32CB42CB92C0130B4
:10396A00A7000030A800DA2C881BBC2CBD2CC22C66
:10397A000230A7000030A800DA2C8819C52CC62C02
:10398A00CB2C0330A7000030A800DA2C081BCE2C61
:10399A00CF2CD42C0430A7000030A800DA2CA701C1
:1039AA00A801DA2CDA2CDA2CDA2C2808A601A607C8
:1039BA002708A501A507E12C080000300A168A1578
:1039CA005A260A168A15831203132608D501D50723
:1039DA002508D401D40701300A168A155A260A1670
:1039EA008A15831203132608D701D7072508D6019B
:1039FA00D60702300A168A155A260A168A1583121B
:103A0A0003132608CD01CD072508CC01CC070330C6
:103A1A000A168A155A260A168A15831203132608C5
:103A2A00C901C9072508C801C8070800F7007708AF
:103A3A00013A031D212D222D262D8030F400740811
:103A4A00F7007708023A031D2B2D2C2D312DC0309B
:103A5A00F4007408F700312D73087707FF3EF4006D
:103A6A007408F6008312031307110630F400F40BEE
:103A7A003C2D64007608F400740883120313DC00FA
:103A8A000A168A11EE230A168A150D30F500FB3044
:103A9A00F400F40B4E2DF50B4E2D532DF701F301C7
:103AAA00080083120313A7005A2D831603178C18D4
:103ABA005F2D602D5A2D612D83120313270883125F
:103ACA0003178D00831203132508831203178C0032
:103ADA003F3083120313A6002608831603178C05AA
:103AEA008312031303108B1F7B2D7C2D7D2D031452
:103AFA008B13831603170C1555308D00AA308D00D1
:103B0A008C140C1183120313031C8C2D8D2D902DF4
:103B1A008B17902D902D080083120313AB002B08EE
:103B2A00013A031D992D9A2D9E2D8030A800280850
:103B3A00AB002B08023A031DA32DA42DA92DC030DA
:103B4A00A8002808AB00A92D27082B07FF3EA800CC
:103B5A002808AA0007110630A800A80BB22D640095
:103B6A00831203132A08A8002808DC000A168A11FF
:103B7A00EA240A168A150D3083120313A900FB30B2
:103B8A00A800A80BC62DA90BC62DCB2D8312031393
:103B9A00AB01A7010800720871040319D52DD62DAF
:103BAA000C2EF6010314F60DE62D01300310F10D6B
:103BBA00F20DFF3E031DDB2D0130F5007508F607F7
:103BCA00E62DF21FE92DEA2DDA2DEC2DEC2D7208E7
:103BDA007402031DF22D71087302031CF52DF62DD4
:103BEA00FD2D7108F3027208031CF403F402FD2D83
:103BFA0001300310F20CF10CFF3E031DFE2D0130C3
:103C0A00F602031D092E0A2EEC2D0C2E0C2E74081A
:103C1A00F201F2077308F101F107132E080083126B
:103C2A0003132E082D0403191B2E1C2E522EB2012B
:103C3A000314B20D2C2E01300310AD0DAE0DFF3E54
:103C4A00031D212E0130B1003108B2072C2EAE1F00
:103C5A002F2E302E202E322E322E2E083002031D09
:103C6A00382E2D082F02031C3B2E3C2E432E2D08E6
:103C7A00AF022E08031CB003B002432E013003101A
:103C8A00AE0CAD0CFF3E031D442E0130B202031DE3
:103C9A004F2E502E322E522E522E3008AE01AE0723
:103CAA002F08AD01AD07592E080083120313A9008E
:103CBA002908A70002300310A70DFF3E031D602E3E
:103CCA000310270DA8002808A9001F08C7399F005C
:103CDA001F0829049F001F141030A700A70B732E7A
:103CEA006400831203131F157A2E1F197D2E7E2E50
:103CFA007A2E7F2E1E08A700A8012708AA002808E6
:103D0A00AB002A08A800A7012708AA002808AB00C8
:103D1A00831603131E08831203132A07AA002B080B
:103D2A0003182B0AAB002B08A601A6072A08A5012F
:103D3A00A5079F2E080083120313A901AA01A9014E
:103D4A00AA01EB2E83120313061186150616861690
:103D5A001430A8007930A700A70BB12EA80BB12EFA
:103D6A00B62E83120313061586110616861614300C
:103D7A00A8007930A700A70BC02EA80BC02EC52E0D
:103D8A008312031306158615061286161430A80028
:103D9A007930A700A70BCF2EA80BCF2ED42E8312D3
:103DAA00031306158615061686121430A8007930F4
:103DBA00A700A70BDE2EA80BDE2EE32E01308312FE
:103DCA000313A9070318AA0A0030AA072A08803A87
:103DDA00A7002608803A2702031DF52E2508290286
:103DEA00031CF82EF92EA72E831203130615861527
:063DFA0006168616080003
:00000001FF
