:060000000A128A1110280B
:10000800FE00030E83120313A0000408A1000A08CF
:10001800A2000A168A11F9290A128A1113284D30EA
:10002800FD01E6018313840066300A168A1503274A
:100038000A128A11A0308400B4300A168A150327E0
:1000480083010A128A15D628BB200A128A11B40025
:100058002A3A031D0800D00A0319D10A00305102B8
:10006800043003195002031C3C28D001D00AD101E6
:100078005008E00087141F305B220A128A116008BA
:10008800B100B20130240A128A11831203138710B7
:10009800B6200A128A11B6200A128A11B6200A124C
:1000A8008A11B6200A128A11B6200A128A11B620BD
:1000B8000A128A11B6200A128A11B6200A128A1167
:1000C800B6200A128A11B6200A128A11B6200A121C
:1000D8008A11B6200A128A11B6200A128A11B6208D
:1000E8000A128A11B6200A128A11B6200A128A1137
:1000F800B6200A128A11B6200A128A11B6200A12EC
:100108008A11B6200A128A11B6200A128A11B6205C
:100118000A128A11B6200A128A11B6200A128A1106
:10012800B6200A128A11B6200A128A11B6200A12BB
:100138008A11B6200A128A11B6200A128A11B6202C
:100148000A128A11B6200A128A11B6200A128A11D6
:10015800B6200A128A11B6200A128A11B6200A128B
:100168008A11B628023083120313E60608008312A8
:10017800031307128812871208122430A70042229C
:100188000A128A112408AB002308AA002B040319B9
:1001980096292B08A4002A08A300B6210A128A115E
:1001A8002408A9002308A800071288128712081239
:1001B80028032904031DE6282A032B04031DE62827
:1001C8003130952928032904031DF12802302A0615
:1001D8002B04031DF1283230952928032904031D17
:1001E800FC2803302A062B04031DFC2833309529EC
:1001F80028032904031D072904302A062B04031D9C
:10020800072941309529023028062904031D12299F
:100218002A032B04031D122934309529023028069D
:1002280029040230031D1F292A062B04031D1E2939
:1002380035309529023028062904031D2A29033060
:100248002A062B04031D2A29363095290230280650
:100258002904031D362904302A062B04031D3629D8
:1002680042309529033028062904031D41292A0311
:100278002B04031D4129373095290330280629040A
:10028800031D4D2902302A062B04031D4D29383041
:1002980095290330280629040330031D5A292A0604
:1002A8002B04031D592939309529033028062904C0
:1002B8000430031D66292A062B04031D65294330D3
:1002C8009529043028062904031D70292A032B04C4
:1002D800031D70292A309529043028062904031D96
:1002E8007C2902302A062B04031D7C2930309529ED
:1002F800043028062904031D882903302A062B0404
:10030800031D882923309529043028062904031D54
:10031800942904302A062B04031D94294430952976
:100328004030A7002A032B04031D9D290819B4296E
:100338009A2902302A062B04031DA529881BB429F3
:10034800A22903302A062B04031DAD298819B429D4
:10035800AA2904302A062B04031DB429081FB22930
:10036800270808000712881287120812230324049A
:10037800031DE6290716000083120313081DC82968
:10038800A301A30AA401080088160000831203131E
:10039800081DD2290230A300A40108008716000016
:1003A80083120313081DDC290330A300A4010800ED
:1003B8000816000083120313081D3F2A0430A30007
:1003C800A4010800023023062404031D042A07168A
:1003D800000083120313881BC429881600008312A7
:1003E8000313881BCE298716000083120313881B6A
:1003F800D8290816000083120313881BE2293F2A14
:10040800033023062404031D222A07160000831242
:1004180003138819C4298816000083120313881946
:10042800CE2987160000831203138819D8290816C5
:100438000000831203138819E2293F2A0430230697
:100448002404031D3F2A0716000083120313081B08
:10045800C4298816000083120313081BCE298716A7
:10046800000083120313081BD82908160000831202
:100478000313081BE229A301A40108000819472A4D
:10048800A501A50A552A881B4B2A0230522A881929
:100498004F2A0330522A081B542A0430A500552A33
:1004A800A501A6012608A4002508A30008008312B8
:1004B8000313A400240884000A168A1500200A12CF
:1004C8008A11003A031908000C1E682A24088400BF
:1004D8000A168A1500200A128A1199000330A3000F
:1004E800A30B742A83120313A40A5E2A0030EF2296
:1004F8000A128A112408D5002308D4000130EF22FB
:100508000A128A112408D7002308D6005708AC001D
:100518005608AB0022260A128A112B08B1002C08B3
:10052800B2002D08B3003330AE00B330AF003E3018
:10053800B0004B260A128A112E08BD002F08BE00F3
:100548003008BF0008270A128A113D08D607031889
:10055800D70A3E08D7070230EF220A128A11240868
:10056800E5002308E400FF30A9000330AA0065086D
:10057800A4006408A3003730A500A60132260A1299
:100588008A112408AC002308AB00A0250A128A119E
:100598002908CD002A08CE000030AA1BFF30CF0062
:1005A8000330EF220A128A112408E3002308E2002C
:1005B800FF30A9000330AA006308A4006208A30062
:1005C8003730A500A60132260A128A112408AC0089
:1005D8002308AB00A02DA600A60DA60D260DF83900
:1005E800A600C7309F0526089F041F141030A500D9
:1005F800A50BFC2A0000831203131F151F19022BD9
:100608001E08A700A801A800A70183161E088312C8
:10061800A7070318A80A2808A4002708A3000800A9
:10062800B21F252B0C1E162B2D3099000330B3005A
:10063800B30B1C2B83120313B109B209B10A0319B6
:10064800B20A3208803AFF00A7307F02031D2E2B22
:1006580010303102031CA92B831203130C1E302BFC
:100668001030A9002730AA003208AC003108AB00CE
:10067800A0250A128A112908303E99000330B300D8
:10068800B30B442B103083120313A3002730A400AC
:100698003208A6003108A500E5250A128A112408A7
:1006A800B2002308B1000C1E572B7F270A128A11AB
:1006B800A0250A128A112908303E99000330B30098
:1006C800B30B642B6C270A128A11E5250A128A11CA
:1006D8002408B2002308B1000C1E702B77270A12D9
:1006E8008A11A0250A128A112908303E9900033080
:1006F800B300B30B7D2B643063270A128A11E525FA
:100708000A128A112408B2002308B1000C1E8A2B91
:100718000A30A900AA013208AC003108AB00A025B4
:100728000A128A112908303E99000330B300B30B2E
:100738009B2B0A3063270A128A11E5250A128A11AF
:100748002408B2002308B100242C831203133208B2
:10075800803AFF0083307F02031DB42BE83031025A
:10076800031CEE2B831203130C1EB62B7F270A12D1
:100778008A11A0250A128A112908303E99000330EF
:10078800B300B30BC52B6C270A128A11E5250A1290
:100798008A112408B2002308B1000C1ED12B772738
:1007A8000A128A11A0250A128A112908303E9900D6
:1007B8000330B300B30BDE2B643063270A128A11AF
:1007C800E5250A128A112408B2002308B1000C1A80
:1007D8008C2BEB2B88270A128A11031DF52B64300A
:1007E8003102031C162C831203130C1EF72B7727D8
:1007F8000A128A11A0250A128A112908303E990086
:100808000330B300B30B062C643063270A128A1135
:10081800E5250A128A112408B2002308B1000C1A2F
:100828008C2B132C88270A128A11031D1D2C0A30C1
:100838003102031C242C831203130C1A8C2B1F2C3B
:10084800831203130C1E242C3108303E9900033008
:10085800B300B30B2D2C0800B21F412C0C1E322CF8
:100868002D3099000330B300B30B382C83120313D7
:10087800B109B209B10A0319B20A3208803AFF0075
:10088800A7307F02031D4A2C10303102031CDF2CD5
:10089800831203130C1E4C2C1030A9002730AA0019
:1008A8003208AC003108AB00A0250A128A112908C9
:1008B800303E99000330B300B30B602C1030831224
:1008C8000313A3002730A4003208A6003108A500AE
:1008D800E5250A128A112408B2002308B1000C1E6B
:1008E800732CE830A9000330AA003208AC003108A4
:1008F800AB00A0250A128A112908303E990003305E
:10090800B300B30B852CE83083120313A300033024
:10091800A4003208A6003108A500E5250A128A11AC
:100928002408B2002308B1000C1E982C6430A900DA
:10093800AA013208AC003108AB00A0250A128A11BE
:100948002908303E99000330B300B30BA92C64305A
:1009580083120313A300A4013208A6003108A500DE
:10096800E5250A128A112408B2002308B1000C1EDA
:10097800BB2C0A30A900AA013208AC003108AB0030
:10098800A0250A128A112908303E99000330B300C5
:10099800B30BCC2C0A3083120313A300A401320832
:1009A800A6003108A500E5250A128A112408B2001C
:1009B8002308B100802D831203133208803AFF0008
:1009C80083307F02031DEA2CE8303102031C392DE5
:1009D800831203130C1EEC2CE830A9000330AA0084
:1009E8003208AC003108AB00A0250A128A11290888
:1009F800303E99000330B300B30B002DE83083126A
:100A08000313A3000330A4003208A6003108A50090
:100A1800E5250A128A112408B2002308B1000C1E29
:100A2800132D6430A900AA013208AC003108AB00CC
:100A3800A0250A128A112908303E99000330B30014
:100A4800B30B242D643083120313A300A4013208CE
:100A5800A6003108A500E5250A128A112408B2006B
:100A68002308B1000C1ABD2C362D8312031332084B
:100A7800803AFF0080307F02031D442D643031022C
:100A8800031C6E2D831203130C1E462D6430A9001F
:100A9800AA013208AC003108AB00A0250A128A115D
:100AA8002908303E99000330B300B30B592D643048
:100AB80083120313A300A4013208A6003108A5007D
:100AC800E5250A128A112408B2002308B1000C1A7D
:100AD800BD2C6B2D831203133208803AFF0080303F
:100AE8007F02031D792D0A303102031C802D8312E9
:100AF80003130C1ABD2C7B2D831203130C1E802D9F
:100B08003108303E99000330B300B30B892D8312AE
:100B180003130C1E8B2D0D3099000330B300B30B5B
:100B2800932D831203130C1E952D0A309900033060
:100B3800B300B30B9D2D0800AE01AA1FAA2DA90969
:100B4800AA09A90A0319AA0AAE01AE0AAC1FB32D55
:100B5800AB09AC09AB0A0319AC0A0130AE06AF0108
:100B6800B00129082A040319D82DAD01AD0AAA1B22
:100B7800C12D0310A90DAA0DBA2D0310AF0DB00D8C
:100B88002A082C02031DCA2D29082B02031CD42D68
:100B98002908AB022A08031CAC03AC022F1403106B
:100BA800AA0CA90CAD0BC12D2E080319E02DAF0915
:100BB800B009AF0A0319B00A3008AA002F08A90023
:100BC8000800A801A61FEF2DA509A609A50A031963
:100BD800A60AA801A80AA41FF62DA309A409A30A16
:100BE8000319A40A230824040319152EA701A70A28
:100BF800A41B022E0310A30DA40DFB2D240826020E
:100C0800031D082E23082502031C112E2308A50204
:100C18002408031CA603A6020310A40CA30CA70B0C
:100C2800022E280803191D2EA509A609A50A0319CD
:100C3800A60A2608A4002508A30008002B08A3007C
:100C48002C08A4008E30A501A600A701C6262308FB
:100C5800AB002408AC002508AD000800A701A801D6
:100C6800231C3C2E2508A7070318A80A2608A8074E
:100C78000310A50DA60D0310A40CA30C230824042F
:100C8800031D342E2808A4002708A30008002E08F6
:100C9800B4002F08B5003008B6000310350D360D26
:100CA800B7003708031D5C2EAE01AF01B001080084
:100CB8003108B4003208B5003308B6000310350D0A
:100CC800360DBC003C08031D6D2EAE01AF01B0010E
:100CD80008003C087B3EB7073008BC003308BC0658
:100CE8008030BC050730AF17B217B301B801B9019E
:100CF800BA01BB002E1C8E2E3108B807320803112A
:100D08000318320A031DB907330803110318330AFD
:100D1800031DBA070310B00CAF0CAE0C0310B10DD5
:100D2800B20DB30DBB0B7E2E0930BB002E1CAA2EB4
:100D38003108B807320803110318320A031DB9072E
:100D4800330803110318330A031DBA070310B00C44
:100D5800AF0CAE0C0310BA0CB90CB80CBB0B9A2E26
:100D68003808A3003908A4003A08A5003708A600E7
:100D78003C08A700C6262308AE002408AF002508B3
:100D8800B000080026080319CE2E250824042304E1
:100D9800031DD72EA301A401A5010800A60A03106C
:100DA800A50CA40CA30CFE3025050319E62ED22EA3
:100DB800A60AA30A0319A40A0319A50A0310A50C75
:100DC800A40CA30CFF3025050319F42EDC2E0230E9
:100DD8002602031CF62EA6030310A30DA40DA50DD1
:100DE800A41FEB2E261CA4130310A60C2608AA0089
:100DF800A901A8012808A3042908A4042A08A5040D
:100E08002708031DA517080090270A128A11031046
:100E1800420D430DC9004908031D172FBD01BE012E
:100E2800BF01C001080090270A128A111730031069
:100E3800C30CC20CC10CFF3E031D1B2F4108C4008C
:100E4800BE17BF013D08C5003E08C6003F08C700E1
:100E58008E30C801C902C91F3E2F4908803A8F3E0B
:100E6800031C122F0310C80CC70CC60CC50CC90FE5
:100E7800362F4C2F183049020318122F490803192E
:100E88004C2F0310C50DC60DC70DC80DC903422F41
:100E9800440803195A2FC509C609C709C809C50A4C
:100EA8000319C60A0319C70A0319C80A4808C00063
:100EB8004708BF004608BE004508BD000800831269
:100EC8000313A300A4013208A6003108A5000800F6
:100ED800E83083120313A3000330A4003208A600ED
:100EE8003108A50008006430A900AA013208AC0046
:100EF8003108AB000800E830A9000330AA00320826
:100F0800AC003108AB000800831203133208803AA2
:100F1800FF0080307F0208003D08C1003E08C20083
:100F28003F08C300080083128711071188100710B3
:100F3800081487108715871188140710E1270A12EB
:100F48008A11081487108715871188140710E1275C
:100F58000A128A110810871087158711881007143C
:100F68000814871087158711A301A401F5270A1211
:100F78008A1103192302031CBA2F071188100710BE
:100F8800081087108715871188140714E1270A129B
:100F98008A11081087108715871188100710081004
:100FA800871487158711A301A401F5270A128A114E
:100FB8000319230203180800D92F08108710871572
:100FC8008711A301A401A30A0319A40A0930240262
:100FD800C43003192302031CE72F071188100710D8
:0E0FE8000800A30A0319A40A09302402C43425
:101008008B110B128C130C130C128C168C110C11E7
:101018000C148C108B120D128D110D108B170B17D1
:10102800080098171813181683161813981618120C
:101038001815813099008C160C1283129811033000
:10104800A5008A30A4005630A300A30B2928A40BBE
:101058002928A50B29283028080083120313A30088
:101068003728831203136400831603178C18352856
:1010780083120313230803178D003F3083168C0552
:101088000C1403100C1803140318013083120C08F5
:101098000800A400831603178C184E288312031324
:1010A800240803178D000313230803178C003F300F
:1010B80083168C0503108B1B03148B130C155530EA
:1010C8008D00AA308D008C140C1103188B170800A2
:1010D80025082404230403199628A901A90AA51B95
:1010E8007A280310A30DA40DA50D7228250828023F
:1010F800031D842824082702031D842823082602A8
:10110800031C91282308A6022408031C240FA70205
:101118002508031C250AA8020310A50CA40CA30C7F
:10112800A90B7A282608A3002708A4002808A500E8
:101138000800A901AA01AB01250824042304031906
:10114800CF28AC01AC0AA51BAE280310A30DA40D33
:10115800A50DA6280310A90DAA0DAB0D2508280278
:10116800031DBC2824082702031DBC2823082602C7
:10117800031CCA282308A6022408031C240FA7025C
:101188002508031C250AA80229140310A50CA40C81
:10119800A30CAC0BAE282908A3002A08A4002B082E
:1011A800A50008000A168A111A200A128A150A16BA
:1011B8008A15FD260A128A150A128A1197270A1219
:1011C8008A150A168A1134200A128A150A128A15F3
:1011D80015200A128A150A168A150B270A128A156B
:1011E8000A128A1504200A128A150A128A119727E8
:1011F8000A128A150A168A1134200A128A156930C9
:101208000A168A111E240A128A150230A401A40A99
:101218000A168A11D1210A128A1557300A168A111C
:101228001E240A128A150630CC001330CB00B130C8
:10123800CA00CA0B1D29CB0B1D29CC0B1D2924293B
:10124800831203130130A401A40A0A168A11D121BA
:101258000A128A1545300A168A111E240A128A159E
:101268000230A401A40A0A168A11D1210A128A1589
:1012780033300A168A111E240A128A150630CC0049
:101288001330CB00B130CA00CA0B4829CB0B482910
:10129800CC0B48294F29831203130130A401A40A57
:1012A8000A168A11D1210A128A159D300A168A1146
:1012B8001E240A128A150230A401A40A0A168A11E9
:1012C800D1210A128A15AE300A168A111E240A1272
:1012D8008A150630CC001330CB00B130CA00CA0BD7
:1012E8007329CB0B7329CC0B73297A298312031327
:1012F8000130A401A40A0A168A11D1210A128A15FA
:1013080083120313D030AF01B0010A168A111E24CC
:101318000A128A150230A401A40A0A168A11D121D8
:101328000A128A1583120313BF30AF01B0010A16DF
:101338008A111E240A128A150A168A1134200A12E2
:101348008A155B30E0001A30CB00F830CA00CA0BAF
:10135800AB29CB0BAB2900002A3083120313A3005F
:1013680001300A128A154D200A128A1500300A1215
:101378008A1531200A128A150A128A11B6200A1211
:101388008A150A168A1150200A128A15D82F5B303E
:10139800D72F5C30D72F5D30D72F4D30AF01AF0A34
:1013A800B001B101B10AB201B3000A168A11AC202A
:1013B8000A128A15831203130230AF01AF0AB00173
:1013C800B1004F30B201B3000A168A11AC200A12DC
:1013D8008A15831203130330AF01AF0AB001B100BD
:1013E8004430B201B3000A168A11AC200A128A15D9
:1013F800831203130430AF01AF0AB001B1004530C6
:10140800B201B3000A168A11AC200A128A15831297
:1014180003130630AF01AF0AB001B1002C30B2019E
:10142800B3000A168A11AC200A128A158312031314
:101438000A30AF01AF0AB001B1004430B201B300C5
:101448000A168A11AC200A128A15831203130B306C
:10145800AF01AF0AB001B1002C30B201B3000A16D7
:101468008A11AC200A128A15023083120313AF00C6
:101478000330B001B1002E30B201B3000A168A1150
:10148800AC200A128A15023083120313AF0005300C
:10149800B001B1005630B201B3000A168A11AC206F
:1014A8000A128A15023083120313AF000630B00106
:1014B800B1002C30B201B3000A168A11AC200A120E
:1014C8008A15023083120313AF000830B001B1004F
:1014D8002E30B201B3000A168A11AC200A128A15FE
:1014E800023083120313AF000A30B001B10041305B
:1014F800B201B3000A168A11AC200A128A1502300A
:1015080083120313AF000B30B001B1002C30B201CD
:10151800B3000A168A11AC200A128A150230831207
:101528000313AF000E30B001B1002E30B201B3008A
:101538000A168A11AC200A128A1502308312031384
:10154800AF001030B001B1005730B201B3000A1635
:101558008A11AC200A128A15831203130530AF01D1
:10156800AF0AB001B1003130B201B3000A168A11D6
:10157800AC200A128A15831203130730AF01AF0A91
:10158800B001B1003030B201B3000A168A11AC20A4
:101598000A128A15831203130830AF01AF0AB0018B
:1015A800B1003030B201B3000A168A11AC200A1219
:1015B8008A15831203130930AF01AF0AB001B100D5
:1015C8003030B201B3000A168A11AC200A128A150B
:1015D800023083120313AF003030B001B101B10AF9
:1015E800B201B3000A168A11AC200A128A15023019
:1015F80083120313AF00B001B1003030B201B30061
:101608000A168A11AC200A128A15023083120313B3
:10161800AF000430B001B1003030B201B3000A1697
:101628008A11AC200A128A15023083120313AF0004
:101638000730B001B1003030B201B3000A168A1188
:10164800AC200A128A15023083120313AF00093046
:10165800B001B1003030B201B3000A168A11AC20D3
:101668000A128A15023083120313AF000C30B0013E
:10167800B1003030B201B3000A168A11AC200A1248
:101688008A15023083120313AF000D30B001B10088
:101698003030B201B3000A168A11AC200A128A153A
:1016A800023083120313AF000F30B001B1003030A5
:1016B800B201B3000A168A11AC200A128A150A3040
:1016C800D52F0A128A117A220A128A155508B200F1
:1016D8005408B1000A128A1114230A128A15E1303B
:1016E8000A128A115B220A128A155708B200560894
:1016F800B1000A128A1114230A128A15E1300A125B
:101708008A115B220A128A156508B2006408B100C2
:101718000A128A1114230A128A15E1300A128A1150
:101728005B220A128A156308B2006208B1000A1225
:101738008A1114230A128A15E1300A128A115B22CF
:101748000A128A150A168A1101200A128A154130CE
:1017580083120313CB00EE30CA00CA0BB12BCB0B9C
:10176800B12B00000A128A11B6200A128A15073016
:10177800AF01AF0AB001B1003030B201B3000A16B0
:101788008A11AC200A128A15831203130830AF019C
:10179800AF0AB001B1003030B201B3000A168A11A5
:1017A800AC200A128A15831203130930AF01AF0A5D
:1017B800B001B1003030B201B3000A168A11AC2072
:1017C8000A128A15023083120313AF000A30B001DF
:1017D800B101B10AB201A300A401A5014D08A600F8
:1017E8004E08A7004F08A8000A128A159D200A1261
:1017F8008A152308303EB3000A168A11AC200A1253
:101808008A15023083120313AF00B001B1000A3009
:10181800B201A300A401A5014D08A6004E08A70027
:101828004F08A8000A128A156C200A128A15230884
:10183800303EB3000A168A11AC200A128A1502300B
:1018480083120313AF000430B001B1003030B2018D
:10185800B3000A168A11AC200A128A1502308312C4
:101868000313AF000730B001B1003030B201B3004C
:101878000A168A11AC200A128A1502308312031341
:10188800AF000930B001B1003030B201B3000A1620
:101898008A11AC200A128A15023083120313AF0092
:1018A8000C30B001B1003030B201B3000A168A1111
:1018B800AC200A128A15023083120313AF000D30D0
:1018C800B001B1003030B201B3000A168A11AC2061
:1018D8000A128A15023083120313AF000F30B001C9
:1018E800B1003030B201B3000A168A11AC200A12D6
:1018F8008A150A128A1128200A128A150A168A15C8
:1019080019270A128A15D82F4D30AF01AF0AB00136
:10191800B101B10AB201B3000A168A11AC200A1249
:101928008A15831203130230AF01AF0AB001B10068
:101938004F30B201B3000A168A11AC200A128A1578
:10194800831203130330AF01AF0AB001B100443072
:10195800B201B3000A168A11AC200A128A15831242
:1019680003130430AF01AF0AB001B1004530B20132
:10197800B3000A168A11AC200A128A1583120313BF
:101988000630AF01AF0AB001B1002C30B201B3008C
:101998000A168A11AC200A128A15831203130A3018
:1019A800AF01AF0AB001B1004430B201B3000A166A
:1019B8008A11AC200A128A15831203130B30AF0167
:1019C800AF0AB001B1002C30B201B3000A168A1177
:1019D800AC200A128A15023083120313AF000330B9
:1019E800B001B1002E30B201B3000A168A11AC2042
:1019F8000A128A15023083120313AF000530B001B2
:101A0800B1005630B201B3000A168A11AC200A128E
:101A18008A15023083120313AF000630B001B100FB
:101A28002C30B201B3000A168A11AC200A128A15AA
:101A3800023083120313AF000830B001B1002E301A
:101A4800B201B3000A168A11AC200A128A150230B4
:101A580083120313AF000A30B001B1004130B20164
:101A6800B3000A168A11AC200A128A1502308312B2
:101A78000313AF000B30B001B1002C30B201B3003A
:101A88000A168A11AC200A128A150230831203132F
:101A9800AF000E30B001B1002E30B201B3000A160B
:101AA8008A11AC200A128A15023083120313AF0080
:101AB8001030B001B1005730B201B3000A168A11D4
:101AC800AC200A128A15831203130530AF01AF0A3E
:101AD800B001B1003230B201B3000A168A11AC204D
:101AE8000A128A15831203130730AF01AF0AB00137
:101AF800B1003030B201B3000A168A11AC200A12C4
:101B08008A15831203130830AF01AF0AB001B10080
:101B18003030B201B3000A168A11AC200A128A15B5
:101B2800831203130930AF01AF0AB001B10030309E
:101B3800B201B3000A168A11AC200A128A150230C3
:101B480083120313AF000A30B001B101B10AB20128
:101B5800A300A401A5014D08A6004E08A7004F0840
:101B6800A8000A128A159D200A128A152308303EF9
:101B7800B3000A168A11AC200A128A1502308312A1
:101B88000313AF00B001B1000A30B201A300A401F1
:101B9800A5014D08A6004E08A7004F08A8000A1284
:101BA8008A156C200A128A152308303EB3000A16DB
:101BB8008A11AC200A128A15023083120313AF006F
:101BC8000430B001B1003030B201B3000A168A11F6
:101BD800AC200A128A15023083120313AF000730B3
:101BE800B001B1003030B201B3000A168A11AC203E
:101BF8000A128A15023083120313AF000930B001AC
:101C0800B1003030B201B3000A168A11AC200A12B2
:101C18008A15023083120313AF000C30B001B100F3
:101C28003030B201B3000A168A11AC200A128A15A4
:101C3800023083120313AF000D30B001B100303011
:101C4800B201B3000A168A11AC200A128A150230B2
:101C580083120313AF000F30B001B1003030B2016E
:101C6800B3000A168A11AC200A128A151430D52F2F
:101C78000A128A1128200A128A15D82F4D30AF016E
:101C8800AF0AB001B101B10AB201B3000A168A1154
:101C9800AC200A128A15831203130230AF01AF0A6F
:101CA800B001B1004F30B201B3000A168A11AC205E
:101CB8000A128A15831203130330AF01AF0AB00169
:101CC800B1004430B201B3000A168A11AC200A12DE
:101CD8008A15831203130430AF01AF0AB001B100B3
:101CE8004530B201B3000A168A11AC200A128A15CF
:101CF800831203130630AF01AF0AB001B1002C30D4
:101D0800B201B3000A168A11AC200A128A1583128E
:101D180003130A30AF01AF0AB001B1004430B20179
:101D2800B3000A168A11AC200A128A15831203130B
:101D38000B30AF01AF0AB001B1002C30B201B300D3
:101D48000A168A11AC200A128A150230831203136C
:101D5800AF000330B001B1002E30B201B3000A1653
:101D68008A11AC200A128A15023083120313AF00BD
:101D78000530B001B1005630B201B3000A168A111D
:101D8800AC200A128A15023083120313AF00063002
:101D9800B001B1002C30B201B3000A168A11AC2090
:101DA8000A128A15023083120313AF000830B001FB
:101DB800B1002E30B201B3000A168A11AC200A1203
:101DC8008A15023083120313AF000A30B001B10044
:101DD8004130B201B3000A168A11AC200A128A15E2
:101DE800023083120313AF000B30B001B1002C3066
:101DF800B201B3000A168A11AC200A128A15023001
:101E080083120313AF000E30B001B1002E30B201BF
:101E1800B3000A168A11AC200A128A1502308312FE
:101E28000313AF001030B001B1005730B201B30056
:101E38000A168A11AC200A128A1583120313053078
:101E4800AF01AF0AB001B1003330B201B3000A16D6
:101E58008A11AC200A128A15831203130730AF01C6
:101E6800AF0AB001B1003030B201B3000A168A11CE
:101E7800AC200A128A15831203130830AF01AF0A87
:101E8800B001B1003030B201B3000A168A11AC209B
:101E98000A128A15831203130930AF01AF0AB00181
:101EA800B1003030B201B3000A168A11AC200A1210
:101EB8008A15023083120313AF003030B001B1012C
:101EC800B10AB201B3000A168A11AC200A128A15A7
:101ED800023083120313AF00B001B1003030B201F9
:101EE800B3000A168A11AC200A128A15023083122E
:101EF8000313AF000430B001B1003030B201B300B9
:101F08000A168A11AC200A128A15023083120313AA
:101F1800AF000730B001B1003030B201B3000A168B
:101F28008A11AC200A128A15023083120313AF00FB
:101F38000930B001B1003030B201B3000A168A117D
:101F4800AC200A128A15023083120313AF000C303A
:101F5800B001B1003030B201B3000A168A11AC20CA
:101F68000A128A15023083120313AF000D30B00134
:101F7800B1003030B201B3000A168A11AC200A123F
:101F88008A15023083120313AF000F30B001B1007D
:101F98003030B201B3000A168A11AC200A128A1531
:101FA8001E3083120313E000831203136008003A03
:101FB8000319D82F013A0319CB29033A0319CD295C
:101FC800013A0319CF29093A0319652B1E3A031957
:101FD8003C2E0A3A03193C2E443A0319D82F013AE9
:101FE8000319D129073A0319882C013A0319422EFB
:081FF800D82F0A128A111028EB
:102002000C1E01280D309900F930A3000000A30B2B
:1020120007280B280000831203130C1E0C280A3019
:102022009900F930A3000000A30B1428182800001F
:102032000800FF308316850083128501C0308316A5
:1020420086008312860180308316870083128701FF
:10205200CC30831688008312880180308316890071
:1020620083128901080007110630A400A40B372847
:10207200000083120313DF01DF0A16210A168A11F8
:102082000D3083120313A500FB30A400A40B4728D4
:10209200A50B47284C2883120313071508000C30A0
:1020A200AF01AF0AB001B1000A30B201A300A4012E
:1020B2005308A6005208A500C8200A168A11230850
:1020C200303EB300AC200A168A11831203130D307E
:1020D200AF01AF0AB001B1000A30B201AA00AB01F0
:1020E2005308AD005208AC00F2200A168A112A08E1
:1020F200303EB300AC200A168A11831203130F304C
:10210200AF01AF0AB001B1000A30B201A300A401CD
:102112005908A6005808A500C8200A168A112308E3
:10212200303EB300AC200A168A118312031310301A
:10213200AF01AF0AB001B1000A30B201AA00AB018F
:102142005908AD005808AC00F2200A168A112A0874
:10215200303EB300AC283108A4002F08D1210A1662
:102162008A118312031307150630B400B40BB72883
:102172000000831203133308DF0016210A168A11A6
:10218200213083120313B400B40BC5280800A70141
:10219200A801230824040319ED28A901A90AA41BF4
:1021A200D6280310A30DA40DCF280310A70DA80D48
:1021B20024082602031DDF2823082502031CE92820
:1021C2002308A5022408031CA603A6022714031051
:1021D200A40CA30CA90BD6282808A4002708A30046
:1021E20008002A082B0403191129AE01AE0AAB1B01
:1021F200FE280310AA0DAB0DF7282B082D02031D94
:1022020004292A082C02031C0D292A08AC022B08D7
:10221200031CAD03AD020310AB0CAA0CAE0BFE28DF
:102222002D08AB002C08AA0008007D105F187D1451
:10223200831203135F08A3000310A30CFD102318DD
:10224200FD14831203135F08A3000310A30C0310F1
:10225200A30C7D1123187D15831203135F08A300BD
:102262000310A30C0310A30C0310A30CFD112318DD
:10227200FD15831203135F08A30004300310A30C9F
:10228200FF3E031D3F297D1223187D16831203137F
:102292005F08A30005300310A30CFF3E031D4C2969
:1022A200FD122318FD16831203135F08A3000630E4
:1022B2000310A30CFF3E031D59297D1323187D171C
:1022C200831203135F08A30007300310A30CFF3E21
:1022D200031D6629661123186615831203138711DD
:1022E200000083120313871500007D1E7C298312D0
:1022F200031387147F29831203138710FD1E852978
:1023020083120313081488298312031308107D1FF4
:102312008E298312031307149129831203130710C2
:10232200661D97298312031388149A2983120313B3
:102332008810000083120313871100008312031315
:102342008711000083120313871500007D1CAD293D
:10235200831203138714B029831203138710FD1C01
:10236200B629831203130814B92983120313081020
:102372007D1DBF29831203130714C229831203137D
:102382000710FD1DC829831203138814CB29831259
:102392000313881000008312031387110000080042
:1023A200A800280BD6298030A80002302806031D79
:1023B200DC29C030A80024082807FF3EA700071127
:1023C2000630A500A50BE32900008312031327089A
:1023D200DF0016210A168A110D3083120313A6009C
:1023E200FB30A500A50BF329A60BF329F829080059
:1023F2000C1C4C2ADA0A0319DB0A32305A065B0437
:10240200031D472ADC0A0319DD0A661C0F2A0E3057
:10241200F701F70AF801F9003A30152A0E30F701F0
:10242200F70AF801F9002030FA01FB00D5220A165A
:102432008A11013083120313E606403088063C30CD
:10244200DA01DB015C065D04031D472A78220A16C5
:102452008A1183120313D80A0319D90A1E30DC0128
:10246200DD01F000F1015908F3005808F200EF22F3
:102472000A168A117008E1003C3058065904031DFF
:10248200472AD801D901D20A0319D30A0C10B03055
:102492008E003C308F008C1E692A181D9818632A02
:1024A2001A082A301A0603195A2A14305E02031C2B
:1024B2005B2ADE015E08A03E84001A0883138000B6
:1024C200DE0A682A181218111A081A0818168C122D
:1024D200981C6F2A18121A081A08181622088A005D
:1024E20021088400200E8300FE0E7E0E09000C30AF
:1024F200F701F70AF801F9000A30FA01F000F101D8
:102502005308F3005208F20013230A168A117008C6
:10251200303EFB00D5220A168A110D30F701F70A68
:10252200F801F9000A30FA01F000F10183120313F5
:102532005308F3005208F200EF220A168A117008BB
:10254200303EFB00D5220A168A110F30F701F70A36
:10255200F801F9000A30FA01F000F10183120313C5
:102562005908F3005808F20013230A168A1170085A
:10257200303EFB00D5220A168A111030F701F70A05
:10258200F801F9000A30FA01F000F1018312031395
:102592005908F3005808F200EF220A168A1170084F
:1025A200303EFB00D52208007908F1007708F823B5
:1025B2000A168A118312031307150630FC00FC0B5E
:1025C200E02A00007B0883120313DF003D230A1672
:1025D2008A112130FC00FC0BEC2A080070087104FF
:1025E20003190E2BF401F40AF11BFB2A0310F00D60
:1025F200F10DF42A71087302031D012B7008720297
:10260200031C0A2B7008F2027108031CF303F30285
:102612000310F10CF00CF40BFB2A7308F1007208A2
:10262200F0000800F401F501700871040319382B59
:10263200F601F60AF11B212B0310F00DF10D1A2BF6
:102642000310F40DF50D71087302031D2A2B700897
:102652007202031C342B7008F2027108031CF3038C
:10266200F30274140310F10CF00CF60B212B750815
:10267200F1007408F00008007D105F187D148312C9
:1026820003135F08F0000310F00CFD107018FD1426
:10269200831203135F08F0000310F00C0310F00C18
:1026A2007D1170187D15831203135F08F00003106B
:1026B200F00C0310F00C0310F00CFD117018FD1556
:1026C200831203135F08F00004300310F00CFF3E86
:1026D200031D662B7D1270187D16831203135F088B
:1026E200F00005300310F00CFF3E031D732BFD12AA
:1026F2007018FD16831203135F08F00006300310F2
:10270200F00CFF3E031D802B7D1370187D17831282
:1027120003135F08F00007300310F00CFF3E031DA7
:102722008D2B661170186615831203138711000032
:1027320083120313871500007D1EA32B831203133C
:102742008714A62B831203138710FD1EAC2B831252
:1027520003130814AF2B8312031308107D1FB52B2C
:10276200831203130714B82B831203130710661D79
:10277200BE2B831203138814C12B831203138810F8
:1027820000008312031387110000831203138711C1
:10279200000083120313871500007D1CD42B8312C3
:1027A20003138714D72B831203138710FD1CDD2B11
:1027B200831203130814E02B8312031308107D1DE8
:1027C200E62B831203130714E92B8312031307105A
:1027D200FD1DEF2B831203138814F22B83120313B4
:1027E2008810000083120313871100000800F5000F
:1027F200750BFD2B8030F50002307506031D032C8E
:10280200C030F50071087507FF3EF400071106306D
:10281200F200F20B0A2C0000740883120313DF008B
:102822003D230A168A110D30F300FB30F200F20B41
:10283200182CF30B182C1D2C080083120313C10053
:102842002F30BD00831203134108C10A84000A1607
:102852008A1500200A168A11C400440803190800C8
:10286200253A0319392C440887270A168A11232C82
:10287200C201C301C501C601462CC515452C45142C
:10288200452CC615452C4515C10A410884000A1677
:102892008A1500200A168A11203A0319402C033A9D
:1028A2000319422C0E3A03193E2C1D3A0319442CEB
:1028B2005A2CC51D5D2C4511410884000A168A1543
:1028C20000200A168A11A0270A168A11031C9C2CC2
:1028D200C201C3010A30A300A4014308A6004208B2
:1028E200A5000A128A1132260A168A112408C30088
:1028F2002308C200410884000A168A1500200A161D
:102902008A11D03EB100FF3003180030B200310806
:10291200C2070318C30A3208C307C10A4108840068
:102922000A168A1500200A168A11A0270A168A1189
:10293200031CB12C6B2C410884000A168A15002056
:102942000A168A112A3A031DB12C3D08840083130A
:102952000008C200840A0008C300BD0ABD0AC10AF9
:10296200410884000A168A1500200A168A112E3A96
:10297200031DF02C4617C10A410884000A168A1565
:1029820000200A168A112A3A031DD02C3D08840021
:1029920083130008C000BD0ABD0AC10A682DC00128
:1029A200410884000A168A1500200A168A11A027F7
:1029B2000A168A114108031C692D84000A168A1519
:1029C20000200A168A11B1000A30A3004008AE277F
:1029D2000A168A113107D03EC000C10AD12CC001AB
:1029E200682D45178A2DC516C5178A2D400803196B
:1029F2000C2D4008B100B201B11BB2033C083202F7
:102A0200031D052D3B08310203180C2D4008BB00A5
:102A1200BC01BB1BBC0343083C02031D122D420830
:102A22003B0203181B2D3B08C2023C08031CC303D4
:102A3200C3021D2DC201C301C51D242D3A2D203014
:102A420087270A168A11FF3083120313C207031C59
:102A5200C303420F202D430A03193A2D202D3808B3
:102A620084008313000887270A168A11831203132E
:102A7200B80A0130BB020030031CBC03BC023B0F8E
:102A8200302D3C0A031D302DC5194C2D232C20302E
:102A920087270A168A11FF3083120313C207031C09
:102AA200C303420F482D430A0319232C482D3D0826
:102AB200840083130008C400BD0ABD0A4430B80074
:102AC200BB01BB0ABC01F72CC030C5048A2D4108EA
:102AD200C10A84000A168A1500200A168A11C40047
:102AE200003A0319862F583A0319F42C3B3A03197A
:102AF200582D073A03198A2D0D3A03198A2D063AE1
:102B02000319F22C1A3A0319652D0D3A0319F52C03
:102B12005F2D4508C039031D9B2DD4270A168A1143
:102B2200BF1F9E2D0330C504BE09BF09BE0A03198B
:102B3200BF0A9E2DD4270A168A114008031D012EB2
:102B42003E083F04031D012EC00A012EC4010530B8
:102B5200C40A440603190F2E0310440D0D3E8400CF
:102B62000A168A1500200A168A11B1000A168A1559
:102B720000200A168A11B2003F02031DC22D31083D
:102B82003E02031C0F2EA82DC4010430C40A4406C1
:102B920003190F2E0310440D173E84000A168A15DE
:102BA20000200A168A11B1000A168A1500200A1698
:102BB2008A11B2003F02031DE02D31083E02031CC0
:102BC2000F2EC62DC4010630C40A440603190F2E67
:102BD2000310440D013E84000A168A1500200A16CD
:102BE2008A11B1000A168A1500200A168A11B2004B
:102BF2003F02031DFE2D31083E02031C0F2EE42D61
:102C02004508C0390319A72D403A0319E32DC03AEC
:102C12000319C52D403A0319A72D0F2E4408803AF7
:102C2200B1004008803AB102400803181A2EC400CD
:102C3200232E803AB1004408803AB1020318232EB1
:102C42004408C0004208430403192F2E45080339E3
:102C520003192F2EFF30C207031CC303461F422E47
:102C62004008BC270A168A1103183E2E831203134A
:102C72004008DF270A168A11422E83120313C2016B
:102C8200C301C430E9270A168A1103193206031D4B
:102C9200502E4208430403196D2EFF30652ECB27B8
:102CA2000A168A1103193206031D6D2E4308803A53
:102CB200FF0080307F02031D602E03304202031C9E
:102CC200692EFE3083120313C207031CC3036D2E49
:102CD20083120313C201C3014408BC270A168A11D6
:102CE20003187A2E831203134408DF270A168A1167
:102CF2007E2E83120313C201C301451DB32E450864
:102D020003390319862E2D309F2E451C8A2E203022
:102D12009F2ECB270A168A1103193206031DA22EF3
:102D2200303087270A168A1183120313C51A9B2E85
:102D320078309C2E5830B400B501340887270A1623
:102D42008A11831203134208430403196A2F303095
:102D520087270A168A11FF3083120313C207031C46
:102D6200C303A42E42084304031DC519C12E2030FB
:102D720087270A168A11F1270A168A11031DB82E0F
:102D8200450803390319C72E2D30CA2E451CCD2EF6
:102D9200203087270A168A11C03083120313E927CD
:102DA2000A168A1103193206031DD92E3030672FF5
:102DB200CB270A168A1103193206031D6A2F3030F7
:102DC20087270A168A1183120313C51AEA2E78304E
:102DD200EB2E5830B600B7013608672F0A30AA002A
:102DE200AB010310400D0D3E84000A168A15002027
:102DF2000A168A11A3000A168A1500200A168A11D9
:102E0200FA270A168A11C8200A168A112408AD0068
:102E12002308AC000A168A11F2200A168A112A081F
:102E2200552F3F08A6003E08A5000310400D173E8F
:102E320084000A168A1500200A168A11A3000A16AF
:102E42008A1500200A168A11A4000A168A11C820BF
:102E52000A168A112308B9000F30B905C51A332F93
:102E62008C30342F7B30BA0039083A0784000A16B6
:102E72008A1500200A168A11562F0310400D013EB2
:102E820084000A168A1500200A168A11A3000A165F
:102E92008A1500200A168A11FA270A168A11C820F2
:102EA2000A168A1123080739303EC400662F4508E6
:102EB200C0390319EF2E403A03193E2FC03A0319C5
:102EC200122F403A0319EF2E662F440887270A165D
:102ED2008A1183120313C003400F582FC51D232CE0
:102EE2004308803AFF0080307F02031D7A2F0130B1
:102EF2004202031C232C203087270A168A11F1274D
:102F02000A168A110319232C7C2F0800831203133B
:102F1200A50007150630A400A40B8D2F0000831214
:102F220003132508DF000A168A1116210A168A11D0
:102F3200213083120313A400A40B9D2F0800A400C8
:102F42003A30A30124020318AC2F30302402031CB0
:102F5200AC2FA301A30A230C0800A500A401230897
:102F62002518A4070310A30D0310A50C2508031DA3
:102F7200B02F24080800B100B201B11BB20332081D
:102F8200803AB3004308803A3302031D0800420826
:102F920031020800C0304505B10008304605B200D4
:102FA2008030310608343D08840083130008BE00D7
:102FB200840A0008BF00BD0ABD0A0800B100B201C0
:102FC200B11BB203C2023208031CC303C3020800CE
:102FD2004505B10008304605B200403031060834DC
:102FE200FF3083120313C207031CC30342084304C6
:102FF2000800A4003F08A6003E08A50008001830FB
:103002008A000408840A8207003401340034083438
:1030120000344034003400340234003410340034BC
:103022008034013400340A34003464340034E83427
:1030320003341034273401340034103400340034A3
:1030420001340034103453347734693474346334C3
:10305200683465346434203474346F3420344D342D
:103062006F346434653420343A34203400342034EC
:1030720020342034203420342034533479347334CF
:10308200743465346D3420342034203420342034B8
:10309200003420342034203420344D346F346E34E4
:1030A200693474346F34723469346E346734203462
:1030B200203420340034203461346E3464342034BB
:1030C2004834653461347234743420345234613497
:1030D2007434653420342034003442346F34643420
:1030E20079342034543465346D3470346534723438
:1030F20061347434753472346534203400343034BD
:103102003134323433343434353436343734383479
:10311200393441344234433444344534463400343F
:103122003034313432343334343435343634373461
:103132003834393461346234633464346534663427
:1031420000342034203420342034203420342034FD
:1031520066346F34723420342034203420342034E6
:10316200203400342034203420342034503461346C
:103172007434693465346E347434733420342034D6
:1031820020342034003454343A3420342034383457
:10319200343446342034203420344C346F34773481
:1031A200203420342034003448343A34203420345B
:1031B20036343234503450344D3420344C346F343D
:1031C200773420342034203400342C34203400343A
:103DFA0042309F00843083169F00080064008001CF
:103E0A00840A0406031900340406042F83120313D8
:103E1A0090121016901010149011B0308E003C3091
:103E2A008F0083160C14080055085702031D1F2F14
:103E3A00540856020318342F56085402A90057088A
:103E4A00031C570A5502AA0000302A021A30031925
:103E5A002902031C0800A301A30AA4014F2F570833
:103E6A005502031D3A2F5608540203180800540835
:103E7A005602A9005508031C550A5702AA00003029
:103E8A002A021A3003192902031C0800A301A30AF3
:103E9A00A401962FA701A801A701A8012808803A22
:103EAA00A5002408803A2502031D5D2F2308270256
:103EBA000318952FEB270A168A151430A6007930B5
:103ECA00A500A50B662FA60B662F6B2FF9270A16DE
:103EDA008A151430A6007930A500A50B722FA60BFF
:103EEA00722F772FE4270A168A151430A600793024
:103EFA00A500A50B7E2FA60B7E2F832FF2270A166D
:103F0A008A151430A6007930A500A50B8A2FA60BB6
:103F1A008A2F8F2F83120313A70A0319A80A532F74
:103F2A00DD2FA701A801A701A8012808803AA5004A
:103F3A002408803A2502031DA42F23082702031808
:103F4A00DC2FF2270A168A151430A6007930A5004C
:103F5A00A50BAD2FA60BAD2FB22FE4270A168A1593
:103F6A001430A6007930A500A50BB92FA60BB92FDE
:103F7A00BE2FF9270A168A151430A6007930A50033
:103F8A00A50BC52FA60BC52FCA2FEB270A168A1514
:103F9A001430A6007930A500A50BD12FA60BD12F7E
:103FAA00D62F83120313A70A0319A80A9A2FDD2F03
:103FBA008312031306158615061686160800831241
:103FCA0003130615861506128616080083120313B4
:103FDA00061186150616861608008312031306159F
:103FEA008615061686120800831203130615861113
:063FFA0006168616080001
:02400E00B2FFFF
:00000001FF
