:1000000000000A128A111228FE00030EF8000408EC
:10001000F9000A08FA00831203137F08FB000A1292
:0A0020008A159B2C0A128A15682A23
:10002E0001340134831203135F08A000043003105F
:10003E00A00CFF3E031D1E282008A1002108E00091
:10004E005F08A00003300310A00DFF3E031D2A28F9
:10005E000310200DA1002108E1006108A00004306A
:10006E000310A00CFF3E031D37282008A100210815
:10007E00E1007C105F1C44287C14831203135F087C
:10008E00A00001300310A00CFF3E031D4928FC10F8
:10009E00201C5228FC14831203135F08A0000230A8
:1000AE000310A00CFF3E031D57287C11201C602856
:1000BE007C15831203135F08A00003300310A00CFD
:1000CE00FF3E031D6528FC11201C6E28FC158312B3
:1000DE0003135F08A00004300310A00CFF3E031DA5
:1000EE0073287C12201C7C287C16831203135F0855
:1000FE00A00005300310A00CFF3E031D8128FC124A
:10010E00201C8A28FC16831203135F08A0000630F9
:10011E000310A00CFF3E031D8F287C13201C982873
:10012E007C17831203135F08A00007300310A00C86
:10013E00FF3E031D9D28FC13201CA628FC178312CE
:10014E0003138711640083120313871564007C1A4E
:10015E00B128B528831203138714B828831203130A
:10016E008710FC1ABB28BF28831203130814C22859
:10017E008312031308107C1BC528C928831203138E
:10018E000714CC28831203130710FC1BCF28D32887
:10019E00831203138814D628831203138810640065
:1001AE0083120313871164008312031387116400F3
:1001BE0083120313871564007C18E628EA2883123D
:1001CE0003138714ED28831203138710FC18F028ED
:1001DE00F428831203130814F7288312031308104C
:1001EE007C19FA28FE28831203130714012983129F
:1001FE0003130710FC19042908298312031388140A
:10020E000B298312031388106400831203138711C2
:10021E00640008000A128A158B220A128A110A1229
:10022E008A1591210A128A110A128A155C250A1260
:10023E008A110A128A1547220A128A110A128A157F
:10024E0027220A128A110A128A159A210A128A1173
:10025E000A128A15A9210A128A110A128A155C2518
:10026E000A128A110A128A1547220A128A11683056
:10027E000A128A1137220A128A1183120313A2015B
:10028E000314A20D02300A128A1507230A128A11CC
:10029E0056300A128A1137220A128A110630831238
:1002AE000313C5001330C400B130C300C30B5D2966
:1002BE00C40B5D29C50B5D29642983120313A201AA
:1002CE000314A20D01300A128A1507230A128A118D
:1002DE0044300A128A1137220A128A11831203132A
:1002EE00A2010314A20D02300A128A1507230A1264
:1002FE008A1132300A128A1137220A128A110630F6
:10030E0083120313C5001330C400B130C300C30BF6
:10031E008E29C40B8E29C50B8E29952983120313A2
:10032E00A2010314A20D01300A128A1507230A1224
:10033E008A119C300A128A1137220A128A118312EC
:10034E000313A2010314A20D02300A128A15072309
:10035E000A128A11AD300A128A1137220A128A1134
:10036E00063083120313C5001330C400B130C3002E
:10037E00C30BBF29C40BBF29C50BBF29C6298312C6
:10038E000313A2010314A20D01300A128A150723CA
:10039E000A128A11831203134A08AF01AF074908E4
:1003AE00AE01AE07CF300A128A1137220A128A1115
:1003BE0083120313A2010314A20D02300A128A152E
:1003CE0007230A128A11831203134E08AF01AF07D7
:1003DE004D08AE01AE07BE300A128A1137220A123C
:1003EE008A110A128A1547220A128A1183120313DE
:1003FE00E2010314E20D1E2A1E2A0A30C30043082E
:10040E00E2001E2A87141F300A128A15DB220A12F6
:10041E008A110A128A1520240A128A1183120313D2
:10042E0087101E2A1E2A1E2A1E2A1E2A1E2A62080D
:10043E00013A0319042A033A03191E2A013A031931
:10044E001E2A093A0319092A1E3A03191E2A0A3AC4
:10045E0003191E2A1E2A1E2A1E2A0A128A11122861
:10046E0083120313B9002E30B0003008B800E92F04
:10047E004008253A0319442A452A4C2A40080A12F4
:10048E008A15ED210A128A11E92F83120313BB017B
:10049E00BC01C101C2016D2A6D2AC1150130B00027
:1004AE003008B9076D2A41140130B0003008B90781
:1004BE006D2AC2150130B0003008B9076D2A4115FA
:1004CE000130B0003008B9076D2A832A390884003C
:1004DE000A128A1500200A128A11203A03195A2A82
:1004EE00033A0319602A0E3A0319542A1D3A0319C6
:1004FE00662A832A832A6D2AC11D862A872A8C2A78
:10050E00FB30C105FF30C2058C2A390884000A125F
:10051E008A1500200A128A110A128A15BC210A12A3
:10052E008A11031C9B2A9C2AE02A83120313BB0107
:10053E00BC01A12A831203133C08A101A1073B08A9
:10054E00A001A0070A30A2000030A3000A128A15EB
:10055E00AF220A128A1183120313390884000A1279
:10056E008A1500200A128A112007B00000300318E5
:10057E0001302107B1003008D03EBB00310803180E
:10058E00013EFF3EBC000130B0003008B90739080B
:10059E0084000A128A1500200A128A110A128A157C
:1005AE00BC210A128A110318DD2ADE2AA12A002B89
:1005BE00002B83120313390884000A128A150020B7
:1005CE000A128A112A3A031DED2AEE2A002B380848
:1005DE00840083130008BB00840A0008BC000230AC
:1005EE00B0003008B8070130B0003008B907002B52
:1005FE00002B83120313390884000A128A15002077
:10060E000A128A112E3A031D0D2B0E2B642B421744
:10061E000130B0003008B907390884000A128A1573
:10062E0000200A128A112A3A031D1E2B1F2B2F2B74
:10063E003808840083130008B0003008BA00023076
:10064E00B0003008B8070130B0003008B9071B2CD5
:10065E00BA01512B0A3083120313B0003008A000E8
:10066E003A080A128A15D3210A128A118312031329
:10067E00B100390884000A128A1500200A128A1164
:10068E003107D03EB2003208BA000130B000300857
:10069E00B907512B390884000A128A1500200A1254
:1006AE008A110A128A15BC210A128A110318602BAC
:1006BE00612B312B1B2C1B2C1B2CBA011B2C1B2C26
:1006CE00FF2F4117412C412C412CC116C117412C33
:1006DE003A08031D732B882B3A08B000B101B01BEA
:1006EE00B1033F083102031D7E2B3E083002031872
:1006FE00812B822B882B3A08BE00BF01BE1BBF0385
:10070E00882B3C083F02031D8E2B3B083E0203182C
:10071E00912B922B992B3E08BB023F08031CBC0366
:10072E00BC029C2BBB01BC019C2BC1199F2BA02B87
:10073E00CE2BA92BA92B20300A128A15ED210A12D5
:10074E008A11A92BFF3083120313BB070318BC0AAF
:10075E00FF30BC07FF303C06031DB72BFF303B06B6
:10076E00031DBA2BBB2BA22BCE2BCE2BCE2B3D0893
:10077E008400831300080A128A15ED210A128A11C9
:10078E00013083120313B0003008BD07CE2B0130A9
:10079E00BE020030031CBF03BF02FF303F06031D25
:1007AE00DA2BFF303E06031DDD2BDE2BBE2BC11DCB
:1007BE00E12BE22BE92FEB2BEB2B20300A128A15C3
:1007CE00ED210A128A11EB2BFF3083120313BB07A4
:1007DE000318BC0AFF30BC07FF303C06031DF92B83
:1007EE00FF303B06031DFC2BFD2BE42BE92FE92FDD
:1007FE00E92F3808840083130008B0003008C000C9
:10080E000230B0003008B8070C2C4030B000300871
:10081E00BD000130BE000030BF006F2BC030C104E0
:10082E000030C204412C412C013083120313B9074E
:10083E00FF30390784000A128A1500200A128A1125
:10084E00C000003A0319FF2F583A03196C2B3B3A9C
:10085E000319002C073A0319412C0D3A0319412CA8
:10086E00063A0319682B1A3A0319152C0D3A031977
:10087E006D2B0C2CC0304105B00000304205B1008C
:10088E0031083004031D4C2C4D2C682C3808840084
:10089E0083130008BD00840A0008BE000230B000B9
:1008AE003008B807BE1F5C2C5D2C752C0330C104BC
:1008BE000030C204BD09BE09BD0A0319BE0A752C5B
:1008CE00752C3808840083130008BD00840A0008C4
:1008DE00BE000230B0003008B807752CBA08031DF0
:1008EE00792C7A2C242D3E083D04031D7F2C802C60
:1008FE00242D0130B0003008BA07242D242D872C6A
:10090E00C0010314C00D4008053A031D8F2C902C16
:10091E00922C332D332D4008B00030070D3E84004D
:10092E000A128A1500200A128A11B1000A128A15BB
:10093E0000200A128A11B20032083E02031DA92CB1
:10094E0031083D020318AC2CAD2CAF2C332D332DBA
:10095E000130B0003008C0074008053A031DB82C1E
:10096E00B92C922C332D332DC0010314C00D400829
:10097E00043A031DC32CC42CC62C332D332D400832
:10098E00B0003007173E84000A128A1500200A12A2
:10099E008A11B1000A128A1500200A128A11B200B9
:1009AE0032083E02031DDD2C31083D020318E02CF7
:1009BE00E12CE32C332D332D0130B0003008C0076D
:1009CE004008043A031DEC2CED2CC62C332D332D90
:1009DE00C0010314C00D4008063A031DF72CF82C75
:1009EE00FA2C332D332D4008B0003007013E840021
:1009FE000A128A1500200A128A11B1000A128A15EB
:100A0E0000200A128A11B20032083E02031D112D77
:100A1E0031083D020318142D152D172D332D332DAE
:100A2E000130B0003008C0074008063A031D202DE3
:100A3E00212DFA2C332D332D332D4108C039003A98
:100A4E000319872C403A0319EF2CC03A0319BB2C1B
:100A5E00403A0319872C332D4008803AB0003A08EB
:100A6E00803AB00203183C2D3D2D422D3A08B000BD
:100A7E003008C000512D3A08803AB0004008803A44
:100A8E00B00203184B2D4C2D512D4008B0003008EC
:100A9E00BA00512D3C083B040319562D572D6A2DD3
:100AAE0003304105B00000304205B100310830047A
:100ABE000319622D632D6A2DFF30BB070318BC0A84
:100ACE00FF30BC076A2D421F6D2D6E2D952D3A08F5
:100ADE00B000B101B01BB1033108803AB2003C083E
:100AEE00803A3202031D7D2D3B0830020318802D03
:100AFE00812D8F2D831203133A08B000B101B01B64
:100B0E00B1033008BB023108031CBC03BC02952D97
:100B1E0083120313BB01BC01952D952DC4304105E5
:100B2E00B00008304205B10008303106031DA12D7A
:100B3E0040303006031DA42DA52DB32D3C083B04DB
:100B4E000319AA2DAB2DE02DFF30BB070318BC0AED
:100B5E00FF30BC07E02DE02DC0304105B00008305D
:100B6E004205B10008303106031DBF2D803030061E
:100B7E00031DC22DC32DE02D3C08803AFF008030AE
:100B8E007F02031DCC2D03303B02031CCF2DD02D35
:100B9E00D92DFE3083120313BB070318BC0AFF3096
:100BAE00BC07E02D83120313BB01BC01E02DE02D29
:100BBE00E02D4008B000B101B01BB1033108803AFE
:100BCE00B2003C08803A3202031DEF2D3B08300282
:100BDE000318F22DF32D012E831203134008B000DB
:100BEE00B101B01BB1033008BB023108031CBC03BA
:100BFE00BC02062E83120313BB01BC01062E411D3F
:100C0E00092E0A2E792E03304105B0000030420520
:100C1E00B100310830040319152E162E1D2E2D305D
:100C2E000A128A15ED210A128A11592E411C202E04
:100C3E00212E282E20300A128A15ED210A128A1131
:100C4E00592EC030831203134105B00008304205FF
:100C5E00B10008303106031D362E80303006031DDC
:100C6E00392E3A2E592E30300A128A15ED210A12DB
:100C7E008A1183120313C11A452E462E4B2E78303D
:100C8E00B3000030B400502E5830B3000030B40022
:100C9E00502E33080A128A15ED210A128A11592E86
:100CAE00592E592E831203133C083B040319602E50
:100CBE00612EB42F622E30300A128A15ED210A12DF
:100CCE008A11FF3083120313BB070318BC0AFF30CF
:100CDE00BC073C083B04031D752E762E622EB42FE6
:100CEE00B42FB42F3C083B0403197E2E7F2E9A2E70
:100CFE00C119822E832E9A2E842E20300A128A1526
:100D0E00ED210A128A11FF3083120313BB07031859
:100D1E00BC0AFF30BC073C083B04031D972E982EDF
:100D2E00842E9A2E9A2E03304105B00000304205D3
:100D3E00B100310830040319A52EA62EAD2E2D308C
:100D4E000A128A15ED210A128A11B92E411CB02EF3
:100D5E00B12EB92E20300A128A15ED210A128A11EF
:100D6E00B92EB92EC030831203134105B0000830DE
:100D7E004205B10008303106031DC72E4030300643
:100D8E00031DCA2ECB2ED22E30300A128A15ED211B
:100D9E000A128A11B42FC030831203134105B0001A
:100DAE0008304205B10008303106031DE02E8030B8
:100DBE003006031DE32EE42EB42F30300A128A15AE
:100DCE00ED210A128A1183120313C11AEF2EF02E8F
:100DDE00F52E7830B5000030B600FA2E5830B5003A
:100DEE000030B600FA2E35080A128A15ED210A12C5
:100DFE008A11B42FB42FB42FB42F9C2F062F0A3084
:100E0E0083120313A8000030A9003A08B00030077F
:100E1E000D3E84000A128A1500200A128A11A000C3
:100E2E000A128A1500200A128A11A1003E08A30197
:100E3E00A3073D08A201A2070A128A15D0230A129F
:100E4E008A11831203132108AB01AB072008AA01F4
:100E5E00AA070A128A158A230A128A118312031309
:100E6E002808303EB1003108C000AD2FC11A402F06
:100E7E00412F462F8B30B0003008B7004B2F7A3001
:100E8E00B0003008B7004B2F3A08B0003007173EBD
:100E9E0084000A128A1500200A128A11A0000A1272
:100EAE008A1500200A128A11A1003E08A301A30789
:100EBE003D08A201A2070A128A15D0230A128A112E
:100ECE008312031320080F39370784000A128A157C
:100EDE0000200A128A11B1003108C000AD2F3A0865
:100EEE00B0003007013E84000A128A1500200A1253
:100EFE008A11A0000A128A1500200A128A11A10076
:100F0E003E08A301A3073D08A201A2070A128A15F3
:100F1E00D0230A128A118312031320080739303E98
:100F2E00B1003108C000AD2FAD2F8312031341085D
:100F3E00C039003A0319062F403A0319762FC03AEA
:100F4E0003193D2F403A0319062FAD2F40080A1200
:100F5E008A15ED210A128A11B42FFF308312031362
:100F6E00B0003008BA073A08FF3A031DBF2FC02F52
:100F7E009C2FC11DC32FC42FE92F3C08803AFF00C0
:100F8E0080307F02031DCD2F01303B02031CD02F7A
:100F9E00D12FE92FD22F20300A128A15ED210A12F5
:100FAE008A11FF3083120313BB070318BC0AFF30EC
:100FBE00BC073C083B04031DE52FE62FD22FE92F7B
:100FCE00E92FE92F013083120313B907FF303907D8
:100FDE0084000A128A1500200A128A11B000300805
:100FEE00C000C008031DFC2FFD2F3F2AFF2FFF2F2F
:100FFE00080008308A000408840A8207003401348D
:10100E0000340834003440340034003402340034E8
:10101E00103400348034013400340A340034643423
:10102E000034E834033410342734013400341034DF
:10103E0000340034013400341034533477346934BE
:10104E0074346334683465346434203474346F34E7
:10105E0020344D346F3464346534203431340034EC
:10106E002034203420342034203420345334793446
:10107E007334743465346D34203420342034203489
:10108E002034003420342034203420344D346F3456
:10109E006E34693474346F34723469346E34673438
:1010AE002034203420340034203461346E346434DF
:1010BE0020344834653461347234743420345234FC
:1010CE0061347434653420342034003442346F3447
:1010DE00643479342034543465346D34703465346A
:1010EE00723461347434753472346534203400349F
:1010FE0030343134323433343434353436343734A6
:10110E00383439344134423443344434453446342B
:10111E0000343034313432343334343435343634BC
:10112E00373438343934613462346334643465347A
:10113E0066340034203420342034203420342034DB
:10114E00203466346F34723420342034203420340A
:10115E0020342034003420342034203420345034D1
:10116E0061347434693465346E34743473342034B9
:10117E00203420342034003454343A342034203493
:10118E003834343446342034203420344C346F34E4
:10119E007734203420342034003448343A34203428
:1011AE00203436343234503450344D3420344C34B0
:0C11BE006F3477342034203420340034A7
:1013120064008001840A04060319003404068A2941
:101322004030831203139F008430831603139F00FF
:1013320008008312031390121016901010149011CB
:10134200B0308E003C308F00831603130C1408005B
:101352008B110B12831603138C130C130C128C16A5
:101362008C110C110C148C108B120D128D110D108E
:101372008B170B17080083120313A100A0013A3048
:1013820021020318C529C629D02930302102031CA5
:10139200CB29CC29D029A0010314A00DD029200CDF
:1013A200D229080083120313A300A201231CDA2905
:1013B200DB29E0292008A1002108A207E029031067
:1013C200A00D0310A30CA308031DE829E929D729BE
:1013D200EA292208EC29080083120313A300071547
:1013E2000630A200A20BF329640083120313230820
:1013F200A2002208DF000A128A1119200A128A1595
:10140200213083120313A200A20B052A08008312C3
:10141200031307110630F300F30B0D2A6400831245
:101422000313DF010314DF0D0A128A1508270A12BB
:101432008A150D30F400FB30F300F30B1E2AF40B77
:101442001E2A232A8312031307150800831203138B
:1014520098171813181683160313181398161812D0
:101462001815813099008C160C12831203139811EF
:101472000330A2008A30A1005630A000A00B3F2A00
:10148200A10B3F2AA20B3F2A462A0800831203130C
:1014920007110630A200A20B4C2A64008312031328
:1014A200DF010314DF0D0A128A1119200A128A15AC
:1014B2000D3083120313A300FB30A200A20B5F2A9C
:1014C200A30B5F2A642A8312031307150800FC0189
:1014D200EB0183134630840069300A128A15892190
:1014E2000A128A15A0308400BD300A128A15892199
:1014F2000A128A150A128A1117200A128A15E9009D
:101502000A128A1118200A128A15EA0083010A12A5
:101512008A111129FF3083160313850083120313E6
:101522008501C030831603138600831203138601DC
:1015320080308316031387008312031387010C3054
:1015420083160313880083120313880180308316E5
:101552000313890083120313890108008312031302
:10156200A401A501B42A201CB72AB82ABE2A22083F
:10157200A4070318A50A2308A50701300310A20D2A
:10158200A30DFF3E031DBF2A01300310A10CA00CC6
:10159200FF3E031DC62A21082004031DD12AD22A98
:1015A200B42AD32A2508A101A1072408A001A00773
:1015B200DA2A080083120313A100F92AE02A0C1E7A
:1015C200E32AE42AE02AE52A210884000A128A157D
:1015D20000200A128A1599000330A000A00BEF2AFE
:1015E200831203132108013EA0002008A100F92A5A
:1015F200210884000A128A1500200A128A1500386E
:10160200031D042B052BE02A062B0800831203136B
:10161200A6002608013A031D0F2B102B142B803035
:10162200A3002308A6002608023A031D192B1A2B31
:101632001F2BC030A3002308A6001F2B2208260759
:10164200FF3EA3002308A50007110630A300A30B49
:10165200282B6400831203132508A3002308DF004C
:101662000A128A1119200A128A150D3083120313E5
:10167200A400FB30A300A30B3C2BA40B3C2B412B5F
:1016820083120313A601A201080072087104031950
:101692004B2B4C2B822BF6010314F60D5C2B0130E5
:1016A2000310F10DF20DFF3E031D512B0130F50029
:1016B2007508F6075C2BF21F5F2B602B502B622BF9
:1016C200622B72087402031D682B71087302031CDB
:1016D2006B2B6C2B732B7108F3027208031CF4033F
:1016E200F402732B01300310F20CF10CFF3E031DC8
:1016F200742B0130F602031D7F2B802B622B822B71
:10170200822B7408F201F2077308F101F107892BA9
:10171200080083120313290828040319912B922B22
:10172200C82BAD010314AD0DA22B01300310A80D7F
:10173200A90DFF3E031D972B0130AC002C08AD070D
:10174200A22BA91FA52BA62B962BA82BA82B2908C9
:101752002B02031DAE2B28082A02031CB12BB22B2D
:10176200B92B2808AA022908031CAB03AB02B92B28
:1017720001300310A90CA80CFF3E031DBA2B013047
:10178200AD02031DC52BC62BA82BC82BC82B2B08BB
:10179200A901A9072A08A801A807CF2B08008312CC
:1017A2000313A501A601210820040319D92BDA2B62
:1017B200182CA7010314A70DEA2B01300310A00D6A
:1017C200A10DFF3E031DDF2B0130A4002408A70753
:1017D200EA2BA11FED2BEE2BDE2BF02BF02B013091
:1017E2000310A50DA60DFF3E031DF12B21082302B8
:1017F200031DFD2B20082202031C002C012C092CA6
:101802002008A2022108031CA303A3022514092C09
:1018120001300310A10CA00CFF3E031D0A2C013065
:10182200A702031D152C162CF02B182C182C260899
:10183200A101A1072508A001A0071F2C0800033061
:1018420083120313A0002008E8000430A00020083F
:10185200E4000230A0002008E3000630A0002008C7
:10186200E700332C0C1E362C372C332C382C68080E
:10187200303E9900F930A0006400A00B3D2C412CB1
:101882006400432C831203130C1E482C492C432C56
:101892004A2C6408303E9900F930A0006400A00B85
:1018A2004F2C532C6400552C831203130C1E5A2CFC
:1018B2005B2C552C5C2C0D309900F930A000640093
:1018C200A00B602C642C6400662C831203130C1E84
:1018D2006B2C6C2C662C6D2C6308303E9900F93011
:1018E200A0006400A00B722C762C6400782C83126A
:1018F20003130C1E7D2C7E2C782C7F2C6708303E27
:101902009900F930A0006400A00B842C882C64009C
:101912008A2C831203130C1E8F2C902C8A2C912C50
:101922000D309900F930A0006400A00B952C992C81
:10193200640008000C1C9E2C9F2C092D0130D90735
:101942000318DA0A0030DA070A3059065A04031D6E
:10195200AB2CAC2C032D0130DB070318DC0A003062
:10196200DC0740308806D901DA013C305B065C04B2
:10197200031DBC2CBD2C032D4C08CA01CA074B0801
:10198200C901C907CB01CC010130D7070318D80A16
:101992000030D8070A128A152E260A128A150A1250
:1019A2008A1508220A128A1583120313DB01DC014D
:1019B2001E30F1000030F2005808F401F407570815
:1019C200F301F3070A128A1546230A128A157108CF
:1019D200F700770883120313E600F02CF02C3C305A
:1019E20057065804031DF62CF72C032DD701D801F6
:1019F2000130D1070318D20A0030D207032D032D7C
:101A0200032D032D0C10B0308E003C308F00092DB9
:101A12008C1E0C2D0D2D422D1819102D112D342D2B
:101A22009818142D152D342D1A08F7007708E500A3
:101A32001A082A3A03191E2D1F2D252D14305D0276
:101A4200031C242D252D272DDD01272D1A08F70033
:101A52005D08A03E84007708831380000130F70000
:101A62007708DD07402D181218111A08F7007708B9
:101A7200E5001A08F7007708E5001816402D8C12C9
:101A8200422D981C452D462D512D18121A08F7008B
:101A92007708E5001A08F7007708E5001816512DB7
:101AA2007B08FF007A088A0079088400780E830098
:101AB200FE0E7E0E09008312031387110711881090
:101AC200071008148710871587118814071008104B
:101AD200871087158711A001A10109302102C430A6
:101AE20003192002031C762D772D792D882D882D40
:101AF2000130A0070318A10A0030A1070930210212
:101B0200C43003192002031C872D882D792D07115B
:101B1200881007100814871087158711881407107A
:101B22000810871087158711A001A1010930210231
:101B3200C43003192002031C9F2DA02DA22DB12D0C
:101B4200B12D0130A0070318A10A0030A107093006
:101B52002102C43003192002031CB02DB12DA22D85
:101B62000711881007100810871087158711881031
:101B720007140814871087158711A001A1010930E5
:101B82002102C43003192002031CC82DC92DCB2DFC
:101B9200DA2DDA2D0130A0070318A10A0030A107BF
:101BA20009302102C43003192002031CD92DDA2D79
:101BB200CB2D071188100710081087108715871181
:101BC200881407140810871487158711A001A10132
:101BD20009302102C43003192002031CF12DF22D19
:101BE200F42D032E032E0130A0070318A10A0030A2
:101BF200A10709302102C43003192002031C022E5E
:101C0200032EF42D0711881007100810871087156E
:101C12008711881007100810871487158711A001F3
:101C2200A10109302102C43003192002031C1A2E1B
:101C32001B2E1D2E2D2E2D2E0130A0070318A10ABA
:101C42000030A10709302102C43003192002031C0D
:101C52002B2E2C2E1D2E2D2E0800831203138711DE
:101C62000711881007100814871087158711881428
:101C720007100810871087158711F101F20109304A
:101C82007202C43003197102031C482E492E4B2ED6
:101C92005A2E5A2E0130F1070318F20A0030F207C9
:101CA20009307202C43003197102031C592E5A2ED4
:101CB2004B2E831203130711881007100814871084
:101CC2008715871188140710081087108715871148
:101CD200F101F20109307202C43003197102031CCE
:101CE200732E742E762E852E852E0130F107031861
:101CF200F20A0030F20709307202C430031971028D
:101D0200031C842E852E762E83120313071188104E
:101D120007100810871087158711881007140814F8
:101D2200871087158711F101F20109307202C43060
:101D320003197102031C9E2E9F2EA12EB02EB02ECF
:101D42000130F1070318F20A0030F207093072027B
:101D5200C43003197102031CAF2EB02EA12E8312C0
:101D620003130711881007100810871087158711B1
:101D7200881407140810871487158711F101F201DE
:101D820009307202C43003197102031CC92ECA2E13
:101D9200CC2EDB2EDB2E0130F1070318F20A0030C5
:101DA200F20709307202C43003197102031CDA2EE1
:101DB200DB2ECC2E83120313071188100710081094
:101DC2008710871587118810071008108714871548
:101DD2008711F101F20109307202C4300319710254
:101DE200031CF42EF52EF72E072F072F0130F107D3
:101DF2000318F20A0030F20709307202C4300319E4
:101E02007102031C052F062FF72E072F08008312DD
:101E120003135F08F10004300310F10CFF3E031DB1
:101E22000D2F7108F2007208E0005F08F100033024
:101E32000310F10DFF3E031D192F0310710DF20067
:101E42007208E1006108F10004300310F10CFF3E5A
:101E5200031D262F7108F2007208E1007C105F1C3E
:101E6200332F7C14831203135F08F1000130031037
:101E7200F10CFF3E031D382FFC10711C412FFC1486
:101E8200831203135F08F10002300310F10CFF3ECE
:101E9200031D462F7C11711C4F2F7C1583120313D7
:101EA2005F08F10003300310F10CFF3E031D542FB5
:101EB200FC11711C5D2FFC15831203135F08F100E6
:101EC20004300310F10CFF3E031D622F7C12711CC3
:101ED2006B2F7C16831203135F08F1000530031089
:101EE200F10CFF3E031D702FFC12711C792FFC16A2
:101EF200831203135F08F10006300310F10CFF3E5A
:101F0200031D7E2F7C13711C872F7C1783120313F2
:101F12005F08F10007300310F10CFF3E031D8C2F08
:101F2200FC13711C952FFC17831203138711640095
:101F320083120313871564007C1AA02FA42F831227
:101F420003138714A72F831203138710FC1AAA2FD7
:101F5200AE2F831203130814B12F83120313081038
:101F62007C1BB42FB82F831203130714BB2F8312C9
:101F720003130710FC1BBE2FC22F831203138814F6
:101F8200C52F831203138810640083120313871171
:101F920064008312031387116400831203138715ED
:101FA20064007C18D52FD92F831203138714DC2FDA
:101FB200831203138710FC18DF2FE32F83120313FE
:101FC2000814E62F8312031308107C19E92FED2F52
:101FD200831203130714F02F831203130710FC1943
:101FE200F32FF72F831203138814FA2F831203138C
:0E1FF200881064008312031387116400080036
:00000001FF
