:060000000A128A1110280B
:10000800FE00030E83120313A2000408A3000A08CB
:10001800A4000A168A11312B0A128A111328A0305B
:10002800FD01D801D101D201D301D401D501D601F6
:10003800D70183138400CA300A168A11B92083169F
:100048000130E10083010A128A113A2E0A168A1138
:1000580005260A128A110130A601A60A0A128A1573
:100068001A220A128A117B300A128A151B200A12D8
:100078008A110230A601A60A0A128A151A220A1241
:100088008A119D300A128A151B200A128A110A1237
:100098008A1562200A128A111430C82C0A168A118D
:1000A80005260A128A1183163C088312B4008316A7
:1000B8003B088312B3000A128A15D6240A128A1141
:1000C800AE300A168A1112230A128A115408B40093
:1000D8005308B3000A128A15D6240A128A11AE30C0
:1000E8000A168A1112230A128A11831649088312E2
:1000F800B400831648088312B3000A128A15D6245E
:100108000A128A11AE300A168A1112230A128A11AB
:10011800831647088312B400831646088312B30077
:100128000A128A15D6240A128A11AE300A168A11C2
:1001380012230A128A110A168A15FE230A128A1134
:10014800413083120313CF00EE30CE00CE0BAA2825
:10015800CF0BAA2800000A168A116D210A128A11EB
:10016800CD30B0000C30B1003F30B20083164408E7
:100178008312AE00831643088312AD000A168A1153
:10018800A7270A128A112D08B3002E08B4002F08D9
:10019800B5000A168A119D250A128A11300883169D
:1001A800D300831231088316D400831232088316D1
:1001B800D50053088312C100831654088312C20065
:1001C800831655088312C3000A168A114C270A128F
:1001D8008A1142088316DF00831241088316DE0065
:1001E80083120730B301B30AB401B5006430B60115
:1001F800AB00AC0183165F088312AE0083165E085D
:100208008312AD000A128A151E270A128A112B08BA
:10021800303EB7000A128A15F5200A128A11831295
:1002280003130830B301B30AB401B5000A30B601AC
:10023800AB00AC0183165F088312A80083165E0822
:100248008312A7006430A500A6010A128A15632745
:100258000A128A112608AE002508AD000A128A156E
:100268001E270A128A112B08303EB7000A128A1577
:10027800F5200A128A11831603135F088312A80057
:1002880083165E088312A7006430A500A6010A122F
:100298008A1563270A128A1126088316DB0083123F
:1002A80025088316DA0083120930B301B30AB401B2
:1002B800B5000A30B601A500A60183165B088312B3
:1002C800A80083165A088312A7000A128A15632702
:1002D8000A128A112508303EB7000A128A15F5203D
:1002E8000A128A11023083120313B3000A30B401D0
:1002F800B501B50AB601A500A601A7018316340801
:100308008312A800831635088312A90083163608BD
:100318008312AA000A168A1562240A128A1125086D
:10032800303EB7000A128A15F5200A128A110230E7
:1003380083120313B300B401B5000A30B601A50057
:10034800A601A701831634088312A800831635086E
:100358008312A900831636088312AA000A168A1582
:1003680031240A128A112508303EB7000A128A156C
:10037800F5200A128A11023083120313B3000430E5
:10038800B401B5003030B601B7000A128A15F5205D
:100398000A128A11023083120313B3000730B40122
:1003A800B5003030B601B7000A128A15F5200A12D6
:1003B8008A11023083120313B3000930B401B50067
:1003C8003030B601B7000A128A15F5200A128A11D0
:1003D800023083120313B3000C30B401B50030307F
:1003E800B601B7000A128A15F5200A128A110230DE
:1003F80083120313B3000D30B401B5003030B601D9
:10040800B7000A128A15F5200A128A1102308312DF
:100418000313B3000F30B401B5003030B601B70094
:100428000A128A15F5200A128A1100308312031362
:100438005202063003195102031C8D2A0030520261
:1004480013300319510203188D2A5C30B2000F30A3
:10045800B3003F30B4005108FA3E0A128A15002052
:100468000A128A110A168A118D250A128A112D0874
:10047800B5002E08B6002F08B7000A168A11D12633
:100488000A128A1132088316CA00831233088316A7
:10049800CB00831234088316CC004A088312C100AB
:1004A80083164B088312C20083164C088312C300BC
:1004B8000A168A114C270A128A1142088316CE009E
:1004C800831241088316CD00831644084E06031D87
:1004D8006F2A43084D0603198D2A4E084402031D4E
:1004E800772A4D0843020318832A8312A501A50A17
:1004F800A6010A168A1543250A128A11682A831248
:10050800A501A50AA6010A168A158F250A128A11BD
:10051800682A0A168A11DD200A128A11DE2D013096
:10052800A601A60A0A128A151A220A128A118C3002
:100538000A128A151B200A128A110230A601A60A7D
:100548000A128A151A220A128A119D300A128A156D
:100558001B200A128A110A128A1562200A128A11AD
:100568001E30C82C0A168A1105260A128A1183160B
:100578003C088312B40083163B088312B3000A12A6
:100588008A15D6240A128A11AE300A168A11122345
:100598000A128A115408B4005308B3000A128A15C3
:1005A800D6240A128A11AE300A168A1112230A12A8
:1005B8008A11831649088312B400831648088312E7
:1005C800B3000A128A15D6240A128A11AE300A1606
:1005D8008A1112230A128A11831647088312B4005B
:1005E800831646088312B3000A128A15D6240A1203
:1005F8008A11AE300A168A1112230A128A110A16B3
:100608008A15FE230A128A11413083120313CF0080
:10061800EE30CE00CE0B0E2BCF0B0E2B00000A16A1
:100628008A116D210A128A11CD30B0000C30B10048
:100638003F30B200831644088312AE008316430885
:100648008312AD000A168A11A7270A128A112D08EB
:10065800B3002E08B4002F08B5000A168A119D258C
:100668000A128A1130088316D300831231088316C0
:10067800D400831232088316D50053088312C100B0
:10068800831654088312C200831655088312C300C8
:100698000A168A114C270A128A1142088316DF00AB
:1006A800831241088316DE0083120730B301B30AB0
:1006B800B401B5006430B601AB00AC0183165F0825
:1006C8008312AE0083165E088312AD000A128A15E3
:1006D8001E270A128A112B08303EB7000A128A1503
:1006E800F5200A128A11831203130830B301B30AE2
:1006F800B401B5000A30B601AB00AC0183165F083F
:100708008312A80083165E088312A7006430A50030
:10071800A6010A128A1563270A128A112608AE0052
:100728002508AD000A128A151E270A128A112B08FD
:10073800303EB7000A128A15F5200A128A1183166C
:1007480003135F088312A80083165E088312A700AC
:100758006430A500A6010A128A1563270A128A11B5
:1007680026088316DB00831225088316DA00831215
:100778000930B301B30AB401B5000A30B601A500C7
:10078800A60183165B088312A80083165A088312F1
:10079800A7000A128A1563270A128A112508303E13
:1007A800B7000A128A15F5200A128A11023083123C
:1007B8000313B3000A30B401B501B50AB601A500A8
:1007C800A601A701831634088312A80083163508EA
:1007D8008312A900831636088312AA000A168A15FE
:1007E80062240A128A112508303EB7000A128A15B7
:1007F800F5200A128A11023083120313B300B401E0
:10080800B5000A30B601A500A601A7018316340871
:100818008312A800831635088312A90083163608A8
:100828008312AA000A168A1531240A128A11250889
:10083800303EB7000A128A15F5200A128A110230D2
:1008480083120313B3000430B401B5003030B6018D
:10085800B7000A128A15F5200A128A11023083128B
:100868000313B3000730B401B5003030B601B70048
:100878000A128A15F5200A128A110230831203130C
:10088800B3000930B401B5003030B601B7000A1220
:100898008A15F5200A128A11023083120313B30055
:1008A8000C30B401B5003030B601B7000A128A1511
:1008B800F5200A128A11023083120313B3000D3097
:1008C800B401B5003030B601B7000A128A15F52018
:1008D8000A128A11023083120313B3000F30B401D5
:1008E800B5003030B601B7000A128A15F5200A1291
:1008F8008A110A168A1172210A128A118316E000D7
:10090800413A031D912C8312A501A50AA6010A16D6
:100918008A1543250A128A11DE2D42306006031D0E
:100928009F2C8312A501A50AA6010A168A158F25F0
:100938000A128A11DE2D2A306006031DDE2D0430CE
:100948008312DD2D0130A601A60A0A128A151A2281
:100958000A128A1159300A128A151B200A128A11A2
:100968000230A601A60A0A128A151A220A128A1148
:100978009D300A128A151B200A128A110A128A153A
:1009880062200A128A11283083120313DD2D0A16F9
:100998008A1172210A128A118316E0002A3A031D6D
:1009A800AC2DB90A0319BA0A00303A020530031906
:1009B8003902031CE22CB901B90ABA0139088312B9
:1009C800D700871401300A168A1112230A128A11D5
:1009D8005708B300B4010A128A15EF250A128A11C2
:1009E8008312031387100A168A116D210A128A11BD
:1009F8000A168A116D210A128A110A168A116D21A6
:100A08000A128A110A168A116D210A128A110A1607
:100A18008A116D210A128A110A168A116D210A1289
:100A28008A110A168A116D210A128A110A168A1168
:100A38006D210A128A110A168A116D210A128A1169
:100A48000A168A116D210A128A110A168A116D2155
:100A58000A128A110A168A116D210A128A110A16B7
:100A68008A116D210A128A110A168A116D210A1239
:100A78008A110A168A116D210A128A110A168A1118
:100A88006D210A128A110A168A116D210A128A1119
:100A98000A168A116D210A128A110A168A116D2105
:100AA8000A128A110A168A116D210A128A110A1667
:100AB8008A116D210A128A110A168A116D210A12E9
:100AC8008A110A168A116D210A128A110A168A11C8
:100AD8006D210A128A110A168A116D210A128A11C9
:100AE8000A168A116D210A128A110A168A116D21B5
:100AF8000A128A110A168A116D210A128A110A1617
:100B08008A116D210A128A110A168A116D210A1298
:100B18008A110A168A116D210A128A110A168A1177
:100B28006D210A128A110A168A116D210A128A1178
:100B38000A168A116D210A128A110A168A116D2164
:100B48000A128A110A168A116D210A128A11DE2DDB
:100B580043306006031DC52D8312871401300A1621
:100B68008A1112230A128A115708B300B4010A1213
:100B78008A15EF250A128A11831203138710603031
:100B8800DD2D44306006031DDE2D831287140130ED
:100B98000A168A1112230A128A115708B300B401DF
:100BA8000A128A15EF250A128A1183120313871075
:100BB8005F30D700831203135708003A0319DE2D5C
:100BC800013A0A128A110319BA2E0A128A11033A33
:100BD8000319312E013A0319282E073A03191F2E3B
:100BE8000E3A0319342E1E3A031952280A3A0319E9
:100BF800B62A363A0319CB2C013A0319222E033AA6
:100C080003192B2E703A0319DE2D013A0319372EDA
:100C1800073A03192A28013A0319932A033A0319B0
:100C2800A62C013A0319252E3F3A03192E2EDE2D44
:100C38000A128A1110280A128A11C22E0A128A115F
:100C4800E82E0A128A11C42E0A128A11C02E0A121C
:100C58008A15812A0A128A155B2A0A128A11BE2E5F
:100C68000A168A152E2E0A168A15092E0A168A15AC
:100C780017240A128A110A128A11FA270A128A11EB
:100C88000A168A159B240A128A110A128A15462006
:100C98000A128A110A168A11C1200A128A110A1622
:100CA8008A15D0230A128A110A168A15ED230A1208
:100CB8008A110A168A159B240A128A110A128A15A1
:100CC80046200A128A115B30D700051E792E83163A
:100CD800C301C30AC4018312A501A50AA6010A1605
:100CE8008A158F250A128A11692E8316C301C40139
:100CF8000A168A116D210A128A11D101D2018316AE
:100D0800BD01BE01831258150A128A1562200A1203
:100D18008A110A168A116D210A128A118316D801BE
:100D2800D9015908803AFF0080307F02031D9E2EAA
:100D38000C3058020A128A110318DE2D0F30831264
:100D48000313A500831658080A168A15DE230A120B
:100D58008A11A800831658080A128A11DA270A127B
:100D68008A110313D80A0319D90A952E5B300A127F
:100D78008A11DD2D5C30BB2E5D30BB2E5E30BB2E64
:100D88000A128A1546200A128A1101305811A60142
:100D9800A60A0A128A151A220A128A1126300A127B
:100DA8008A151B200A128A110230A601A60A0A1205
:100DB8008A151A220A128A1115300A128A151B205E
:100DC8000A128A112930BB2E5811D81683120A121A
:100DD8008A15D81E422A0A168A1172210A128A1105
:100DE8008316E00030306002031CEA2E33306002C4
:100DF8000318EA2E60088312A500D030A601A507C3
:100E0800031CA6030A30A700A8010A168A11B826EF
:100E18000A128A1126088316D00083122508831621
:100E2800CF0002308312B3000730B401B500B60119
:100E3800831660088312B7000A128A15F5200A1271
:100E48008A1183120313D81EEA2E0A168A117221F8
:100E58000A128A118316E00030306002031C252F25
:100E68003A3060020318252F60084F078312CE001E
:100E7800831650080318500A8312CF004E08D03E3C
:100E88008316CF0083124F080318013EFF3E8316D6
:100E9800D00002308312B3000830B401B500B601A7
:100EA800831660088312B7000A128A15F5200A1201
:100EB8008A11403083160313E0008312D81E252FB1
:100EC8000A168A1172210A128A118316E00030303C
:100ED8006002031C612F363060020318612F60081E
:100EE8008312A500D030A601A507031CA6030A306B
:100EF800A700A8010A168A11B8260A128A1126081C
:100F08008316D200831225088316D100023083127B
:100F1800B3000A30B401B500B60183166008831225
:100F2800B7000A128A15F5200A128A114030831672
:100F38000313E0008312D81E612F0A168A1172214A
:100F48000A128A118316E00030306002031C9E2FBB
:100F58003A30600203189E2F02308312B3000B3020
:100F6800B401B500B601831660088312B7000A12EF
:100F78008A15F5200A128A1183160313600851078F
:100F88008312CE00831652080318520A8312CF0028
:100F98004E08D03E8316D10083124F080318013E35
:100FA800FF3E8316D2008312D8129A2F8312A9000B
:100FB800831603178C18DC2F8312031329080317D1
:100FC8008D000313280803178C003F3083168C0507
:100FD80003108B1B03148B130C1555308D00AA308E
:100FE8008D008C140C1103188B17080042309F00D9
:100FF800843083169F0008008312A50005288312F9
:1010080003136400831603178C1803288312031331
:10101800250803178D003F3083168C050C14031028
:101028000C1803140318013083120C0808008312EB
:101038000313A900831203132908A90A84000A16B6
:101048008A1100200A128A15A80028080319080026
:10105800280831200A128A151E28A700071506300D
:10106800A600A60B35280000831203132708D60014
:101078005F210A128A15213083120313A600A60BDA
:101088004328080007110630A600A60B49280000CF
:1010980083120313D601D60A5F210A128A150D306E
:1010A80083120313A700FB30A600A60B5928A70B31
:1010B80059285E2883120313071508000C30B30162
:1010C800B30AB401B5000A30B601A500A60152085A
:1010D800A8005108A70011210A128A152508303ED8
:1010E800B700F5200A128A150D3083120313BA00CF
:1010F800FB30B900B90B7E28BA0B7E2883288312EF
:1011080003130D30B301B30AB401B5000A30B601B8
:10111800A500A6015208A8005108A7003B210A1201
:101128008A152508303EB700F5200A128A150D30B9
:1011380083120313BA00FB30B900B90BA128BA0B0C
:10114800A128A628831203130F30B301B30AB401F0
:10115800B5000A30B601A500A60183163E08831221
:10116800A80083163D088312A70011210A128A15C8
:101178002508303EB700F5200A128A150D30831273
:101188000313BA00FB30B900B90BC828BA0BC8283A
:10119800CD28831203131030B301B30AB401B5008C
:1011A8000A30B601A500A60183163E088312A800DE
:1011B80083163D088312A7003B210A128A152508C9
:1011C800303EB700F5200A128A150D30831203133A
:1011D800BA00FB30B900B90BEF28BA0BEF28F42896
:1011E80008003508A60033081A220A128A15831245
:1011F800031307150630B800B80B00290000831246
:1012080003133708D6005F210A128A15213083128A
:101218000313B800B80B0E290800AA01AB01250872
:10122800260403193629A901A90AA61B1F29031098
:10123800A50DA60D18290310AA0DAB0D2608280226
:10124800031D282925082702031C32292508A7027F
:101258002608031CA803A8022A140310A60CA50C30
:10126800A90B1F292B08A6002A08A5000800250895
:10127800260403195A29A901A90AA61B47290310FC
:10128800A50DA60D402926082802031D4D2925086D
:101298002702031C56292508A7022608031CA803B1
:1012A800A8020310A60CA50CA90B47292808A6001C
:1012B8002708A50008007D1056187D148312031313
:1012C8005608A5000310A50CFD102518FD1483125F
:1012D80003135608A5000310A50C0310A50C7D11D7
:1012E80025187D15831203135608A5000310A50CB5
:1012F8000310A50C0310A50CFD112518FD1583126C
:1013080003135608A50004300310A50CFF3E031D67
:1013180088297D1225187D16831203135608A50007
:1013280005300310A50CFF3E031D9529FD12251855
:10133800FD16831203135608A50006300310A50CEA
:10134800FF3E031DA2297D1325187D178312031361
:101358005608A50007300310A50CFF3E031DAF2952
:101368005812251858168312031387110000831288
:101378000313871500007D1EC529831203138714E4
:10138800C829831203138710FD1ECE298312031365
:101398000814D1298312031308107D1FD72983123B
:1013A80003130714DA29831203130710581EE029C0
:1013B800831203138814E32983120313881000008F
:1013C800831203138711000083120313871100008F
:1013D80083120313871500007D1CF629831203135B
:1013E8008714F929831203138710FD1CFF29831220
:1013F80003130814022A8312031308107D1D082AF8
:101408008312031307140B2A831203130710FD1DFD
:10141800112A831203138814142A831203138810C1
:10142800000083120313871100000800AA002A0B8A
:101438001F2A8030AA0002302A06031D252AC03040
:10144800AA0026082A07FF3EA90007110630A700B0
:10145800A70B2C2A0000831203132908D6005F214A
:101468000A128A150D3083120313A800FB30A70057
:10147800A70B3C2AA80B3C2A412A080083165008CF
:101488008312D20083164F088312D10083165208A4
:10149800BE005108BD008312D701D70A58150A1299
:1014A8008A1562200A128A150A128A11DE2D0A127A
:1014B8008A1546200A128A1501305811A601A60A73
:1014C8000A128A151A220A128A1548300A128A152F
:1014D8001B200A128A150230A601A60A0A128A15CA
:1014E8001A220A128A1537300A128A151B200A1284
:1014F8008A152A300A128A11DD2D0C3058118316EC
:10150800B700B8018312D815831637080C3C0A12A5
:101518008A1500200A128A1583160313DC0002308C
:10152800DD018312B3000930B401B5006430B6019F
:10153800AB00AC0183165D088312AE0083165C080D
:101548008312AD000A128A151E270A128A152B0863
:10155800303EB7000A128A15F5200A128A150230A1
:1015680083120313B3000A30B401B500B601AB000F
:10157800AC0183165D088312A80083165C088312E9
:10158800A7006430A500A6010A128A1563270A126B
:101598008A152608AE002508AD000A128A151E27EE
:1015A8000A128A152B08303EB7000A128A15F52050
:1015B8000A128A15831603135D088312A80083167E
:1015C8005C088312A7006430A500A6010A128A15D8
:1015D80063270A128A1526088316DB00831225085A
:1015E8008316DA0002308312B3000B30B401B50061
:1015F8000A30B601A500A60183165B088312A8006D
:1016080083165A088312A7000A128A1563270A123A
:101618008A152508303EB7000A128A15F5200A12E5
:101628008A1583160313370838040A168A1503190E
:10163800022E0A168A1172210A128A158316E000F0
:1016480030306002031CD32C3A3060020318D32CCC
:1016580002308312B3000930B401B500B601831615
:1016680060088312B7000A128A15F5200A128A1533
:101678008316031360088312A500D030A601A507BE
:10168800031CA6036430A700A8010A168A11B8260D
:101698000A128A1526088316D7008312250883168E
:1016A800D6004030E0008312D81DD32C0A168A11C8
:1016B80072210A128A158316E00030306002031C7A
:1016C800572B3A3060020318572B02308312B300AD
:1016D8000A30B401B500B601831660088312B7005A
:1016E8000A128A15F5200A128A1583160313600850
:1016F8008312A5000A30A601A700A8010A168A11BC
:10170800B8260A128A158316560883122507CE00B2
:10171800831657080318570A83122607CF004E0866
:10172800203E8316D60083124F080318013EFE3E62
:101738008316D70040308316E0008312D81D572B3C
:101748000A168A1172210A128A158316E0003030AF
:101758006002031CA12B3A3060020318A12B02304F
:101768008312B3000B30B401B500B60183166008CC
:101778008312B7000A128A15F5200A128A158312F5
:1017880003130930B301B30AB401B5001330B6012D
:10179800AD00AE01831637088312AD0283163808F0
:1017A8008312031CAE03AE020A30AB00AC010A126E
:1017B8008A151E270A128A152B08303EB7000A120E
:1017C8008A15F5200A128A15831203130A30B30109
:1017D800B30AB401B5001330B601A700A8018316F7
:1017E80037088312A702831638088312031CA8033C
:1017F800A8020A30A500A6010A128A1563270A1250
:101808008A152508303EB7000A128A15F5200A12F3
:101818008A15063083120313D0001330CF00B1307D
:10182800CE00CE0B152CCF0B152CD00B152C1C2C49
:1018380083160313600856078312CE0083165708D1
:101848000318570A8312CF004E08D03E8316D600DD
:1018580083124F080318013EFF3E8316D70056082F
:101868008312A800831637080C3C0A128A11DA275B
:101878000A128A15FF300313B707031CB803370889
:101888000C3C0A128A1500200A128A1583160313C3
:10189800DC000230DD018312B3000930B401B50069
:1018A8006430B601AB00AC0183165D088312AE004C
:1018B80083165C088312AD000A128A151E270A12C5
:1018C8008A152B08303EB7000A128A15F5200A122D
:1018D8008A15023083120313B3000A30B401B5002D
:1018E800B601AB00AC0183165D088312A80083160D
:1018F8005C088312A7006430A500A6010A128A15A5
:1019080063270A128A152608AE002508AD000A12B8
:101918008A151E270A128A152B08303EB7000A12AC
:101928008A15F5200A128A15831603135D08831297
:10193800A80083165C088312A7006430A500A601DE
:101948000A128A1563270A128A1526088316DB00ED
:10195800831225088316DA0002308312B3000B3095
:10196800B401B5000A30B601A500A60183165B08CC
:101978008312A80083165A088312A7000A128A1530
:1019880063270A128A152508303EB7000A128A15FD
:10199800F5200A128A1583120313D8119E2B83127D
:1019A800D815152BB41FE72C0C1ED82C2D309900F8
:1019B8000330B500B50BDE2C83120313B309B40949
:1019C800B30A0319B40A3408803AFF00A7307F022B
:1019D800031DF02C10303302031C682D83120313EF
:1019E8000C1EF22C1030AB002730AC003408AE00CF
:1019F8003308AD001E270A128A152B08303E9900BD
:101A08000330B500B50B062DF9270A128A153408DC
:101A1800A8003308A70063270A128A152608B4000D
:101A28002508B3000C1E162DD7270A128A151E2763
:101A38000A128A152B08303E99000330B500B50B01
:101A4800232DB2270A128A1563270A128A15260837
:101A5800B4002508B3000C1E2F2DBD270A128A15C5
:101A68001E270A128A152B08303E99000330B5004C
:101A7800B50B3C2D6430A0270A128A1563270A1279
:101A88008A152608B4002508B3000C1E492D0A3013
:101A9800AB00AC013408AE003308AD001E270A12B3
:101AA8008A152B08303E99000330B500B50B5A2D26
:101AB8000A30A0270A128A1563270A128A152608EF
:101AC800B4002508B300E32D831203133408803AC9
:101AD800FF0083307F02031D732DE8303302031C9F
:101AE800AD2D831203130C1E752DD7270A128A15E4
:101AF8001E270A128A152B08303E99000330B500BC
:101B0800B50B842DB2270A128A1563270A128A1583
:101B18002608B4002508B3000C1E902DBD270A1214
:101B28008A151E270A128A152B08303E99000330A1
:101B3800B500B50B9D2D6430A0270A128A156327BE
:101B48000A128A152608B4002508B3000C1A4B2D72
:101B5800AA2DE9270A128A15031DB42D6430330211
:101B6800031CD52D831203130C1EB62DBD270A1294
:101B78008A151E270A128A152B08303E9900033051
:101B8800B500B50BC52D6430A0270A128A15632746
:101B98000A128A152608B4002508B3000C1A4B2D22
:101BA800D22DE9270A128A15031DDC2D0A303302CB
:101BB800031CE32D831203130C1A4B2DDE2D831205
:101BC80003130C1EE32D3308303E99000330B50093
:101BD800B50BEC2D0800B41F002E0C1EF12D2D3076
:101BE80099000330B500B50BF72D83120313B30921
:101BF800B409B30A0319B40A3408803AFF00A730BD
:101C08007F02031D092E10303302031C822E83121B
:101C180003130C1E0B2E1030AB002730AC00340819
:101C2800AE003308AD001E270A128A152B08303E75
:101C380099000330B500B50B1F2EF9270A128A1533
:101C48003408A8003308A70063270A128A15260853
:101C5800B4002508B3000C1E2F2EE0270A128A159F
:101C68001E270A128A152B08303E99000330B5004A
:101C7800B50B3C2EE830CD270A128A1563270A12C5
:101C88008A152608B4002508B3000C1E492EC5275E
:101C98000A128A151E270A128A152B08303E990047
:101CA8000330B500B50B562E6430A9270A128A15E1
:101CB80063270A128A152608B4002508B3000C1EEB
:101CC800632E0A30AB00AC013408AE003308AD0017
:101CD8001E270A128A152B08303E99000330B500DA
:101CE800B50B742E0A30A9270A128A1563270A121F
:101CF8008A152608B4002508B300FE2E83120313A4
:101D08003408803AFF0083307F02031D8D2EE830AF
:101D18003302031CC82E831203130C1E8F2EE027D8
:101D28000A128A151E270A128A152B08303E9900B6
:101D38000330B500B50B9E2EE830CD270A128A1560
:101D480063270A128A152608B4002508B3000C1E5A
:101D5800AB2EC5270A128A151E270A128A152B08C8
:101D6800303E99000330B500B50BB82E6430A92772
:101D78000A128A1563270A128A152608B40025084C
:101D8800B3000C1A652EC52EF1270A128A15031DF9
:101D9800CF2E64303302031CF02E831203130C1E63
:101DA800D12EC5270A128A151E270A128A152B0852
:101DB800303E99000330B500B50BE02E6430A927FA
:101DC8000A128A1563270A128A152608B4002508FC
:101DD800B3000C1A652EED2EF1270A128A15031D81
:101DE800F72E0A303302031CFE2E831203130C1A3B
:101DF800652EF92E831203130C1EFE2E3308303E77
:101E080099000330B500B50B072F831203130C1E7E
:101E1800092F0D3099000330B500B50B112F83122F
:101E280003130C1E132F0A3099000330B500B50BAD
:101E38001B2F0800B001AC1F282FAB09AC09AB0A57
:101E48000319AC0AB001B00AAE1F312FAD09AE09B3
:101E5800AD0A0319AE0A0130B006B101B2012B0870
:101E68002C040319562FAF01AF0AAC1B3F2F0310E8
:101E7800AB0DAC0D382F0310B10DB20D2C082E028E
:101E8800031D482F2B082D02031C522F2B08AD02CF
:101E98002C08031CAE03AE0231140310AC0CAB0CBF
:101EA800AF0B3F2F300803195E2FB109B209B10AF1
:101EB8000319B20A3208AC003108AB000800AA01C5
:101EC800A81F6D2FA709A809A70A0319A80AAA011C
:101ED800AA0AA61F742FA509A609A50A0319A60A06
:101EE800250826040319932FA901A90AA61B802FE8
:101EF8000310A50DA60D792F26082802031D862F8D
:101F080025082702031C8F2F2508A7022608031C73
:101F1800A803A8020310A60CA50CA90B802F2A0859
:101F280003199B2FA709A809A70A0319A80A2808B3
:101F3800A6002708A500080083120313A500A60120
:101F48003408A8003308A700080083120313A5006B
:101F5800A6013408A8003308A7000800E830831257
:101F68000313A5000330A6003408A8003308A7000F
:101F780008006430AB00AC013408AE003308AD0093
:101F880008006430AB00AC013408AE003308AD0083
:101F9800080083120313A5000330A6003408A80024
:101FA8003308A7000800E830AB000330AC00340861
:101FB800AE003308AD000800E830AB000330AC00D9
:101FC8003408AE003308AD00080083120313340848
:101FD800803AFF0080307F02080083120313340820
:101FE800803AFF0080307F0208001030831203130C
:101FF800A5002730A600080010308A000408840ACB
:102008008207003453347734693474346334683461
:1020180065346434203474346F3420344D346F3470
:102028006434653420343A34203400342034203485
:102038002034203420342034303430343A343034AE
:1020480030342034203420342034203400345434C4
:1020580049344D3445343A342034483448343A34D9
:102068004D344D342034203420342034203400348E
:1020780041346E3467346C34653420342D34203464
:102088003034303430344434203420342034203454
:102098000034543469346D346534203420342D349C
:1020A8002034303436343A34303430342034203428
:1020B800203400344D344F34443445342A342C34DD
:1020C80030343034303444342C34303430343A34CE
:1020D8003034303400344D344F34443445343134A2
:1020E8002C3430343034303444342C3430343034BC
:1020F8003A343034303400344D344F344434453479
:1021080032342C3430343034303444342C34303499
:1021180030343A343034303400344D344F3444346D
:10212800453433342C3430343034303444342C3463
:10213800303430343A34303430340034303430349D
:102148002E34303456342C3430342E343034413438
:102158002C34303430342E343034573400342C346A
:0421680020340034EB
:1021720064008001840A0406031900340406BA28A4
:10218200981718131816831618139816181218157C
:10219200813099008C160C12831298110330A7001B
:1021A2008A30A6005630A500A50BD528A60BD52847
:1021B200A70BD528DC28080072210A168A11B6005E
:1021C2002A3A031D08008316B90A0319BA0A003015
:1021D2003A02053003193902031CF228B901B90A7F
:1021E200BA0139088312D700871401301223570825
:1021F200B300B4010A128A15EF250A168A11831256
:10220200031387106D210A168A116D210A168A118D
:102212006D210A168A116D210A168A116D210A167C
:102222008A116D210A168A116D210A168A116D21F1
:102232000A168A116D210A168A116D210A168A114F
:102242006D210A168A116D210A168A116D210A164C
:102252008A116D210A168A116D210A168A116D21C1
:102262000A168A116D210A168A116D210A168A111F
:102272006D210A168A116D210A168A116D210A161C
:102282008A116D210A168A116D210A168A116D2191
:102292000A168A116D210A168A116D210A168A11EF
:1022A2006D210A168A116D210A168A116D210A16EC
:1022B2008A116D210A168A116D210A168A116D2161
:1022C2000A168A116D210A168A116D210A168A11BF
:1022D2006D210A168A116D29023083120313D80662
:1022E200080083120313071288128712081224307F
:1022F200A900F9220A168A112608AD002508AC00A9
:102302002D0403194D2A2D08A6002C08A5006D22C4
:102312000A168A112608AB002508AA00071288129D
:10232200871208122A032B04031D9D292C032D0456
:10233200031D9D2931304C2A2A032B04031DA82991
:1023420002302C062D04031DA82932304C2A2A0300
:102352002B04031DB32903302C062D04031DB329BE
:1023620033304C2A2A032B04031DBE2904302C06C9
:102372002D04031DBE2941304C2A02302A062B04AB
:10238200031DC9292C032D04031DC92934304C2AED
:1023920002302A062B040230031DD6292C062D04F6
:1023A200031DD52935304C2A02302A062B04031D81
:1023B200E12903302C062D04031DE12936304C2A75
:1023C20002302A062B04031DED2904302C062D04AD
:1023D200031DED2942304C2A03302A062B04031D2B
:1023E200F8292C032D04031DF82937304C2A033019
:1023F2002A062B04031D042A02302C062D04031D79
:10240200042A38304C2A03302A062B040330031DD9
:10241200112A2C062D04031D102A39304C2A0330B0
:102422002A062B040430031D1D2A2C062D04031D2D
:102432001C2A43304C2A04302A062B04031D272A67
:102442002C032D04031D272A2A304C2A04302A0685
:102452002B04031D332A02302C062D04031D332ABC
:1024620030304C2A04302A062B04031D3F2A033045
:102472002C062D04031D3F2A23304C2A04302A0641
:102482002B04031D4B2A04302C062D04031D4B2A5A
:1024920044304C2A4030A9002C032D04031D542A39
:1024A20008196B2A512A02302C062D04031D5C2ABE
:1024B200881B6B2A592A03302C062D04031D642A1B
:1024C20088196B2A612A04302C062D04031D6B2AFD
:1024D200081F692A290808000712881287120812A1
:1024E20025032604031D9D2A0716000083120313E9
:1024F200081D7F2AA501A50AA6010800881600006A
:1025020083120313081D892A0230A500A6010800C0
:102512008716000083120313081D932A0330A500B7
:10252200A60108000816000083120313081DF62AEC
:102532000430A500A6010800023025062604031D6A
:10254200BB2A0716000083120313881B7B2A8816F6
:10255200000083120313881B852A8716000083124A
:102562000313881B8F2A0816000083120313881B8B
:10257200992AF62A033025062604031DD92A0716AE
:1025820000008312031388197B2A88160000831225
:1025920003138819852A87160000831203138819EA
:1025A2008F2A08160000831203138819992AF62A23
:1025B200043025062604031DF62A0716000083129E
:1025C2000313081B7B2A8816000083120313081BBF
:1025D200852A8716000083120313081B8F2A081608
:1025E200000083120313081B992AA501A601080003
:1025F2000819FE2AA701A70A0C2B881B022B0230FE
:10260200092B8819062B0330092B081B0B2B0430CE
:10261200A7000C2BA701A8012808A6002708A500DF
:10262200080083120313A600260884000A168A11E2
:1026320000200A168A11003A031908000C1E1F2BEB
:10264200260884000A168A1100200A168A119900A7
:102652000330A500A50B2B2B83120313A60A152BFF
:102662000C1C8A2B8316BF0A0319C00A32303F069C
:102672004004031D842BC10A0319C20A8312581D88
:102682005D2B581C4B2B0E30F701F70AF801F900AD
:102692003A30512B0E30F701F70AF801F9002030D9
:1026A200FA01FB0043240A168A11B6230A168A117C
:1026B200013083120313D8064030880683163C305B
:1026C200BF01C00141064204031D842BBD0A031948
:1026D200BE0A1E30C101C201F000F1013E08F30042
:1026E2003D08F20087240A168A1170088316C50075
:1026F2003C303D063E04031D842BBD01BE01831206
:10270200D10A0319D20A83120C10B0308E003C3069
:102712008F008C1EA72B181D9818A12B1A082A307F
:102722001A060319982B14305502031C992BD50154
:102732005508A03E84001A0883138000D50AA62BF0
:10274200181218111A081A0818168C12981CAD2B98
:1027520018121A081A08181624088A002308840076
:10276200220E8300FE0E7E0E09000C30F701F70ADE
:10277200F801F9000A30FA01F000F10183120313A3
:102782005208F3005108F2005D240A168A117008FB
:10279200303EFB0043240A168A110D3083120313C4
:1027A200A100FB30A000A00BD42BA10BD42BD92B62
:1027B2000D30F701F70AF801F9000A30FA01F000CA
:1027C200F101831203135208F3005108F200872427
:1027D2000A168A117008303EFB0043240A168A1139
:1027E2000D3083120313A100FB30A000A00BF72BC6
:1027F200A10BF72BFC2B0F30F701F70AF801F900B8
:102802000A30FA01F000F101831603133E08F300C7
:102812003D08F2005D240A168A117008303EFB0062
:1028220043240A168A110D3083120313A100FB30D0
:10283200A000A00B1A2CA10B1A2C1F2C1030F70190
:10284200F70AF801F9000A30FA01F000F1018316E3
:1028520003133E08F3003D08F20087240A168A118A
:102862007008303EFB0043240A168A110D30831291
:102872000313A100FB30A000A00B3D2CA10B3D2CAB
:10288200422C08007908F100770866250A168A1199
:102892008312031307150630FC00FC0B4E2C0000BC
:1028A2007B0883120313D600AB240A168A11213047
:1028B200FC00FC0B5A2C0800F401F50170087104AD
:1028C2000319822CF601F60AF11B6B2C0310F00D92
:1028D200F10D642C0310F40DF50D71087302031D44
:1028E200742C70087202031C7E2C7008F2027108AC
:1028F200031CF303F30274140310F10CF00CF60B37
:102902006B2C7508F1007408F0000800700871045F
:102912000319A62CF401F40AF11B932C0310F00DF9
:10292200F10D8C2C71087302031D992C7008720230
:10293200031CA22C7008F2027108031CF303F302B9
:102942000310F10CF00CF40B932C7308F1007208D5
:10295200F00008007D1056187D14831203135608E8
:10296200F0000310F00CFD107018FD148312031315
:102972005608F0000310F00C0310F00C7D117018D3
:102982007D15831203135608F0000310F00C031098
:10299200F00C0310F00CFD117018FD1583120313D7
:1029A2005608F00004300310F00CFF3E031DD42C37
:1029B2007D1270187D16831203135608F00005303D
:1029C2000310F00CFF3E031DE12CFD127018FD16E2
:1029D200831203135608F00006300310F00CFF3E7A
:1029E200031DEE2C7D1370187D17831203135608F6
:1029F200F00007300310F00CFF3E031DFB2C5812B1
:102A020070185816831203138711000083120313E0
:102A1200871500007D1E112D831203138714142DB8
:102A2200831203138710FD1E1A2D83120313081439
:102A32001D2D8312031308107D1F232D83120313F0
:102A42000714262D831203130710581E2C2D8312F0
:102A5200031388142F2D831203138810000083128E
:102A620003138711000083120313871100008312DE
:102A72000313871500007D1C422D83120313871454
:102A8200452D831203138710FD1C4B2D8312031354
:102A920008144E2D8312031308107D1D542D83122A
:102AA20003130714572D831203130710FD1D5D2D09
:102AB200831203138814602D8312031388100000FD
:102AC20083120313871100000800F500750B6B2DAC
:102AD2008030F50002307506031D712DC030F500FF
:102AE20071087507FF3EF400831207110630F200E9
:102AF200F20B792D0000740883120313D600AB2465
:102B02000A168A110D30F300FB30F200F20B872D0A
:102B1200F30B872D8C2D08000313B100A5008E3016
:102B2200A601A701A800A901B7272508AD0026081C
:102B3200AE002708AF0008003308B6003408B7001B
:102B42003508B8000310370D380DBD003D08031DD0
:102B5200AE2DB001B101B20108003008B600310853
:102B6200B7003208B8000310370D380DBE003E081A
:102B7200031DBF2DB001B101B20108008930BA01B5
:102B8200BB01BC013E07B600BD023508BE003208DB
:102B9200BE068030BE051830B417B501B117B201B8
:102BA200B9000310BA0DBB0DBC0D32083502031D6E
:102BB200E02D31083402031DE02D30083302031CDE
:102BC200EE2D3008B3023108031C310FB402320873
:102BD200031C320AB5023A140310B30DB40DB50D3D
:102BE200B90BD22D3A08A5003B08A6003C08A70065
:102BF2003D08A8003E08A900B7272508B00026080E
:102C0200B1002708B2000800003092260A168A1185
:102C120026088316BC00831225088316BB000130E8
:102C220092260A168A112608D4002508D3005408D1
:102C3200AE005308AD00A7270A168A112D08B50069
:102C42002E08B6002F08B7003330B200B330B300FD
:102C52003E30B400D1260A168A113208C100330868
:102C6200C2003408C3004C270A168A114108D30750
:102C72000318D40A4208D407023092260A168A118F
:102C820026088316C900831225088316C800FF3060
:102C92008312AB000330AC00831649088312A600EE
:102CA200831648088312A5003730A700A801B8266A
:102CB2002608AE002508AD000A128A151E270A163C
:102CC2008A112B088316B40083122C088316B500D0
:102CD20000308312AC1BFF308316B60003309226FD
:102CE2000A168A1126088316C7008312250883163E
:102CF200C600FF308312AB000330AC0083164708D6
:102D02008312A600831646088312A5003730A70057
:102D1200A801B8262608AE002508AD000A128A15B9
:102D22001E2F8312A800A80DA80D280DF839A8009F
:102D3200C7309F0528089F041F141030A700A70B57
:102D4200A02E0000831203131F151F19A62E1E08A2
:102D5200A900AA01AA00A90183161E088312A907C5
:102D62000318AA0A2A08A6002908A5000800A90132
:102D7200AA01251CC22E2708A9070318AA0A280897
:102D8200AA070310A70DA80D0310A60CA50C250871
:102D92002604031DBA2E2A08A6002908A500080049
:102DA2003208B8003308B9003408BA000310390DEC
:102DB2003A0DBB003B08031DE22EB201B301B40180
:102DC20008003508B8003608B9003708BA00031001
:102DD200390D3A0DC0004008031DF32EB201B301B4
:102DE200B401080040087B3EBB073408C000370826
:102DF200C0068030C0050730B317B617B701BC0153
:102E0200BD01BE01BF00321C142F3508BC073608B5
:102E120003110318360A031DBD07370803110318EF
:102E2200370A031DBE070310B40CB30CB20C031017
:102E3200B50DB60DB70DBF0B042F0930BF00321C04
:102E4200302F3508BC07360803110318360A031D54
:102E5200BD07370803110318370A031DBE07031005
:102E6200B40CB30CB20C0310BE0CBD0CBC0CBF0BEB
:102E7200202F3C08A5003D08A6003E08A7003B08FD
:102E8200A8004008A900B7272508B2002608B30009
:102E92002708B4000800F9270A168A110310460D04
:102EA200470DCD004D08031D5B2FC101C201C301B7
:102EB200C4010800F9270A168A1117300310C70C3B
:102EC200C60CC50CFF3E031D5F2F4508C800C21784
:102ED200C3014108C9004208CA004308CB008E3032
:102EE200CC01CD02CD1F822F4D08803A8F3E031CAC
:102EF200562F0310CC0CCB0CCA0CC90CCD0F7A2F59
:102F0200902F18304D020318562F4D080319902F99
:102F12000310C90DCA0DCB0DCC0DCD03862F480869
:102F220003199E2FC909CA09CB09CC09C90A031979
:102F3200CA0A0319CB0A0319CC0A4C08C4004B086D
:102F4200C3004A08C2004908C10008002D08A500B4
:102F52002E08A6008E30A701A800A901B7272508D0
:102F6200AD002608AE002708AF00080028080319A4
:102F7200BF2F270826042504031DC82FA501A6017B
:102F8200A7010800A80A0310A70CA60CA50CFE3086
:102F920027050319D72FC32FA80AA50A0319A60AC2
:102FA2000319A70A0310A70CA60CA50CFF302705CE
:102FB2000319E52FCD2F02302802031CE72FA803A7
:102FC2000310A50DA60DA70DA61FDC2F281CA61306
:102FD2000310A80C2808AC00AB01AA012A08A5041A
:102FE2002B08A6042C08A7042908031DA71708000C
:0E2FF2004108C5004208C6004308C700080099
:1037A0008312031390121016901010149011B03061
:1037B0008E003C308F0083160C1408008312A70083
:1037C000A60125082718A6070310A50D0310A70CAE
:1037D0002708031DE12B260808008B110B128C1300
:1037E0000C130C128C168C110C110C148C108B12E7
:1037F0000D128D110D108B170B1708000C1EFE2BD0
:103800000D309900F930A5000000A50B042C082C00
:103810000000831203130C1E092C0A309900F930A2
:10382000A5000000A50B112C152C00000800FF308E
:103830008316850083128501C030831686008312AB
:10384000860180308316870083128701CC3083166F
:1038500088008312880180308316890083128901D1
:10386000080027082604250403195B2CAB01AB0ACA
:10387000A71B3F2C0310A50DA60DA70D372C27085D
:103880002A02031D492C26082902031D492C25085C
:103890002802031C562C2508A8022608031C260F04
:1038A000A9022708031C270AAA020310A70CA60CCA
:1038B000A50CAB0B3F2C2808A5002908A6002A0858
:1038C000A7000800AB01AC01AD01270826042504C0
:1038D0000319942CAE01AE0AA71B732C0310A50D7F
:1038E000A60DA70D6B2C0310AB0DAC0DAD0D27086D
:1038F0002A02031D812C26082902031D812C25087C
:103900002802031C8F2C2508A8022608031C260F5A
:10391000A9022708031C270AAA022B140310A70CCC
:10392000A60CA50CAE0B732C2B08A5002C08A6002A
:103930002D08A700080083128711071188100710AF
:10394000081487108715871188140710E5240A16B4
:103950008A15081487108715871188140710E52425
:103960000A168A1508108710871587118810071402
:103970000814871087158711A501A601F9240A16D6
:103980008A1503192502031CBE2C07118810071085
:10399000081087108715871188140714E5240A1664
:1039A0008A150810871087158711881007100810CE
:1039B000871487158711A501A601F9240A168A150F
:1039C0000319250203180800DD2C0810871087153D
:1039D0008711A501A601A50A0319A60A0930260226
:1039E000C43003192502031CEB2C071188100710A3
:1039F0000800A50A0319A60A09302602C434831652
:103A00003C0883125402031D092D83163B088312C0
:103A100053020318222D530883163B028312AB0076
:103A20005408031C540A83163C028312AC00003075
:103A30002C021A3003192B02031C0800A501A50A49
:103A4000A601432D540883163C02031D2B2D83121F
:103A5000530883163B02031808003B0883125302E5
:103A6000AB0083163C08031C3C0A83125402AC00D2
:103A700000302C021A3003192B02031C0800A50188
:103A8000A50AA6018F2D0030831644026430031965
:103A9000430203188E2DE10183122608803A803CF0
:103AA000031D552D25088316610203188E2DFB2555
:103AB0000A168A151430A8007930A700A70B5E2DCE
:103AC000A80B5E2D632DED250A168A151430A8006B
:103AD0007930A700A70B6A2DA80B6A2D6F2DF4254E
:103AE0000A168A151430A8007930A700A70B762D86
:103AF000A80B762D7B2DE6250A168A151430A80012
:103B00007930A700A70B822DA80B822D872D831655
:103B10000313C30A0319C40AE10A4C2DDF2D8316CF
:103B2000430844040319DE2D8312A901AA012A08BF
:103B3000803AA7002608803A2702031DA12D2508F8
:103B400029020318DE2DE6250A168A151430A8006E
:103B50007930A700A70BAA2DA80BAA2DAF2DF4250D
:103B60000A168A151430A8007930A700A70BB62DC5
:103B7000A80BB62DBB2DED250A168A151430A8000A
:103B80007930A700A70BC22DA80BC22DC72DFB258E
:103B90000A168A151430A8007930A700A70BCE2D7D
:103BA000A80BCE2DD32D013083160313C302031CA3
:103BB000C4038312A90A0319AA0A972DDF2D8312C1
:103BC00003130615861506168616080083120313BE
:103BD00006158615061686120800831203130615AD
:103BE000861106168616080083120313061586151D
:103BF0000612861608008312031306118615061690
:103C0000861608008312D701D70A58150A128A119E
:103C1000DE2D0130A601A60A0A128A151A220A16FA
:103C20008A156A300A128A151B200A168A15023074
:103C3000A601A60A0A128A151A220A168A159D30AA
:103C40000A128A151B200A168A150A128A15622082
:103C50000A168A150A300A128A11C82C0A168A1105
:103C600005260A168A1583163C088312B4008316AB
:103C70003B088312B3000A128A15D6240A168A1545
:103C8000AE300A168A1112230A168A155408B40097
:103C90005308B3000A128A15D6240A168A15AE30C4
:103CA0000A168A1112230A168A15831649088312E6
:103CB000B400831648088312B3000A128A15D6246A
:103CC0000A168A15AE300A168A1112230A168A15A8
:103CD000831647088312B400831646088312B30084
:103CE0000A128A15D6240A168A15AE300A168A11C7
:103CF00012230A168A150A168A15FE230A168A1531
:103D0000413083120313CF00EE30CE00CE0B862E4F
:103D1000CF0B862E00000A168A116D210A168A150D
:103D2000CD30B0000C30B1003F30B20083164408F3
:103D30008312AE00831643088312AD000A168A115F
:103D4000A7270A168A152D08B3002E08B4002F08DD
:103D5000B5000A168A119D250A168A1530088316A1
:103D6000D300831231088316D400831232088316DD
:103D7000D50053088312C100831654088312C20071
:103D8000831655088312C3000A168A114C270A1697
:103D90008A1542088316DF00831241088316DE006D
:103DA00083120730B301B30AB401B5006430B60121
:103DB000AB00AC0183165F088312AE0083165E0869
:103DC0008312AD000A128A151E270A168A152B08BF
:103DD000303EB7000A128A15F5200A168A1583129A
:103DE00003130830B301B30AB401B5000A30B601B9
:103DF000AB00AC0183165F088312A80083165E082F
:103E00008312A7006430A500A6010A128A15632751
:103E10000A168A152608AE002508AD000A128A1572
:103E20001E270A168A152B08303EB7000A128A157B
:103E3000F5200A168A15831603135F088312A8005B
:103E400083165E088312A7006430A500A6010A123B
:103E50008A1563270A168A1526088316DB00831243
:103E600025088316DA0083120930B301B30AB401BE
:103E7000B5000A30B601A500A60183165B088312BF
:103E8000A80083165A088312A7000A128A1563270E
:103E90000A168A152508303EB7000A128A15F52041
:103EA0000A168A15023083120313B3000A30B401D4
:103EB000B501B50AB601A500A601A701831634080D
:103EC0008312A800831635088312A90083163608CA
:103ED0008312AA000A168A1562240A168A15250872
:103EE000303EB7000A128A15F5200A168A150230EC
:103EF00083120313B300B401B5000A30B601A50064
:103F0000A601A701831634088312A800831635087A
:103F10008312A900831636088312AA000A168A158E
:103F200031240A168A152508303EB7000A128A1570
:103F3000F5200A168A15023083120313B3000430E9
:103F4000B401B5003030B601B7000A128A15F52069
:103F50000A168A15023083120313B3000730B40126
:103F6000B5003030B601B7000A128A15F5200A16DE
:103F70008A15023083120313B3000930B401B5006F
:103F80003030B601B7000A128A15F5200A168A15D4
:103F9000023083120313B3000C30B401B50030308B
:103FA000B601B7000A128A15F5200A168A150230E2
:103FB00083120313B3000D30B401B5003030B601E5
:103FC000B7000A128A15F5200A168A1502308312E4
:103FD0000313B3000F30B401B5003030B601B700A1
:103FE0000A128A15F5200A168A150A168A11DD208A
:103FF0000A168A150A168A15FF240A168A15062E2D
:02400E003AFF77
:00000001FF
