:060000000A128A11122809
:10000800FE00030EF7000408F8000A08F90083123E
:1000180003137F08FA000A128A159B2C0A128A1504
:100028008B2A83120313B9002E30B0003008B800B1
:10003800C72D4008253A0319222823282A284008D2
:100048000A128A15EC210A128A11C72D831203138A
:10005800BB01BC01C101C2014B284B28C1150130AD
:10006800B0003008B9074B2841140130B0003008FF
:10007800B9074B28C2150130B0003008B9074B2822
:1000880041150130B0003008B9074B2861283908FC
:1000980084000A128A1500200A128A11203A0319CC
:1000A8003828033A03193E280E3A031932281D3A14
:1000B80003194428612861284B28C11D6428652834
:1000C8006A28FB30C105FF30C2056A283908840058
:1000D8000A128A1500200A128A110A128A15BB21EF
:1000E8000A128A11031C79287A28BE28831203135E
:1000F800BB01BC017F28831203133C08A101A1079F
:100108003B08A001A0070A30A2000030A3000A1291
:100118008A15AF220A128A11831203133908840040
:100128000A128A1500200A128A112007B00000302E
:10013800031801302107B1003008D03EBB00310858
:100148000318013EFF3EBC000130B0003008B9077B
:10015800390884000A128A1500200A128A110A1224
:100168008A15BB210A128A110318BB28BC287F28CC
:10017800DE28DE2883120313390884000A128A1540
:1001880000200A128A112A3A031DCB28CC28DE281F
:100198003808840083130008BB00840A0008BC00E8
:1001A8000230B0003008B8070130B0003008B90795
:1001B800DE28DE2883120313390884000A128A1500
:1001C80000200A128A112E3A031DEB28EC28422936
:1001D80042170130B0003008B907390884000A1204
:1001E8008A1500200A128A112A3A031DFC28FD28C4
:1001F8000D293808840083130008B0003008BA00BD
:100208000230B0003008B8070130B0003008B90734
:10021800F929BA012F290A3083120313B0003008D4
:10022800A0003A080A128A15D2210A128A118312EA
:100238000313B100390884000A128A1500200A1233
:100248008A113107D03EB2003208BA000130B0003E
:100258003008B9072F29390884000A128A150020A6
:100268000A128A110A128A15BB210A128A11031866
:100278003E293F290F29F929F929F929BA01F9292C
:10028800F929DD2D41171F2A1F2A1F2AC116C11758
:100298001F2A3A08031D512966293A08B000B101FE
:1002A800B01BB1033F083102031D5C293E08300230
:1002B80003185F29602966293A08BE00BF01BE1BE2
:1002C800BF0366293C083F02031D6C293B083E0218
:1002D80003186F29702977293E08BB023F08031CC1
:1002E800BC03BC027A29BB01BC017A29C1197D294A
:1002F8007E29AC298729872920300A128A15EC2102
:100308000A128A118729FF3083120313BB070318C7
:10031800BC0AFF30BC07FF303C06031D9529FF309F
:100328003B06031D982999298029AC29AC29AC29B9
:100338003D088400831300080A128A15EC210A126A
:100348008A11013083120313B0003008BD07AC29AD
:100358000130BE020030031CBF03BF02FF303F065E
:10036800031DB829FF303E06031DBB29BC299C2963
:10037800C11DBF29C029C72DC929C92920300A1282
:100388008A15EC210A128A11C929FF308312031336
:10039800BB070318BC0AFF30BC07FF303C06031D2F
:1003A800D729FF303B06031DDA29DB29C229C72DCF
:1003B800C72DC72D3808840083130008B000300803
:1003C800C0000230B0003008B807EA294030B00059
:1003D8003008BD000130BE000030BF004D29C030DC
:1003E800C1040030C2041F2A1F2A013083120313DC
:1003F800B907FF30390784000A128A1500200A124B
:100408008A11C000003A0319DD2D583A03194A2908
:100418003B3A0319DE29073A03191F2A0D3A031933
:100428001F2A063A031946291A3A0319F3290D3ADD
:1004380003194B29EA29C0304105B00000304205B4
:10044800B10031083004031D2A2A2B2A462A38080D
:10045800840083130008BD00840A0008BE0002302F
:10046800B0003008B807BE1F3A2A3B2A532A033087
:10047800C1040030C204BD09BE09BD0A0319BE0A81
:10048800532A532A3808840083130008BD00840ABD
:100498000008BE000230B0003008B807532ABA0876
:1004A800031D572A582A022B3E083D04031D5D2AC6
:1004B8005E2A022B0130B0003008BA07022B022B4B
:1004C800652AC0010314C00D4008053A031D6D2AB2
:1004D8006E2A702A112B112B4008B00030070D3EF0
:1004E80084000A128A1500200A128A11B1000A1221
:1004F8008A1500200A128A11B20032083E02031D32
:10050800872A31083D0203188A2A8B2A8D2A112B43
:10051800112B0130B0003008C0074008053A031D10
:10052800962A972A702A112B112BC0010314C00D8B
:100538004008043A031DA12AA22AA42A112B112B30
:100548004008B0003007173E84000A128A150020C0
:100558000A128A11B1000A128A1500200A128A1199
:10056800B20032083E02031DBB2A31083D020318BF
:10057800BE2ABF2AC12A112B112B0130B000300826
:10058800C0074008043A031DCA2ACB2AA42A112B03
:10059800112BC0010314C00D4008063A031DD52ACB
:1005A800D62AD82A112B112B4008B0003007013E5B
:1005B80084000A128A1500200A128A11B1000A1250
:1005C8008A1500200A128A11B20032083E02031D61
:1005D800EF2A31083D020318F22AF32AF52A112BD3
:1005E800112B0130B0003008C0074008063A031D3F
:1005F800FE2AFF2AD82A112B112B112B4108C039AA
:10060800003A0319652A403A0319CD2AC03A03195A
:10061800992A403A0319652A112B4008803AB000FC
:100628003A08803AB00203181A2B1B2B202B3A08E1
:10063800B0003008C0002F2B3A08803AB0004008BC
:10064800803AB0020318292B2A2B2F2B4008B00020
:100658003008BA002F2B3C083B040319342B352BE8
:10066800482B03304105B00000304205B100310885
:1006780030040319402B412B482BFF30BB070318CC
:10068800BC0AFF30BC07482B421F4B2B4C2B732B4B
:100698003A08B000B101B01BB1033108803AB2008A
:1006A8003C08803A3202031D5B2B3B0830020318DA
:1006B8005E2B5F2B6D2B831203133A08B000B10138
:1006C800B01BB1033008BB023108031CBC03BC02D9
:1006D800732B83120313BB01BC01732B732BC43020
:1006E8004105B00008304205B10008303106031D4D
:1006F8007F2B40303006031D822B832B912B3C0827
:100708003B040319882B892BBE2BFF30BB0703182A
:10071800BC0AFF30BC07BE2BBE2BC0304105B00061
:1007280008304205B10008303106031D9D2B80308A
:100738003006031DA02BA12BBE2B3C08803AFF00DE
:1007480080307F02031DAA2B03303B02031CAD2B14
:10075800AE2BB72BFE3083120313BB070318BC0A5A
:10076800FF30BC07BE2B83120313BB01BC01BE2B99
:10077800BE2BBE2B4008B000B101B01BB10331083D
:10078800803AB2003C08803A3202031DCD2B3B0868
:1007980030020318D02BD12BDF2B83120313400810
:1007A800B000B101B01BB1033008BB023108031C13
:1007B800BC03BC02E42B83120313BB01BC01E42B72
:1007C800411DE72BE82B572C03304105B0000030C2
:1007D8004205B100310830040319F32BF42BFB2B2D
:1007E8002D300A128A15EC210A128A11372C411C65
:1007F800FE2BFF2B062C20300A128A15EC210A1238
:100808008A11372CC030831203134105B000083019
:100818004205B10008303106031D142C8030300623
:10082800031D172C182C372C30300A128A15EC218E
:100838000A128A1183120313C11A232C242C292C7F
:100848007830B3000030B4002E2C5830B30000309C
:10085800B4002E2C33080A128A15EC210A128A11C8
:10086800372C372C372C831203133C083B0403190D
:100878003E2C3F2C922D402C30300A128A15EC2148
:100888000A128A11FF3083120313BB070318BC0A2C
:10089800FF30BC073C083B04031D532C542C402C50
:1008A800922D922D922D3C083B0403195C2C5D2C53
:1008B800782CC119602C612C782C622C20300A12FB
:1008C8008A15EC210A128A11FF3083120313BB0721
:1008D8000318BC0AFF30BC073C083B04031D752CF9
:1008E800762C622C782C782C03304105B00000302F
:1008F8004205B100310830040319832C842C8B2C59
:100908002D300A128A15EC210A128A11972C411CE3
:100918008E2C8F2C972C20300A128A15EC210A1263
:100928008A11972C972CC030831203134105B0000D
:1009380008304205B10008303106031DA52C4030AF
:100948003006031DA82CA92CB02C30300A128A15A9
:10095800EC210A128A11922DC0308312031341052B
:10096800B00008304205B10008303106031DBE2C26
:1009780080303006031DC12CC22C922D30300A1253
:100988008A15EC210A128A1183120313C11ACD2C7D
:10099800CE2CD32C7830B5000030B600D82C583087
:1009A800B5000030B600D82C35080A128A15EC219B
:1009B8000A128A11922D922D922D922D7A2DE42CC5
:1009C8000A3083120313A8000030A9003A08B000C7
:1009D80030070D3E84000A128A1500200A128A1177
:1009E800A0000A128A1500200A128A11A1003E08E6
:1009F800A301A3073D08A201A2070A128A15D02362
:100A08000A128A11831203132108AB01AB072008CD
:100A1800AA01AA070A128A158A230A128A118312BE
:100A280003132808303EB1003108C0008B2DC11ACD
:100A38001E2D1F2D242D8B30B0003008B700292D16
:100A48007A30B0003008B700292D3A08B0003007D6
:100A5800173E84000A128A1500200A128A11A00083
:100A68000A128A1500200A128A11A1003E08A30161
:100A7800A3073D08A201A2070A128A15D0230A1269
:100A88008A118312031320080F39370784000A12CA
:100A98008A1500200A128A11B1003108C0008B2D76
:100AA8003A08B0003007013E84000A128A15002077
:100AB8000A128A11A0000A128A1500200A128A1145
:100AC800A1003E08A301A3073D08A201A2070A123C
:100AD8008A15D0230A128A118312031320080739B2
:100AE800303EB1003108C0008B2D8B2D83120313CB
:100AF8004108C039003A0319E42C403A0319542D2F
:100B0800C03A03191B2D403A0319E42C8B2D4008D9
:100B18000A128A15EC210A128A11922DFF308312CB
:100B28000313B0003008BA073A08FF3A031D9D2D99
:100B38009E2D7A2DC11DA12DA22DC72D3C08803ACE
:100B4800FF0080307F02031DAB2D01303B02031CE8
:100B5800AE2DAF2DC72DB02D20300A128A15EC21ED
:100B68000A128A11FF3083120313BB070318BC0A49
:100B7800FF30BC073C083B04031DC32DC42DB02D1A
:100B8800C72DC72DC72D013083120313B907FF30B6
:100B9800390784000A128A1500200A128A11B00047
:100BA8003008C000C008031DDA2DDB2D1D28DD2DFF
:100BB800DD2D08000A128A1567220A128A110A1204
:100BC8008A1590210A128A110A128A155C250A12BE
:100BD8008A110A128A1546220A128A110A128A15DD
:100BE80026220A128A110A128A1599210A128A11D2
:100BF8000A128A15A8210A128A110A128A155C2576
:100C08000A128A110A128A1546220A128A116830B3
:100C18000A128A1115200A128A1183120313A201DB
:100C28000314A20D02300A128A1507230A128A1128
:100C380056300A128A1115200A128A1106308312B8
:100C48000313C5001330C400B130C300C30B2A2EF0
:100C5800C40B2A2EC50B2A2E312E83120313A20190
:100C68000314A20D01300A128A1507230A128A11E9
:100C780044300A128A1115200A128A1183120313AA
:100C8800A2010314A20D02300A128A1507230A12C0
:100C98008A1132300A128A1115200A128A11063076
:100CA80083120313C5001330C400B130C300C30B53
:100CB8005B2EC40B5B2EC50B5B2E622E83120313B7
:100CC800A2010314A20D01300A128A1507230A1281
:100CD8008A119C300A128A1115200A128A1183126D
:100CE8000313A2010314A20D02300A128A15072366
:100CF8000A128A11AD300A128A1115200A128A11B5
:100D0800063083120313C5001330C400B130C3008A
:100D1800C30B8C2EC40B8C2EC50B8C2E932E8312DA
:100D28000313A2010314A20D01300A128A15072326
:100D38000A128A11831203134A08AF01AF07490840
:100D4800AE01AE07CF300A128A1115200A128A1195
:100D580083120313A2010314A20D02300A128A158A
:100D680007230A128A11831203134E08AF01AF0733
:100D78004D08AE01AE07BE300A128A1115200A12BC
:100D88008A110A128A1546220A128A11831203133B
:100D9800E1010314E10DEB2EEB2E0A30C3004308EA
:100DA800E100EB2E87141F300A128A15DB220A1283
:100DB8008A110A128A1520240A128A11831203132F
:100DC8008710EB2EEB2EEB2EEB2EEB2EEB2E610885
:100DD800013A0319D12E033A0319EB2E013A0319EC
:100DE800EB2E093A0319D62E1E3A0319EB2E0A3AAE
:100DF8000319EB2EEB2EEB2EEB2E0A128A1112287A
:100E0800831203135F08A00004300310A00CFF3EF8
:100E1800031D092F2008A1002108E0005F08A00099
:100E280003300310A00DFF3E031D152F0310200DE6
:100E3800A1002108FD007D08A00004300310A00CCB
:100E4800FF3E031D222F2008A1002108FD007B1072
:100E58005F1C2F2F7B14831203135F08A00001303F
:100E68000310A00CFF3E031D342FFB10201C3D2F48
:100E7800FB14831203135F08A00002300310A00CB8
:100E8800FF3E031D422F7B11201C4B2F7B15831225
:100E980003135F08A00003300310A00CFF3E031DDE
:100EA800502FFB11201C592FFB15831203135F08C9
:100EB800A00004300310A00CFF3E031D5E2F7B1220
:100EC800201C672F7B16831203135F08A0000530D0
:100ED8000310A00CFF3E031D6C2FFB12201C752F66
:100EE800FB16831203135F08A00006300310A00C42
:100EF800FF3E031D7A2F7B13201C832F7B17831241
:100F080003135F08A00007300310A00CFF3E031D69
:100F1800882FFB13201C912FFB17831203138711B3
:100F2800640083120313871564007B1A9C2FA02F7B
:100F3800831203138714A32F831203138710FB1A3A
:100F4800A62FAA2F831203130814AD2F831203139D
:100F580008107B1BB02FB42F831203130714B72F6D
:100F6800831203130710FB1BBA2FBE2F8312031320
:100F78008814C12F8312031388106400831203138B
:100F8800871164008312031387116400831203130B
:100F9800871564007B18D12FD52F8312031387146C
:100FA800D82F831203138710FB18DB2FDF2F831230
:100FB80003130814E22F8312031308107B19E52F7B
:100FC800E92F831203130714EC2F8312031307105E
:100FD800FB19EF2FF32F831203138814F62F8312B4
:100FE8000313881064008312031387116400080038
:040FF800013401348B
:1010000008308A000408840A82070034013400345E
:1010100008340034403400340034023400341034D6
:1010200000348034013400340A3400346434003431
:10103000E8340334103427340134003410340034DD
:101040000034013400341034533477346934743448
:101050006334683465346434203474346F34203439
:101060004D346F34643465342034313400342034EA
:1010700020342034203420342034533479347334F1
:10108000743465346D3420342034203420342034DA
:10109000003420342034203420344D346F346E3406
:1010A000693474346F34723469346E346734203484
:1010B000203420340034203461346E3464342034DD
:1010C00048346534613472347434203452346134B9
:1010D0007434653420342034003442346F34643442
:1010E00079342034543465346D347034653472345A
:1010F00061347434753472346534203400343034DF
:10110000313432343334343435343634373438349B
:101110003934413442344334443445344634003461
:101120003034313432343334343435343634373483
:101130003834393461346234633464346534663449
:10114000003420342034203420342034203420341F
:1011500066346F3472342034203420342034203408
:10116000203400342034203420342034503461348E
:101170007434693465346E347434733420342034F8
:1011800020342034003454343A3420342034383479
:10119000343446342034203420344C346F347734A3
:1011A000203420342034003448343A34203420347D
:1011B00036343234503450344D3420344C346F345F
:0A11C000773420342034203400344A
:1013100064008001840A0406031900340406892944
:101320004030831203139F008430831603139F0001
:1013300008008312031390121016901010149011CD
:10134000B0308E003C308F00831603130C1408005D
:101350008B110B12831603138C130C130C128C16A7
:101360008C110C110C148C108B120D128D110D1090
:101370008B170B17080083120313A100A0013A304A
:1013800021020318C429C529CF2930302102031CAA
:10139000CA29CB29CF29A0010314A00DCF29200CE5
:1013A000D129080083120313A300A201231CD92909
:1013B000DA29DF292008A1002108A207DF2903106C
:1013C000A00D0310A30CA308031DE729E829D629C3
:1013D000E9292208EB29080083120313A30007154B
:1013E0000630A200A20BF229640083120313230823
:1013F000A2002208DF000A128A1104270A128A15A5
:10140000213083120313A200A20B042A08008312C6
:10141000031307110630F200F20B0C2A640083124A
:101420000313DF010314DF0D0A128A1508270A12BD
:101430008A150D30F300FB30F200F20B1D2AF30B7E
:101440001D2A222A8312031307150800831203138F
:1014500098171813181683160313181398161812D2
:101460001815813099008C160C12831203139811F1
:101470000330A2008A30A1005630A000A00B3E2A03
:10148000A10B3E2AA20B3E2A452A08008312031311
:1014900007110630A200A20B4B2A6400831203132B
:1014A000DF010314DF0D0A128A1104270A128A15BC
:1014B0000D3083120313A300FB30A200A20B5E2A9F
:1014C000A30B5E2A632A8312031307150800FF305B
:1014D000831603138500831203138501C03083161E
:1014E00003138600831203138601803083160313CF
:1014F00087008312031387010C30831603138800BF
:10150000831203138801803083160313890083122A
:10151000031389010800FB01FC01FD018313463020
:10152000840068300A128A1588210A128A15A030B0
:101530008400BD300A128A1588210A128A150A12FF
:101540008A11FC270A128A15E8000A128A11FD275F
:101550000A128A15E90083010A128A11DE2D83120C
:101560000313A401A501B42A201CB72AB82ABE2A55
:101570002208A4070318A50A2308A50701300310B1
:10158000A20DA30DFF3E031DBF2A01300310A10CC5
:10159000A00CFF3E031DC62A21082004031DD12AEA
:1015A000D22AB42AD32A2508A101A1072408A00120
:1015B000A007DA2A080083120313A100F92AE02AFF
:1015C0000C1EE32AE42AE02AE52A210884000A12F4
:1015D0008A1500200A128A1599000330A000A00B7A
:1015E000EF2A831203132108013EA0002008A10066
:1015F000F92A210884000A128A1500200A128A1585
:101600000038031D042B052BE02A062B080083124B
:101610000313A6002608013A031D0F2B102B142BD1
:101620008030A3002308A6002608023A031D192BC8
:101630001A2B1F2BC030A3002308A6001F2B220843
:101640002607FF3EA3002308A50007110630A300CC
:10165000A30B282B6400831203132508A30023087F
:10166000DF000A128A1104270A128A150D3083122C
:101670000313A400FB30A300A30B3C2BA40B3C2BB7
:10168000412B83120313A601A20108007108700404
:1016900003194B2B4C2B822BF5010314F50D5C2BFE
:1016A00001300310F00DF10DFF3E031D512B0130F1
:1016B000F4007408F5075C2BF11F5F2B602B502B97
:1016C000622B622B71087302031D682B7008720273
:1016D000031C6B2B6C2B732B7008F2027108031C1C
:1016E000F303F302732B01300310F10CF00CFF3EF7
:1016F000031D742B0130F502031D7F2B802B622B01
:10170000822B822B7308F101F1077208F001F007B8
:10171000892B080083120313290828040319912B2D
:10172000922BC82BAD010314AD0DA22B0130031079
:10173000A80DA90DFF3E031D972B0130AC002C080E
:10174000AD07A22BA91FA52BA62B962BA82BA82B48
:1017500029082B02031DAE2B28082A02031CB12BDB
:10176000B22BB92B2808AA022908031CAB03AB0231
:10177000B92B01300310A90CA80CFF3E031DBA2B96
:101780000130AD02031DC52BC62BA82BC82BC82BBF
:101790002B08A901A9072A08A801A807CF2B080030
:1017A00083120313A501A601210820040319D92BD4
:1017B000DA2B182CA7010314A70DEA2B0130031014
:1017C000A00DA10DFF3E031DDF2B0130A400240856
:1017D000A707EA2BA11FED2BEE2BDE2BF02BF02B16
:1017E00001300310A50DA60DFF3E031DF12B2108AE
:1017F0002302031DFD2B20082202031C002C012CB8
:10180000092C2008A2022108031CA303A30225140B
:10181000092C01300310A10CA00CFF3E031D0A2C63
:101820000130A702031D152C162CF02B182C182C98
:101830002608A101A1072508A001A0071F2C080068
:10184000033083120313A0002008E7000430A00037
:101850002008E3000230A0002008E2000630A000CB
:101860002008E600332C0C1E362C372C332C382C59
:101870006708303E9900F930A0006400A00B3D2CB1
:10188000412C6400432C831203130C1E482C492C5A
:10189000432C4A2C6308303E9900F930A0006400C4
:1018A000A00B4F2C532C6400552C831203130C1ED9
:1018B0005A2C5B2C552C5C2C0D309900F930A00073
:1018C0006400A00B602C642C6400662C831203134C
:1018D0000C1E6B2C6C2C662C6D2C6208303E990013
:1018E000F930A0006400A00B722C762C6400782CD8
:1018F000831203130C1E7D2C7E2C782C7F2C660803
:10190000303E9900F930A0006400A00B842C882C94
:1019100064008A2C831203130C1E8F2C902C8A2CAB
:10192000912C0D309900F930A0006400A00B952C8B
:10193000992C640008000C1C9E2C9F2C092D013052
:10194000D9070318DA0A0030DA070A3059065A04B0
:10195000031DAB2CAC2C032D0130DB070318DC0A74
:101960000030DC0740308806D901DA013C305B06E4
:101970005C04031DBC2CBD2C032D4C08CA01CA07F6
:101980004B08C901C907CB01CC010130D7070318A7
:10199000D80A0030D8070A128A152E260A128A158C
:1019A0000A128A1507220A128A1583120313DB0111
:1019B000DC011E30F0000030F1005808F301F3079D
:1019C0005708F201F2070A128A1546230A128A15ED
:1019D0007008F600760883120313E500F02CF02C53
:1019E0003C3057065804031DF62CF72C032DD70165
:1019F000D8010130D1070318D20A0030D207032DD5
:101A0000032D032D032D0C10B0308E003C308F00C1
:101A1000092D8C1E0C2D0D2D422D1819102D112D58
:101A2000342D9818142D152D342D1A08F60076082B
:101A3000E4001A082A3A03191E2D1F2D252D1430F3
:101A40005D02031C242D252D272DDD01272D1A08CD
:101A5000F6005D08A03E8400760883138000013004
:101A6000F6007608DD07402D181218111A08F60046
:101A70007608E4001A08F6007608E4001816402DEF
:101A80008C12422D981C452D462D512D18121A08E6
:101A9000F6007608E4001A08F6007608E400181646
:101AA000512D7A08FF0079088A0078088400770EA3
:101AB0008300FE0E7E0E09008312031387110711A7
:101AC00088100710081487108715871188140710CD
:101AD0000810871087158711A001A1010930210284
:101AE000C43003192002031C762D772D792D882D03
:101AF000882D0130A0070318A10A0030A107093082
:101B00002102C43003192002031C872D882D792D52
:101B1000071188100710081487108715871188147B
:101B200007100810871087158711A001A10109303F
:101B30002102C43003192002031C9F2DA02DA22DC9
:101B4000B12DB12D0130A0070318A10A0030A10763
:101B500009302102C43003192002031CB02DB12D1D
:101B6000A22D0711881007100810871087158711FC
:101B7000881007140814871087158711A001A10188
:101B800009302102C43003192002031CC82DC92DBD
:101B9000CB2DDA2DDA2D0130A0070318A10A003071
:101BA000A10709302102C43003192002031CD92DDA
:101BB000DA2DCB2D07118810071008108710871514
:101BC0008711881407140810871487158711A0013E
:101BD000A10109302102C43003192002031CF12D98
:101BE000F22DF42D032E032E0130A0070318A10AB5
:101BF0000030A10709302102C43003192002031C60
:101C0000022E032EF42D07118810071008108710DC
:101C100087158711881007100810871487158711FA
:101C2000A001A10109302102C43003192002031CC4
:101C30001A2E1B2E1D2E2D2E2D2E0130A00703181F
:101C4000A10A0030A10709302102C4300319200283
:101C5000031C2B2E2C2E1D2E2D2E08008312031359
:101C6000871107118810071008148710871587112E
:101C7000881407100810871087158711F001F101EB
:101C800009307102C43003197002031C482E492E1A
:101C90004B2E5A2E5A2E0130F0070318F10A00304D
:101CA000F10709307102C43003197002031C592E68
:101CB0005A2E4B2E83120313071188100710081495
:101CC000871087158711881407100810871087154B
:101CD0008711F001F10109307102C430031970025B
:101CE000031C732E742E762E852E852E0130F00760
:101CF0000318F10A0030F10709307102C4300319EA
:101D00007002031C842E852E762E83120313071176
:101D1000881007100810871087158711881007147E
:101D20000814871087158711F001F101093071023D
:101D3000C43003197002031C9E2E9F2EA12EB02EBC
:101D4000B02E0130F0070318F10A0030F107093016
:101D50007102C43003197002031CAF2EB02EA12EE5
:101D600083120313071188100710081087108715B6
:101D70008711881407140810871487158711F0013C
:101D8000F10109307102C43003197002031CC92E1D
:101D9000CA2ECC2EDB2EDB2E0130F0070318F10A01
:101DA0000030F10709307102C43003197002031CBE
:101DB000DA2EDB2ECC2E83120313071188100710A6
:101DC00008108710871587118810071008108714CE
:101DD00087158711F001F10109307102C430031930
:101DE0007002031CF42EF52EF72E072F072F01305B
:101DF000F0070318F10A0030F10709307102C4300E
:101E000003197002031C052F062FF72E072F080059
:101E1000831203135F08F00004300310F00CFF3E40
:101E2000031D0D2F7008F1007108E0005F08F0003D
:101E300003300310F00DFF3E031D192F0310700D2A
:101E4000F1007108FD007D08F00004300310F00C73
:101E5000FF3E031D262F7008F1007108FD007B1066
:101E60005F1C332F7B14831203135F08F0000130D3
:101E70000310F00CFF3E031D382FFB10701C412F88
:101E8000FB14831203135F08F00002300310F00C00
:101E9000FF3E031D462F7B11701C4F2F7B158312B5
:101EA00003135F08F00003300310F00CFF3E031D26
:101EB000542FFB11701C5D2FFB15831203135F0859
:101EC000F00004300310F00CFF3E031D622F7B1264
:101ED000701C6B2F7B16831203135F08F000053014
:101EE0000310F00CFF3E031D702FFB12701C792FA6
:101EF000FB16831203135F08F00006300310F00C8A
:101F0000FF3E031D7E2F7B13701C872F7B178312D0
:101F100003135F08F00007300310F00CFF3E031DB1
:101F20008C2FFB13701C952FFB1783120313871143
:101F3000640083120313871564007B1AA02FA42F5B
:101F4000831203138714A72F831203138710FB1A1E
:101F5000AA2FAE2F831203130814B12F8312031379
:101F600008107B1BB42FB82F831203130714BB2F49
:101F7000831203130710FB1BBE2FC22F8312031300
:101F80008814C52F8312031388106400831203136F
:101F900087116400831203138711640083120313F3
:101FA000871564007B18D52FD92F8312031387144C
:101FB000DC2F831203138710FB18DF2FE32F83120C
:101FC00003130814E62F8312031308107B19E92F5B
:101FD000ED2F831203130714F02F8312031307103E
:101FE000FB19F32FF72F831203138814FA2F831290
:101FF0000313881064008312031387116400080020
:00000001FF
