:1000000000000A128A111228FE00030EF8000408EC
:10001000F9000A08FA00831203137F08FB000A1292
:0A0020008A155D290A168A111A2FAD
:10002C00013401348B110B12831603138C130C1334
:10003C000C128C168C110C110C148C108B120D12C2
:10004C008D110D108B170B17080083120313A501CC
:10005C00A601210820040319342835287328A70188
:10006C000314A70D452801300310A00DA10DFF3E70
:10007C00031D3A280130A4002408A7074528A11F16
:10008C004828492839284B284B2801300310A50D46
:10009C00A60DFF3E031D4C2821082302031D5828E2
:1000AC0020082202031C5B285C2864282008A2027A
:1000BC002108031CA303A302251464280130031098
:1000CC00A10CA00CFF3E031D65280130A702031DE7
:1000DC00702871284B28732873282608A101A107C2
:1000EC002508A001A0077A28080083120313071221
:1000FC008812871208122430A4002408A500A60137
:10010C00A7010A168A118D270A128A11831203136A
:10011C002108A901A9072008A801A8072908280473
:10012C00031999289A28F5292908A101A10728085B
:10013C00A001A0070A128A15BA250A128A11831285
:10014C0003132108A701A7072008A601A607071279
:10015C00881287120812013026062704031DB728BF
:10016C00B828C428013028062904031DBE28BF283E
:10017C00C4283130A4002408A500F5290130260636
:10018C002704031DCA28CB28D728023028062904A7
:10019C00031DD128D228D7283230A4002408A5006A
:1001AC00F529013026062704031DDD28DE28EA2860
:1001BC00033028062904031DE428E528EA283330F7
:1001CC00A4002408A500F529013026062704031DE8
:1001DC00F028F128FD28043028062904031DF728EF
:1001EC00F828FD284130A4002408A500F529023088
:1001FC0026062704031D032904291029013028068B
:10020C002904031D0A290B2910293430A4002408C1
:10021C00A500F529023026062704031D16291729E7
:10022C002329023028062904031D1D291E292329F0
:10023C003530A4002408A500F52902302606270431
:10024C00031D29292A293629033028062904031DD0
:10025C003029312936293630A4002408A500F52987
:10026C00023026062704031D3C293D294929043068
:10027C0028062904031D4329442949294230A40096
:10028C002408A500F529033026062704031D4F2951
:10029C0050295C29013028062904031D56295729A9
:1002AC005C293730A4002408A500F5290330260664
:1002BC002704031D622963296F29023028062904AB
:1002CC00031D69296A296F293830A4002408A50068
:1002DC00F529033026062704031D75297629822962
:1002EC00033028062904031D7C297D2982293930F5
:1002FC00A4002408A500F529033026062704031DB5
:10030C00882989299529043028062904031D8F2959
:10031C00902995294330A4002408A500F529043020
:10032C0026062704031D9B299C29A8290130280691
:10033C002904031DA229A329A8292A30A4002408D2
:10034C00A500F529043026062704031DAE29AF2984
:10035C00BB29023028062904031DB529B629BB295F
:10036C003030A4002408A500F52904302606270403
:10037C00031DC129C229CE29033028062904031DD7
:10038C00C829C929CE292330A4002408A500F529A1
:10039C00043026062704031DD429D529E12904306D
:1003AC0028062904031DDB29DC29E1294430A4009B
:1003BC002408A500F5294030A4002408A500F5293F
:1003CC00F529F529F529F529F529F529F529F52931
:1003DC00F529F529F529F529F529F529F52901300E
:1003EC0028062904031DFB29FC29042AFE29FE29C1
:1003FC00081D012A022AFE29342A342A0230280632
:10040C002904031D0A2A0B2A132A0D2A0D2A881FD8
:10041C00102A112A0D2A342A342A033028062904DA
:10042C00031D192A1A2A222A1C2A1C2A881D1F2A53
:10043C00202A1C2A342A342A043028062904031DB5
:10044C00282A292A342A2B2A2B2A081F2E2A2F2A1B
:10045C002B2A342A342A342A342A342A2508362AD8
:10046C00080083120313B9002E30B0003008B80016
:10047C00E92F4008253A0319442A452A4C2A4008FA
:10048C000A168A119F260A128A11E92F8312031366
:10049C00BB01BC01C101C2016D2A6D2AC11501301D
:1004AC00B0003008B9076D2A41140130B000300893
:1004BC00B9076D2AC2150130B0003008B9076D2A92
:1004CC0041150130B0003008B9076D2A832A39086C
:1004DC0084000A128A1500200A128A11203A031984
:1004EC005A2A033A0319602A0E3A0319542A1D3A60
:1004FC000319662A832A832A6D2AC11D862A872A14
:10050C008C2AFB30C105FF30C2058C2A39088400C7
:10051C000A128A1500200A128A110A168A116E26EE
:10052C000A128A11031C9B2A9C2AE02A83120313A9
:10053C00BB01BC01A12A831203133C08A101A10732
:10054C003B08A001A0070A30A2000030A3000A1645
:10055C008A1161270A128A11831203133908840045
:10056C000A128A1500200A128A112007B0000030E6
:10057C00031801302107B1003008D03EBB00310810
:10058C000318013EFF3EBC000130B0003008B90733
:10059C00390884000A128A1500200A128A110A16D8
:1005AC008A116E260A128A110318DD2ADE2AA12A64
:1005BC00002B002B83120313390884000A128A15AE
:1005CC0000200A128A112A3A031DED2AEE2A002B6A
:1005DC003808840083130008BB00840A0008BC00A0
:1005EC000230B0003008B8070130B0003008B9074D
:1005FC00002B002B83120313390884000A128A156E
:10060C0000200A128A112E3A031D0D2B0E2B642B7F
:10061C0042170130B0003008B907390884000A12BB
:10062C008A1500200A128A112A3A031D1E2B1F2B31
:10063C002F2B3808840083130008B0003008BA0050
:10064C000230B0003008B8070130B0003008B907EC
:10065C001B2CBA01512B0A3083120313B000300843
:10066C00A0003A080A168A1185260A128A118312EA
:10067C000313B100390884000A128A1500200A12EB
:10068C008A113107D03EB2003208BA000130B000F6
:10069C003008B907512B390884000A128A1500203A
:1006AC000A128A110A168A116E260A128A11031866
:1006BC00602B612B312B1B2C1B2C1B2CBA011B2CE4
:1006CC001B2CFF2F4117412C412C412CC116C1175B
:1006DC00412C3A08031D732B882B3A08B000B1014A
:1006EC00B01BB1033F083102031D7E2B3E083002C4
:1006FC000318812B822B882B3A08BE00BF01BE1B2E
:10070C00BF03882B3C083F02031D8E2B3B083E0287
:10071C000318912B922B992B3E08BB023F08031C0C
:10072C00BC03BC029C2BBB01BC019C2BC1199F2B95
:10073C00A02BCE2BA92BA92B20300A168A119F2671
:10074C000A128A11A92BFF3083120313BB0703185B
:10075C00BC0AFF30BC07FF303C06031DB72BFF3033
:10076C003B06031DBA2BBB2BA22BCE2BCE2BCE2B99
:10077C003D088400831300080A168A119F260A126A
:10078C008A11013083120313B0003008BD07CE2B41
:10079C000130BE020030031CBF03BF02FF303F0616
:1007AC00031DDA2BFF303E06031DDD2BDE2BBE2B8B
:1007BC00C11DE12BE22BE92FEB2BEB2B20300A1682
:1007CC008A119F260A128A11EB2BFF308312031316
:1007DC00BB070318BC0AFF30BC07FF303C06031DE7
:1007EC00F92BFF303B06031DFC2BFD2BE42BE92FD3
:1007FC00E92FE92F3808840083130008B000300873
:10080C00C0000230B0003008B8070C2C4030B000EB
:10081C003008BD000130BE000030BF006F2BC0306F
:10082C00C1040030C204412C412C0130831203134B
:10083C00B907FF30390784000A128A1500200A1202
:10084C008A11C000003A0319FF2F583A03196C2B78
:10085C003B3A0319002C073A0319412C0D3A0319A2
:10086C00412C063A0319682B1A3A0319152C0D3A28
:10087C0003196D2B0C2CC0304105B0000030420523
:10088C00B10031083004031D4C2C4D2C682C380859
:10089C00840083130008BD00840A0008BE000230E7
:1008AC00B0003008B807BE1F5C2C5D2C752C0330D3
:1008BC00C1040030C204BD09BE09BD0A0319BE0A39
:1008CC00752C752C3808840083130008BD00840A2D
:1008DC000008BE000230B0003008B807752CBA080A
:1008EC00031D792C7A2C242D3E083D04031D7F2CEE
:1008FC00802C242D0130B0003008BA07242D242D73
:10090C00872CC0010314C00D4008053A031D8F2C21
:10091C00902C922C332D332D4008B00030070D3E17
:10092C0084000A128A1500200A128A11B1000A12D8
:10093C008A1500200A128A11B20032083E02031DE9
:10094C00A92C31083D020318AC2CAD2CAF2C332D47
:10095C00332D0130B0003008C0074008053A031DA4
:10096C00B82CB92C922C332D332DC0010314C00D8F
:10097C004008043A031DC32CC42CC62C332D332D34
:10098C004008B0003007173E84000A128A15002078
:10099C000A128A11B1000A128A1500200A128A1151
:1009AC00B20032083E02031DDD2C31083D02031853
:1009BC00E02CE12CE32C332D332D0130B00030082A
:1009CC00C0074008043A031DEC2CED2CC62C332D2B
:1009DC00332DC0010314C00D4008063A031DF72C3B
:1009EC00F82CFA2C332D332D4008B0003007013E83
:1009FC0084000A128A1500200A128A11B1000A1208
:100A0C008A1500200A128A11B20032083E02031D18
:100A1C00112D31083D020318142D152D172D332DD2
:100A2C00332D0130B0003008C0074008063A031DD2
:100A3C00202D212DFA2C332D332D332D4108C03987
:100A4C00003A0319872C403A0319EF2CC03A0319CA
:100A5C00BB2C403A0319872C332D4008803AB00048
:100A6C003A08803AB00203183C2D3D2D422D3A082D
:100A7C00B0003008C000512D3A08803AB000400850
:100A8C00803AB00203184B2D4C2D512D4008B0006C
:100A9C003008BA00512D3C083B040319562D572D34
:100AAC006A2D03304105B00000304205B100310819
:100ABC0030040319622D632D6A2DFF30BB07031818
:100ACC00BC0AFF30BC076A2D421F6D2D6E2D952D73
:100ADC003A08B000B101B01BB1033108803AB20042
:100AEC003C08803A3202031D7D2D3B08300203186E
:100AFC00802D812D8F2D831203133A08B000B10184
:100B0C00B01BB1033008BB023108031CBC03BC0290
:100B1C00952D83120313BB01BC01952D952DC4306B
:100B2C004105B00008304205B10008303106031D04
:100B3C00A12D40303006031DA42DA52DB32D3C084E
:100B4C003B040319AA2DAB2DE02DFF30BB07031876
:100B5C00BC0AFF30BC07E02DE02DC0304105B000D1
:100B6C0008304205B10008303106031DBF2D80301E
:100B7C003006031DC22DC32DE02D3C08803AFF002A
:100B8C0080307F02031DCC2D03303B02031CCF2D84
:100B9C00D02DD92DFE3083120313BB070318BC0ACA
:100BAC00FF30BC07E02D83120313BB01BC01E02D09
:100BBC00E02DE02D4008B000B101B01BB1033108AD
:100BCC00803AB2003C08803A3202031DEF2D3B08FC
:100BDC0030020318F22DF32D012E8312031340085B
:100BEC00B000B101B01BB1033008BB023108031CCB
:100BFC00BC03BC02062E83120313BB01BC01062EE0
:100C0C00411D092E0A2E792E03304105B00000300B
:100C1C004205B100310830040319152E162E1D2E75
:100C2C002D300A168A119F260A128A11592E411C40
:100C3C00202E212E282E20300A168A119F260A12C9
:100C4C008A11592EC030831203134105B0000830AD
:100C5C004205B10008303106031D362E80303006B7
:100C6C00031D392E3A2E592E30300A168A119F2622
:100C7C000A128A1183120313C11A452E462E4B2ECB
:100C8C007830B3000030B400502E5830B300003030
:100C9C00B400502E33080A168A119F260A128A11A4
:100CAC00592E592E592E831203133C083B04031959
:100CBC00602E612EB42F622E30300A168A119F26B8
:100CCC000A128A11FF3083120313BB070318BC0AE4
:100CDC00FF30BC073C083B04031D752E762E622E9C
:100CEC00B42FB42FB42F3C083B0403197E2E7F2E57
:100CFC009A2EC119822E832E9A2E842E20300A16FB
:100D0C008A119F260A128A11FF3083120313BB0724
:100D1C000318BC0AFF30BC073C083B04031D972E8C
:100D2C00982E842E9A2E9A2E03304105B000003056
:100D3C004205B100310830040319A52EA62EAD2EA4
:100D4C002D300A168A119F260A128A11B92E411CBF
:100D5C00B02EB12EB92E20300A168A119F260A12F7
:100D6C008A11B92EB92EC030831203134105B0007D
:100D7C0008304205B10008303106031DC72E403043
:100D8C003006031DCA2ECB2ED22E30300A168A11F5
:100D9C009F260A128A11B42FC03083120313410507
:100DAC00B00008304205B10008303106031DE02EBA
:100DBC0080303006031DE32EE42EB42F30300A169B
:100DCC008A119F260A128A1183120313C11AEF2E5D
:100DDC00F02EF52E7830B5000030B600FA2E5830D3
:100DEC00B5000030B600FA2E35080A168A119F2677
:100DFC000A128A11B42FB42FB42FB42F9C2F062FA4
:100E0C000A3083120313A8000030A9003A08B0007E
:100E1C0030070D3E84000A128A1500200A128A112E
:100E2C00A0000A128A1500200A128A11A1003E089D
:100E3C00A301A3073D08A201A2070A128A112B20C5
:100E4C000A128A11831203132108AB01AB07200885
:100E5C00AA01AA070A128A1517210A128A118312EB
:100E6C0003132808303EB1003108C000AD2FC11A61
:100E7C00402F412F462F7830B0003008B7004B2F51
:100E8C006730B0003008B7004B2F3A08B00030077D
:100E9C00173E84000A128A1500200A128A11A0003B
:100EAC000A128A1500200A128A11A1003E08A30119
:100EBC00A3073D08A201A2070A128A112B200A12CD
:100ECC008A118312031320080F39370784000A1282
:100EDC008A1500200A128A11B1003108C000AD2F0A
:100EEC003A08B0003007013E84000A128A1500202F
:100EFC000A128A11A0000A128A1500200A128A11FD
:100F0C00A1003E08A301A3073D08A201A2070A12F3
:100F1C008A112B200A128A11831203132008073915
:100F2C00303EB1003108C000AD2FAD2F831203133A
:100F3C004108C039003A0319062F403A0319762F9D
:100F4C00C03A03193D2F403A0319062FAD2F400824
:100F5C000A168A119F260A128A11B42FFF308312A7
:100F6C000313B0003008BA073A08FF3A031DBF2F2D
:100F7C00C02F9C2FC11DC32FC42FE92F3C08803AD2
:100F8C00FF0080307F02031DCD2F01303B02031C7C
:100F9C00D02FD12FE92FD22F20300A168A119F265D
:100FAC000A128A11FF3083120313BB070318BC0A01
:100FBC00FF30BC073C083B04031DE52FE62FD22F66
:100FCC00E92FE92FE92F013083120313B907FF3002
:100FDC00390784000A128A1500200A128A11B000FF
:100FEC003008C000C008031DFC2FFD2F3F2AFF2F27
:100FFC00FF2F080008308A000408840A8207003496
:10100C0001340034083400344034003400340234E9
:10101C000034103400348034013400340A34003489
:10102C0064340034E834033410342734013400348D
:10103C0010340034003401340034103420342034A3
:10104C0020342034203420345334793473347434C1
:10105C0065346D3420342034203420342034003472
:10106C0020342034203420344D346F346E346934C1
:10107C0074346F34723469346E34673420342034F1
:10108C0020340034203461346E34643420344834D9
:10109C0065346134723474342034523461347434B1
:1010AC00653420342034003442346F346434793461
:1010BC002034543465346D34703465347234613496
:1010CC007434753472346534203400343034313433
:1010DC0032343334343435343634373438343934B8
:1010EC00413442344334443445344634003430348F
:1010FC0031343234333434343534363437343834A0
:10110C0039346134623463346434653466340034A5
:10111C0020342034203420342034203420346634DD
:10112C006F34723420342034203420342034203472
:10113C00003420342034203420345034613474345E
:10114C00693465346E347434733420342034203470
:10115C002034003454343A34203420343834343489
:10116C0046342034203420344C346F3477342034DB
:10117C0020342034003448343A342034203436348B
:10118C003234503450344D3420344C346F34773442
:08119C0020342034203400341B
:1011A600720871040319D828D9280F29F6010314E7
:1011B600F60DE92801300310F10DF20DFF3E031D77
:1011C600DE280130F5007508F607E928F21FEC283D
:1011D600ED28DD28EF28EF2872087402031DF52894
:1011E60071087302031CF828F92800297108F30214
:1011F6007208031CF403F402002901300310F20CF8
:10120600F10CFF3E031D01290130F602031D0C29D6
:101216000D29EF280F290F297408F201F207730828
:10122600F101F1071629080083120313290828047F
:1012360003191E291F295529AD010314AD0D2F29A8
:1012460001300310A80DA90DFF3E031D242901300E
:10125600AC002C08AD072F29A91F322933292329D1
:101266003529352929082B02031D3B2928082A027E
:10127600031C3E293F2946292808AA022908031CDF
:10128600AB03AB02462901300310A90CA80CFF3EA4
:10129600031D47290130AD02031D52295329352963
:1012A600552955292B08A901A9072A08A801A80725
:1012B6005C2908000C1C60296129CB290130DA075A
:1012C6000318DB0A0030DB070A305A065B04031DED
:1012D6006D296E29C5290130DC070318DD0A0030A7
:1012E600DD0740308806DA01DB013C305C065D0430
:1012F600031D7E297F29C5294D08CB01CB074C0844
:10130600CA01CA07CC01CD010130D8070318D90A92
:101316000030D9070A128A15F0220A128A150A160F
:101326008A11BA260A128A1583120313DC01DD011B
:101336001E30F1000030F2005908F401F407580895
:10134600F301F3070A128A15D3200A128A157108C7
:10135600F700770883120313E700B229B2293C305D
:1013660058065904031DB829B929C529D801D90138
:101376000130D2070318D30A0030D307C529C5297F
:10138600C529C5290C10B0308E003C308F00CB2902
:101396008C1ECE29CF29042A1819D229D329F62939
:1013A6009818D629D729F6291A08F7007708E600EB
:1013B6001A082A3A0319E029E129E72914305E02BE
:1013C600031CE629E729E929DE01E9291A08F700BD
:1013D6005E08A03E84007708831380000130F70082
:1013E6007708DE07022A181218111A08F70077087C
:1013F600E6001A08F7007708E6001816022A8C128B
:10140600042A981C072A082A132A18121A08F70011
:101416007708E6001A08F7007708E6001816132A78
:101426007B08FF007A088A0079088400780E83001A
:10143600FE0E7E0E09008312031387110711881012
:1014460007100814871087158711881407100810CD
:10145600871087158711A001A10109302102C43028
:1014660003192002031C382A392A3B2A4A2A4A2A07
:101476000130A0070318A10A0030A1070930210294
:10148600C43003192002031C492A4A2A3B2A0711A1
:1014960088100710081487108715871188140710FD
:1014A6000810871087158711A001A10109302102B4
:1014B600C43003192002031C612A622A642A732A93
:1014C600732A0130A0070318A10A0030A1070930CA
:1014D6002102C43003192002031C722A732A642ACB
:1014E60007118810071008108710871587118810B4
:1014F60007140814871087158711A001A101093068
:101506002102C43003192002031C8A2A8B2A8D2A41
:101516009C2A9C2A0130A0070318A10A0030A107C3
:1015260009302102C43003192002031C9B2A9C2A7D
:101536008D2A071188100710081087108715871144
:10154600881407140810871487158711A001A101B4
:1015560009302102C43003192002031CB32AB42A1D
:10156600B62AC52AC52A0130A0070318A10A0030E9
:10157600A10709302102C43003192002031CC42A22
:10158600C52AB62A07118810071008108710871574
:101596008711881007100810871487158711A00176
:1015A600A10109302102C43003192002031CDC2AE0
:1015B600DD2ADF2AEF2AEF2A0130A0070318A10A45
:1015C6000030A10709302102C43003192002031C90
:1015D600ED2AEE2ADF2AEF2A080083120313871169
:1015E60007118810071008148710871587118814AB
:1015F60007100810871087158711F101F2010930CD
:101606007202C43003197102031C0A2B0B2B0D2B1B
:101616001C2B1C2B0130F1070318F20A0030F207CD
:1016260009307202C43003197102031C1B2B1C2BD8
:101636000D2B831203130711881007100814871047
:1016460087158711881407100810871087158711CA
:10165600F101F20109307202C43003197102031C50
:10166600352B362B382B472B472B0130F107031828
:10167600F20A0030F20709307202C430031971020F
:10168600031C462B472B382B831203130711881094
:10169600071008108710871587118810071408147B
:1016A600871087158711F101F20109307202C430E3
:1016B60003197102031C602B612B632B722B722B97
:1016C6000130F1070318F20A0030F20709307202FE
:1016D600C43003197102031C712B722B632B831206
:1016E6000313071188100710081087108715871134
:1016F600881407140810871487158711F101F20161
:1017060009307202C43003197102031C8B2B8C2B17
:101716008E2B9D2B9D2B0130F1070318F20A00300A
:10172600F20709307202C43003197102031C9C2BA4
:101736009D2B8E2B83120313071188100710081098
:1017460087108715871188100710081087148715CA
:101756008711F101F20109307202C43003197102D6
:10176600031CB62BB72BB92BC92BC92B0130F1079C
:101776000318F20A0030F20709307202C430031966
:101786007102031CC72BC82BB92BC92B0800831267
:1017960003136008F10004300310F10CFF3E031D33
:1017A600CF2B7108F2007208E1006008F1000330E7
:1017B6000310F10DFF3E031DDB2B0310710DF2002C
:1017C6007208E2006208F10004300310F10CFF3EDB
:1017D600031DE82B7108F2007208E2007C10601C01
:1017E600F52B7C14831203136008F10001300310FB
:1017F600F10CFF3E031DFA2BFC10711C032CFC148C
:10180600831203136008F10002300310F10CFF3E4F
:10181600031D082C7C11711C112C7C1583120313DB
:101826006008F10003300310F10CFF3E031D162C77
:10183600FC11711C1F2CFC15831203136008F100A8
:1018460004300310F10CFF3E031D242C7C12711C86
:101856002D2C7C16831203136008F100053003104B
:10186600F10CFF3E031D322CFC12711C3B2CFC16A6
:10187600831203136008F10006300310F10CFF3EDB
:10188600031D402C7C13711C492C7C1783120313F7
:101896006008F10007300310F10CFF3E031D4E2CCB
:1018A600FC13711C572CFC17831203138711640059
:1018B60083120313871564007C1A622C662C83122C
:1018C60003138714692C831203138710FC1A6C2CDC
:1018D600702C831203130814732C8312031308103D
:1018E6007C1B762C7A2C8312031307147D2C83120F
:1018F60003130710FC1B802C842C831203138814FB
:10190600872C831203138810640083120313871134
:10191600640083120313871164008312031387156F
:1019260064007C18972C9B2C8312031387149E2C1F
:10193600831203138710FC18A12CA52C8312031302
:101946000814A82C8312031308107C19AB2CAF2C97
:10195600831203130714B22C831203130710FC1906
:10196600B52CB92C831203138814BC2C83120313D1
:101976008810640083120313871164000800831221
:1019860003136008A00004300310A00CFF3E031DE3
:10199600C72C2008A1002108E1006008A000033040
:1019A6000310A00DFF3E031DD32C0310200DA10034
:1019B6002108E2006208A00004300310A00CFF3EDC
:1019C600031DE02C2008A1002108E2007C10601C09
:1019D600ED2C7C14831203136008A0000130031061
:1019E600A00CFF3E031DF22CFC10201CFB2CFC144B
:1019F600831203136008A00002300310A00CFF3E00
:101A0600031D002D7C11201C092D7C158312031348
:101A16006008A00003300310A00CFF3E031D0E2D2E
:101A2600FC11201C172DFC15831203136008A0005F
:101A360004300310A00CFF3E031D1C2D7C12201C3D
:101A4600252D7C16831203136008A00005300310B1
:101A5600A00CFF3E031D2A2DFC12201C332DFC1664
:101A6600831203136008A00006300310A00CFF3E8B
:101A7600031D382D7C13201C412D7C178312031364
:101A86006008A00007300310A00CFF3E031D462D82
:101A9600FC13201C4F2DFC178312031387116400BF
:101AA60083120313871564007C1A5A2D5E2D831248
:101AB60003138714612D831203138710FC1A642DF8
:101AC600682D8312031308146B2D83120313081059
:101AD6007C1B6E2D722D831203130714752D831232
:101AE60003130710FC1B782D7C2D83120313881417
:101AF6007F2D83120313881064008312031387114A
:101B0600640083120313871164008312031387157D
:101B160064007C188F2D932D831203138714962D42
:101B2600831203138710FC18992D9D2D831203131E
:101B36000814A02D8312031308107C19A32DA72DBA
:101B4600831203130714AA2D831203130710FC191B
:101B5600AD2DB12D831203138814B42D83120313F4
:101B6600881064008312031387116400080083122F
:101B76000313071288128712081201302006210467
:101B8600031DC62DC72D002E0716640083120313EE
:101B9600081DCE2DCF2DD52D0130A0000030A1007F
:101BA600C32EC32E8816640083120313081DDC2D72
:101BB600DD2DE32D0230A0000030A100C32EC32E80
:101BC6008716640083120313081DEA2DEB2DF12DF1
:101BD6000330A0000030A100C32EC32E08166400F7
:101BE60083120313081DF82DF92DC32E0430A0000F
:101BF6000030A100C32EC32EC32E023020062104BE
:101C0600031D062E072E402E0716640083120313AB
:101C1600881F0E2E0F2E152E0130A0000030A100B9
:101C2600C32EC32E8816640083120313881F1C2E2E
:101C36001D2E232E0230A0000030A100C32EC32E7D
:101C46008716640083120313881F2A2E2B2E312E2B
:101C56000330A0000030A100C32EC32E0816640076
:101C660083120313881F382E392EC32E0430A0008A
:101C76000030A100C32EC32EC32E0330200621043C
:101C8600031D462E472E802E07166400831203136B
:101C9600881D4E2E4F2E552E0130A0000030A1007B
:101CA600C32EC32E8816640083120313881D5C2E70
:101CB6005D2E632E0230A0000030A100C32EC32E7D
:101CC6008716640083120313881D6A2E6B2E712EED
:101CD6000330A0000030A100C32EC32E08166400F6
:101CE60083120313881D782E792EC32E0430A0008C
:101CF6000030A100C32EC32EC32E043020062104BB
:101D0600031D862E872EC32E071664008312031327
:101D1600081F8E2E8F2E952E0130A0000030A100B8
:101D2600C32EC32E8816640083120313081F9C2E2D
:101D36009D2EA32E0230A0000030A100C32EC32E7C
:101D46008716640083120313081FAA2EAB2EB12E2A
:101D56000330A0000030A100C32EC32E0816640075
:101D660083120313081FB82EB92EC32E0430A00009
:101D76000030A100C32EC32EC32EC32EC32EC32EE6
:101D860008000A168A113D270A128A150A168A11B0
:101D960056260A128A150A128A151E220A128A1550
:101DA6000A168A11F9260A128A150A168A11D926DE
:101DB6000A128A150A168A115F260A128A150A124B
:101DC6008A1118200A128A150A128A151E220A1268
:101DD6008A150A168A11F9260A128A1555300A1228
:101DE6008A1137220A128A1583120313A2010314D9
:101DF600A20D02300A168A11C1270A128A1543302B
:101E06000A128A1137220A128A1506308312031320
:101E1600C5001330C400B130C300C30B102FC40B70
:101E2600102FC50B102F172F83120313A2010314B3
:101E3600A20D01300A168A11C1270A128A153130FD
:101E46000A128A1137220A128A1583120313A20173
:101E56000314A20D02300A168A11C1270A128A1526
:101E66001F300A128A1137220A128A150630831287
:101E76000313C5001330C400B130C300C30B412F98
:101E8600C40B412FC50B412F482F83120313A20108
:101E96000314A20D01300A168A11C1270A128A15E7
:101EA60089300A128A1137220A128A1583120313FD
:101EB600A2010314A20D02300A168A11C1270A12C2
:101EC6008A159A300A128A1137220A128A150630A2
:101ED60083120313C5001330C400B130C300C30B13
:101EE600722FC40B722FC50B722F792F8312031317
:101EF600A2010314A20D01300A168A11C1270A1283
:101F06008A15831203134B08AF01AF074A08AE01C7
:101F1600AE07BC300A128A1137220A128A158312BA
:101F26000313A2010314A20D02300A168A11C12757
:101F36000A128A15831203134F08AF01AF074E0822
:101F4600AE01AE07AB300A128A1137220A128A1581
:101F56000A168A11F9260A128A1583120313E30157
:101F66000314E30DE72FE72F0A30C3004308E3000D
:101F7600E72F87140A128A117B200A128A15831208
:101F86000313C3004308C6004608243A0319CC2F9E
:101F9600CD2FDE2FCF2FCF2F0C1ED22FD32FCF2F0B
:101FA600D42F46089900F930C3006400C30BD82F1C
:101FB600DC2F6400DE2F831203138710E72FE72F31
:101FC600E72FE72FE72FE72F6308013A0319B72F0B
:101FD600033A0319E72F013A0319E72F093A0319C0
:101FE600BC2F1E3A0319E72F0A3A0319E72FE72FEA
:0A1FF600E72FE72F0A128A111228C4
:102C9C0064008001840A04060319003404064F2ED4
:102CAC004030831203139F008430831603139F005C
:102CBC000800831203139012101690101014901128
:102CCC00B0308E003C308F00831603130C140800B8
:102CDC0083120313A100A0013A3021020318772EAE
:102CEC00782E822E30302102031C7D2E7E2E822ED9
:102CFC00A0010314A00D822E200C842E0800831238
:102D0C000313A300A201231C8C2E8D2E922E2008BF
:102D1C00A1002108A207922E0310A00D0310A30CF2
:102D2C00A308031D9A2E9B2E892E9C2E22089E2EC4
:102D3C00080083120313A30007150630A200A20B90
:102D4C00A52E6400831203132308A2002208E000BE
:102D5C000A128A15C2240A168A112130831203130F
:102D6C00A200A20BB72E0800831203130711063022
:102D7C00F300F30BBF2E640083120313E001031462
:102D8C00E00D0A128A15CA230A168A110D30F400B6
:102D9C00FB30F300F30BD02EF40BD02ED52E831278
:102DAC00031307150800831203139817181318162A
:102DBC0083160313181398161812181581309900DE
:102DCC008C160C128312031398110330A2008A3054
:102DDC00A1005630A000A00BF12EA10BF12EA20BDE
:102DEC00F12EF82E08008312031307110630A200EF
:102DFC00A20BFE2E640083120313E0010314E00DFA
:102E0C000A128A15C2240A168A110D308312031372
:102E1C00A300FB30A200A20B112FA30B112F162F16
:102E2C008312031307150800FC01EC0183134730D0
:102E3C0084006A300A168A114E260A168A11A030AE
:102E4C008400BD300A168A114E260A168A110A12FF
:102E5C008A1116200A168A11EA000A128A11172002
:102E6C000A168A11EB0083010A128A15C42EFF3050
:102E7C00831603138500831203138501C030831658
:102E8C000313860083120313860180308316031309
:102E9C008700831203138701CC3083160313880039
:102EAC008312031388018030831603138900831265
:102EBC0003138901080083120313A401A501662FD3
:102ECC00201C692F6A2F702F2208A4070318A50A4B
:102EDC002308A50701300310A20DA30DFF3E031D0F
:102EEC00712F01300310A10CA00CFF3E031D782F95
:102EFC0021082004031D832F842F662F852F25087E
:102F0C00A101A1072408A001A0078C2F080083129F
:102F1C0003130819922F932F982F0130A200003021
:102F2C00A300B92F881B9B2F9C2FA12F0230A2002E
:102F3C000030A300B92F8819A42FA52FAA2F033076
:102F4C00A2000030A300B92F081BAD2FAE2FB32F5A
:102F5C000430A2000030A300B92FA201A301B92FA5
:102F6C00B92FB92FB92F2308A101A1072208A0015D
:102F7C00A007C02F080083120313A6002608013AED
:102F8C00031DC92FCA2FCE2F8030A3002308A60003
:102F9C002608023A031DD32FD42FD92FC030A300FB
:102FAC002308A600D92F22082607FF3EA3002308DA
:102FBC00A50007110630A300A30BE22F64008312B7
:102FCC0003132508A3002308E0000A128A15C22463
:102FDC000A168A110D3083120313A400FB30A300D0
:102FEC00A30BF62FA40BF62FFB2F83120313A601B2
:042FFC00A201080026
:00000001FF
